:020000040800F2
:100000000004002047010008550F0008570F0008A2
:100010005B0F00085F0F0008630F0008000000007E
:10002000000000000000000000000000670F000852
:10003000690F0008000000006B0F00086D0F00083A
:1000400067010008670100086701000867010008F0
:1000500067010008670100086701000867010008E0
:1000600067010008670100086701000867010008D0
:1000700067010008670100086701000867010008C0
:1000800067010008670100086701000867010008B0
:1000900067010008670100086701000867010008A0
:1000A0006701000867010008670100086701000890
:1000B0006701000843120008A31200086701000846
:1000C0006701000867010008670100086701000870
:1000D00067010008F90F00086701000867010008C0
:1000E0006701000867010008670100086701000850
:1000F0006701000867010008670100086701000840
:10010000670100086701000867010008670100082F
:10011000670100086701000867010008670100081F
:10012000670100086701000867010008670100080F
:10013000DFF80CD003F0CCFF004800472F0A00087E
:1001400078030020704708488047084981F30888F1
:1001500007480047FEE7FEE7FEE7FEE7FEE7FEE7AB
:10016000FEE7FEE7FEE7FEE7450100087803002012
:1001700031010008002107E0002200E0521C42F695
:10018000E0639A42FAD3491C8142F5D3704710B517
:100190000121042002F00EFD0121084602F00AFDB3
:1001A000FE48406840F40050FC49486008464068FA
:1001B00020F48040486010BD10B50121042002F0F9
:1001C000F9FC0121082002F0F5FC0121084602F0AB
:1001D000F1FC0121F24802F026FB10BD10B50446E7
:1001E0002146F04802F06DFE00BFEE48008810F096
:1001F000800FFAD010BD2DE9F04108260827F01E27
:1002000006287DD2DFE800F01018232C8303E6498E
:10021000522001F070FE04462CB903260224E34864
:1002200001F094FE044600BF2CB904260224DF48E6
:1002300001F0F9FE044600BF44B905260224DB4B59
:10024000DB4A0921602001F028FF044600BF34B9D1
:1002500006260224D749384601F056FF044600BF5F
:10026000002C53D1D348C57BBB20FFF7B7FF5B20E1
:10027000FFF7B4FF2846FFF7B1FF0020FFF7AEFFFE
:10028000B620FFF7ABFFB520FFF7A8FFBB21C5489D
:1002900002F017FE00BFC348008810F0800FFAD0AC
:1002A0005B21C04802F00DFE00BFBE48008810F080
:1002B000800FFAD02946BB4802F003FE00BFB948C0
:1002C000008810F0800FFAD00021B64802F0F9FD46
:1002D00000BFB448008810F0800FFAD0B621B148B2
:1002E00002F0EFFD00BFAF48008810F0800FFAD099
:1002F000B521AC4802F0E5FD00BFAA48008800E047
:1003000007E010F0800FF8D00726022400BF08266F
:1003100000BF08262846BDE8F08110B50446012C30
:100320000FD18102A44802F05CFA0421A24802F035
:1003300058FAE102A04802F052FAE1039F4802F0A5
:100340004EFA022C0FD1A1029B4802F04AFAA103F7
:100350009A4802F046FA6102974802F040FA0421F6
:10036000954802F03CFA94B94FF48061924802F04B
:1003700036FA4FF40061904802F031FA4FF4004130
:100380008E4802F02CFA04218B4802F028FA10BDA6
:100390008B4908604FF0E021096941F003014FF0FB
:1003A000E02211617047874800684FF4AA71484302
:1003B000400885490860704710B50224FFF7F3FF35
:1003C00010217E4802F0F1F98049087020217B4815
:1003D00002F0EBF97E490870E101784802F0E5F996
:1003E0007C4908702102744802F0DFF97A490870EC
:1003F0004021714802F0D9F97849087073480078B3
:10040000C0B973480078A8B97248007890B97248AA
:10041000007878B90846007860B97148007830B93A
:100420007048007818B970480078012802D13C2043
:100430006E4908806548007860B16548007848B129
:100440006448007830B16448007818B16348007897
:1004500000B101245D48007860B15D48007848B182
:100460005C48007830B95C48007818B15B48007887
:1004700000B102245548007860B15548007848B969
:100480005448007830B95448007818B95348007877
:1004900000B102244D48007860B14D48007848B959
:1004A0004C48007830B94C48007818B14B48007877
:1004B00000B102244548007860B94548007848B941
:1004C0004448007830B14448007818B14348007877
:1004D00000B104243D48007860B13D48007848B937
:1004E0003C48007830B13C48007818B13B4800786F
:1004F00000B104243548007860B93548007848B127
:100500003448007830B13448007818B13348007866
:1005100000B105242D48007860B92D48007848B90D
:100520002C48007830B92C48007818B12B48007856
:1005300000B105242548007860B12548007848B10D
:100540002448007830B92448007818B92348007846
:1005500000B102241D48007860B11D48007848B100
:100560001C48007830B11C48007818B91B48007846
:1005700000B907241548007860B11548007848B1E3
:100580001448007830B11448007818B9134800783E
:1005900000B107240D48007850B32AE00000014064
:1005A0000002300000380140D0000020A0000020F0
:1005B00016000020E4000020000C0140000801406B
:1005C000940000206400002068000020A4000020A7
:1005D000A5000020A6000020A7000020A800002001
:1005E000790000207A0000207B0000209E0000207F
:1005F0000CE0FE48007848B1FD48007830B1FD4875
:10060000007818B1FC48007800B90824FB4800784D
:1006100060B1F648007848B1F548007830B9F5483F
:10062000007818B9F448007800B90824F448006844
:10063000DC2800D80924F2480068B42800D80A242D
:10064000204610BD10B5EF48007818B1FFF7B4FE92
:10065000044601E0EB480478EA48007800B1BCB9F0
:1006600001231A460021980701F0A6F8012302226F
:100670000021500701F0EBF8012303220021980725
:1006800001F030F9012304220021100701F076F96E
:10069000DC480078E8B1012C1BD103230122DA48A1
:1006A0000188900701F088F803230222D6480188C8
:1006B000500701F0CCF803231A46D3480188A0075D
:1006C00001F010F903230422CF480188100701F03C
:1006D00055F9CC480078E8B1022C1BD10223012245
:1006E000C9480188900701F067F802231A46C648F6
:1006F0000188580701F0ABF802230322C2480188A1
:10070000580701F0EFF802230422BF4801881007C0
:1007100001F034F9BB480078C8B1032C17D102238B
:1007200001225021880601F047F8032302225021BC
:10073000880601F08CF8022303225021880601F07C
:10074000D1F8032304225021880601F017F9AD489F
:100750000078C8B1042C17D1022301225021880649
:1007600001F02AF8032302225021880601F06FF8D5
:10077000022303225021880601F0B4F80323042247
:100780005021880601F0FAF89E480078C8B1052C7F
:1007900017D1022301225021880601F00DF803230E
:1007A00002225021880601F052F802230322502130
:1007B000880601F097F8032304225021880601F0EF
:1007C000DDF890480078C8B1062C17D10323012228
:1007D0005021880600F0F0FF02231A4650218806B7
:1007E00001F035F803231A465021880601F07AF803
:1007F000022304225021880601F0C0F881480078C5
:10080000C8B1072C17D1032301225021880600F01C
:10081000D3FF02231A465021880601F018F803235B
:100820001A465021880601F05DF802230422502167
:10083000880601F0A3F873480078C8B1082C17D1D6
:10084000032301225021880600F0B6FF02231A4636
:100850005021880600F0FBFF03231A46502188062A
:1008600001F040F8022304225021880601F086F8A6
:1008700064480078C8B1092C17D104230122002153
:10088000900700F099FF042302220021500700F096
:10089000DEFF042303220021180701F023F80423BC
:1008A0001A460021180701F069F856480078C8B1C7
:1008B0000A2C17D1042301220021900700F07CFFAD
:1008C000042302220021500700F0C1FF0423032269
:1008D0000021180701F006F804231A460021180722
:1008E00001F04CF810BD10B548480078B8B90024A4
:1008F0000CE04748015D474802F0E3FA00BF454875
:10090000008810F0800FFAD0601CC4B2212CF0DBFC
:1009100001203E4908704FF47A70FFF72BFC3B48EA
:100920000078022817D100240CE03B48015D3948CB
:1009300002F0C7FA00BF3748008810F0800FFAD0E5
:10094000601CC4B20E2CF0DB0320304908704FF459
:100950007A70FFF70FFC2D480078042817D1002487
:100960000CE02E48015D2B4802F0ABFA00BF29488D
:10097000008810F0800FFAD0601CC4B20C2CF0DBA1
:100980000520224908704FF47A70FFF7F3FB1F48E7
:100990000078062806D107201C4908704FF47A70A9
:1009A000FFF7E8FB1948007807283FD108201749CE
:1009B000087001201A4908701A490870BB20FFF717
:1009C0000DFC5B20FFF70AFC0020FFF707FC00206E
:1009D000FFF704FCB120FFF701FCB520FFF7FEFB99
:1009E000DC20FFF7D5FC41F288301DE0A500002097
:1009F000A6000020A7000020A8000020A4000020DE
:100A000064000020AD0000209E0000207600002041
:100A10001C000020003801403D0000204B00002059
:100A20007500002077000020FFF7A4FB10BDFFF742
:100A3000AEFBFFF7C1FB00F011FE03F01EFB00F060
:100A4000D7FC00F04BFD00F062FD00F0AAFD00F0C5
:100A50002FFE00F047FE00F080FD00F052FE00F097
:100A600095FE00F00AFE00F01BFD9620FE4908608E
:100A700008460068C0F5FA60FC4908600020FC499F
:100A8000087001F0C8FC0020FFF747FC012240F28B
:100A90002551F84802F0B9F901F0F8FC01F00BFD1E
:100AA00001F031FD01F044FD01F064F90020F2494C
:100AB0000870F249087041F28830FFF75BFB0020B4
:100AC000EF49C8734FF49670FFF762FCECE1ED4814
:100AD000007808B9FFF707FFE1E1FFF7B3FDEA4847
:100AE000007818B9E948007800287DD0E448C07B38
:100AF00010B9FFF780FB25E0E148C07B10B3E04868
:100B0000C07BE1490978884205D0DD48C07BDF49D8
:100B10000978884204D1DA48C07BD749087011E0CF
:100B2000D748C07BD849097888420BD0D448C07BCD
:100B3000D6490978884205D00020D149C873502091
:100B4000D3490880CC480078CF49097888427DD1C4
:100B5000CD480078002879D0CC4800780028FAD019
:100B60005020CB49088001231A460021800600F05E
:100B700023FE012302220021500700F068FE01231A
:100B800003220021980700F0ADFE0123042200217A
:100B9000100700F0F3FE4FF4FA70FFF7EBFA4FF492
:100BA0009670FFF7F5FB4FF47A70FFF7E3FA022334
:100BB0000122B7480188900700F0FEFD02231A4683
:100BC000B3480188580700F042FE02230322B048D0
:100BD0000188580700F086FE02230422AC480188F1
:100BE000100700F0CBFE00E003E14FF49670FFF732
:100BF000C1FA01231A460021980700F0DDFD012308
:100C000002220021500700F022FE012303220021CE
:100C1000980700F067FE012304220021100700F06E
:100C2000ADFE4FF4FA70FFF7A5FA032301229848AE
:100C30000188900700F0C0FD032302229448018838
:100C4000500700F004FE03231A4600E055E09048E8
:100C500001884FF0804000F045FE032304228C48B9
:100C60000188100700F08AFEC820FFF783FA0123ED
:100C70001A460021980700F09FFD0123022200215F
:100C8000500700F0E4FD012303220021980700F043
:100C900029FE012304220021100700F06FFE4FF40B
:100CA000FA70FFF767FADC20FFF772FB0120FFF70D
:100CB00034FB4FF4FA70FFF75DFA0020FFF72DFBCD
:100CC0004FF42F70FFF756FA00206D49C8736A4938
:100CD00008706D490870BB20FFF780FA5B20FFF7B2
:100CE0007DFA0020FFF77AFA0020FFF777FAB320A9
:100CF000FFF774FAB520FFF771FA5F48007863498F
:100D00000978884264D160480078002860D15F4843
:100D1000007800285CD001231A460021980700F0D3
:100D20004BFD012302220021500700F090FD01231A
:100D300003220021980700F0D5FD012304220021A1
:100D4000100700F01BFE0220FFF7E7FA4FF47A606D
:100D5000FFF710FA0020FFF7E0FA50204C49088016
:100D60000223012208460188900700F025FD022396
:100D70001A4647480188580700F069FD02230322FC
:100D800043480188580700F0ADFD02230422404883
:100D90000188100700F0F2FD00203949C873364978
:100DA00008703A490870012034490870BB20FFF7E9
:100DB00015FA5B20FFF712FA0020FFF70FFA002068
:100DC000FFF70CFAB420FFF709FAB520FFF706FA8F
:100DD000294800782D49097888420AD12A480078A4
:100DE00038B100202649C87323490870502028498B
:100DF000088022480078012851D12148C07B08B9D9
:100E0000FFF7F9F91E48C07BFF2822D100201B49BB
:100E100008702049087001231A460021980700F045
:100E2000CBFC012302220021500700F010FD01231A
:100E300003220021980700F055FD01230422002120
:100E4000100700F09BFD50201149088000200C493C
:100E5000C8730B48C07BFF2821D00948C07BF0B184
:100E600000200749C87317E0940000209800002074
:100E70009C00002000380140AB0000207B000020D7
:100E8000E400002075000020790000207A00002096
:100E90009E000020AD00002050201B4908801B4808
:100EA000007800287FF419AE11E610B518480078D4
:100EB00002280DD1C101174801F093FC0120FFF772
:100EC0002CFA15A003F016F90020114908701AE059
:100ED0000F480078032809D10220FFF71EFA13A05B
:100EE00003F008F900200A4908700CE0084800786F
:100EF000042808D10020FFF710FA11A003F0FAF837
:100F000000200349087010BD9E00002075000020DD
:100F100070000020000C01400A20456E636F6D7068
:100F2000617373323120200A000000000A20456EF0
:100F3000636F6D70617373323220200A000000000D
:100F40000A20456E636F6D70617373323420200A1E
:100F500000000000704700BFFEE700BFFEE700BFD3
:100F6000FEE700BFFEE770477047704710B5FE48C8
:100F70000068401CFC490860FC480068401CFB49B4
:100F80000860FB48007880B908460068F94909689C
:100F900088420AD14FF48071F74801F022FC00200A
:100FA000F24908600120F2490870F14800780128F0
:100FB00011D1F0480068C0F5FA60EC490968884230
:100FC00009D14FF48071EC4801F009FC0020E74999
:100FD0000860E7490870E4480068E84988420AD197
:100FE0000020E14908604FF0E020006920F0030094
:100FF0004FF0E021086110BD70B5E148007800288D
:101000007DD12021DF4801F0B3FF012877D1DD48F1
:1010100001F05BFFC6B2DB4801F057FFDA49DB4A5B
:10102000127888544F2E02D10120D9490870D8482F
:101030000078012804D1D5480078401CD3490870B5
:10104000D2480078022859DBCF4800784F2814D1C5
:10105000CD4840784B2810D1CE480078012807D0E1
:10106000CC480078032803D0CA480078052804D16A
:10107000C8480078401CC7490870C34800784F280A
:1010800014D1C14840784E2810D1C24800780128B8
:1010900007D0C0480078032803D0BE480078052850
:1010A00004D1BC480078401CBA490870B6480078A2
:1010B0004F2814D1B4484078522810D1B548007850
:1010C000012807D0B3480078032803D0B14800783E
:1010D000052804D1AF480078401EAE4908700024AE
:1010E00005E00CE00020A8490855601C84B2402CA3
:1010F000F8DB0020A5490870A54908700026A04823
:10110000007801287DD120219E4801F031FF01287F
:10111000F8D19C4801F0D9FEC5B2AA2D10D100200B
:101120009D4908600121022001F051FD01219B48E9
:1011300002F051FA01209A4908700020994908707C
:101140009748007801287AD19748984909784554FA
:1011500096480078401C9549087008460078062893
:101160006DD100218D4802F036FA0021022001F0F5
:101170002EFD00208D49087001208A4908708A4898
:101180000078AA2851D1884840785A284DD18648FD
:101190000079A52849D184484079A52845D18248BD
:1011A000807870B98048C07858B9012080490870AB
:1011B0000020804908708049087001207F4908702C
:1011C0001DE079488078FF280BD17748C078FF2848
:1011D00007D1002076490870764908707649087072
:1011E0000DE071488078734908706F48C078724983
:1011F000087001206E490870002070490870BB20FB
:1012000000E01DE0FEF7EAFF5B20FEF7E7FF66491E
:101210008878FEF7E3FF6449C878FEF7DFFFB22065
:10122000FEF7DCFFB520FEF7D9FF002405E006E05D
:1012300000205D490855601C84B2052CF8DD0026AD
:1012400070BD10B50121554802F0A3FC40B1012149
:10125000524802F0AFFC50480068401C4E490860FC
:101260004D48006814281BD300214C4802F0B3F904
:101270000021022001F0ABFC0020474908604948EA
:10128000007868B9002404E0002047490855601C34
:10129000C4B2052CF8DD00204149087043490870AC
:1012A00010BD10B50121464802F073FC40B1012188
:1012B000434802F07FFC43480068401C41490860F5
:1012C0004148007850B93F480068012806D1802184
:1012D000294801F084FA01203B4908703A48007817
:1012E00001280DD137480068032809D380212248FE
:1012F00001F077FA00203349086002203249087073
:101300003148007802280BD110211B4801F04DFA1A
:10131000012805D100202B49086003202A490870C4
:101320002948007803280FD11021134801F03DFA15
:10133000012809D023480068244908600420224974
:10134000087000201F4908601F480078042847D112
:101350001021094801F029FA012841D019480068F4
:10136000B0F5FA5F3CD333E0B000002080000020ED
:101370009C00002094000020000C0140E093040039
:101380007700002000380140340100207300002065
:101390007800002076000020580000200004004063
:1013A0007C0000207D000020F4000020720000205E
:1013B000AD000020790000207A0000207B00002092
:1013C000000800405C000020600000206400002055
:1013D0000020044908700449086006200349086099
:1013E00010BD0000600000205C0000206C000020A8
:1013F00000B585B0012144F2040001F0DBFB4FF49D
:101400000070ADF8100018208DF8130003208DF83F
:10141000120004A92E4801F037F94FF48060ADF8AE
:10142000100004208DF8130004A9294801F02CF9BC
:101430004FF4E13000900020ADF80400ADF8060054
:10144000ADF80800ADF80C000C20ADF80A006946B4
:10145000204801F060FC01211E4801F0CAFC05B0E3
:1014600000BD70B504460D46E1B21A4801F029FDF1
:1014700000BF1848008810F0800FFAD0204670BDD9
:1014800010B52021134801F073FD012806D1114841
:1014900001F01BFD10490870012010BD0020FCE781
:1014A00008B54FF4E06002F089FB00214FF00060C6
:1014B00002F0BCFB25208DF8000000208DF8020012
:1014C00001208DF80300684602F07DFB08BD000096
:1014D0000008014000380140AE00002008B501219D
:1014E000082001F067FB4FF48070ADF80000102079
:1014F0008DF8030003208DF802006946694801F069
:10150000C3F84FF48071674801F069F908BD08B568
:101510000121042001F04EFB4FF49870ADF800005B
:1015200028208DF8030001208DF8020069465E48EE
:1015300001F0AAF80121082001F03CFB44F2402010
:10154000ADF8000028208DF8030001208DF802007E
:101550006946544801F098F808BD08B501210820F3
:1015600001F028FB8020ADF8000010208DF803006A
:1015700003208DF8020069464C4801F085F80121EE
:10158000082001F017FB1020ADF8000028208DF88E
:10159000030001208DF802006946424801F074F80A
:1015A00008BD08B540F60440ADF8000010208DF8E5
:1015B000030003208DF8020069463A4801F064F800
:1015C0004FF40040ADF8000010208DF80300032018
:1015D0008DF802006946344801F056F82320ADF832
:1015E000000010208DF8030003208DF802006946EA
:1015F0002C4801F049F848F2C000ADF80000102076
:101600008DF8030003208DF802006946264801F09A
:101610003BF84FF46040ADF8000010208DF8030057
:1016200003208DF802006946204801F02DF80121C1
:10163000042001F0BFFA0121082001F0BBFA0121CA
:10164000102001F0B7FA40F60441164801F0C7F83F
:101650004FF40041144801F0C2F808BD08B5042059
:10166000ADF8000010208DF8030003208DF8020073
:1016700069460C4801F008F808BD08B54FF4604011
:10168000ADF8000010208DF8030003208DF8020053
:101690006946064800F0F8FF0121102001F08AFA9F
:1016A00008BD0000000C014000080140001001408E
:1016B00010B50121042001F07DFA0121082001F07C
:1016C00079FA0121102001F075FA0121084601F094
:1016D0007EFA0121022001F07AFA0121084601F088
:1016E00069FA10BD08B50F20ADF8000018208DF87C
:1016F000030003208DF802006946C74800F0C4FFCC
:1017000008BD00B587B06320ADF814002320ADF804
:1017100010000020ADF81600ADF8120004A94FF03B
:10172000804001F0D2FC6020ADF800000120ADF84F
:1017300002000020ADF8080069464FF0804001F03B
:10174000DDFC0821C80602F077F869464FF08040BA
:1017500001F00BFD0821C80602F077F869464FF04A
:10176000804001F04CFD0821C80602F07BF8694674
:101770004FF0804001F08BFD0821C80602F07BF895
:101780000121880701F027FF07B000BD10B5002137
:101790004FF0804002F0CEF900214FF0804002F07F
:1017A000CBF900214FF0804002F0C8F900214FF042
:1017B000804002F0C5F910BD2DE9F04106460F4604
:1017C00014461D46012C04D13946304602F0B2F9C8
:1017D00013E0022C04D13946304602F0ADF90CE09A
:1017E000032C04D13946304602F0A8F905E0042C58
:1017F00003D13946304602F0A3F9012D07D140212B
:10180000854800F0EEFF8021834800F0EAFF022DBA
:1018100007D14021804800F0E2FF80217E4800F09F
:10182000E0FF032D07D140217B4800F0DAFF802143
:10183000794800F0D4FF042D07D14021764800F00C
:10184000CEFF8021744800F0CAFFBDE8F0812DE989
:10185000F04106460F4614461D46012C04D1394678
:10186000304602F067F913E0022C04D139463046C5
:1018700002F062F90CE0032C04D13946304602F044
:101880005DF905E0042C03D13946304602F058F9E1
:10189000012D07D10121614800F0A3FF02215F481B
:1018A00000F09FFF022D07D101215C4800F097FF57
:1018B00002215A4800F095FF032D07D10121574816
:1018C00000F08FFF0221554800F089FF042D07D159
:1018D0000121524800F083FF0221504800F07FFFB1
:1018E000BDE8F0812DE9F04106460F4614461D463D
:1018F000012C04D13946304602F01CF913E0022CC9
:1019000004D13946304602F017F90CE0032C04D11B
:101910003946304602F012F905E0042C03D139466D
:10192000304602F00DF9012D07D120213B4800F08F
:1019300058FF69033A4800F054FF022D07D12021D7
:10194000364800F04CFF2903354800F04AFF032DCC
:1019500008D12021314800F044FF4FF400513048B5
:1019600000F03DFF042D07D120212C4800F037FF67
:10197000E9022B4800F033FFBDE8F0812DE9F0418A
:1019800006460F4614461D46012C04D13946304602
:1019900002F0D0F813E0022C04D13946304602F0B0
:1019A000CBF80CE0032C04D13946304602F0C6F8DF
:1019B00005E0042C03D13946304602F0C1F8012D70
:1019C00007D1A903164800F00CFFE903144800F002
:1019D00008FF022D07D16903114800F000FFA90399
:1019E0000F4800F0FEFE032D09D14FF480410C4852
:1019F00000F0F7FE4FF40041094800F0F0FE042D1E
:101A000007D12903064800F0EAFE6903044800F004
:101A1000E6FEBDE8F081000000080140000C014036
:101A200000100140002103E000BF00BF00BF491CBF
:101A30008142F9D37047014600BFFE48008810F08C
:101A4000020FFAD0FB48001D018000BFF948008852
:101A500010F0010FFAD0F748001D0088C0B270479F
:101A600070B50546002405E0601CC4B2C82C01DD39
:101A7000002070BD0221EF48083802F05AFA002811
:101A8000F2D02946EB48083802F000FA002405E0BD
:101A9000601CC4B2C82C01DD0020EAE70121E54842
:101AA000083802F046FA0028F2D0E248083802F07E
:101AB000EFF9C0B2DDE710B50446DE48083800880B
:101AC0004FF6C7710840DB4908390880084600888E
:101AD000204308800121D748083802F0A6F910BD3C
:101AE00000B587B001210C2001F064F801218803C2
:101AF00001F06DF84FF46040ADF8180018208DF833
:101B00001B0003208DF81A0006A9CB4800F0BCFD8D
:101B10004FF48050ADF8180010208DF81B00032002
:101B20008DF81A0006A9C44800F0AEFD4FF4C0506D
:101B3000ADF8180010208DF81B0003208DF81A0056
:101B400006A9BE4800F0A0FD4FF4C051BB4800F00C
:101B500048FE4FF47041B84800F041FE0020ADF857
:101B600004004FF48270ADF806000020ADF80800C4
:101B7000ADF80A00ADF80C004FF40070ADF80E009F
:101B80003820ADF810000020ADF812000720ADF8A5
:101B9000140001A9A748083802F0AAF80121A548B5
:101BA000083802F042F9FF20FFF75AFF07B000BDE6
:101BB00010B502460B46A1481430006840F400609E
:101BC0009E49143108607E2000EA42042046FFF757
:101BD00032FF1846FFF72FFF98481030006840F496
:101BE000006096491031086010BD10B5024600240F
:101BF00092481430006840F4006090491431086045
:101C00007E2000EA420040F080031846FFF713FFF1
:101C10000020FFF710FF044688481030006840F4A9
:101C20000060864910310860204610BD70B5054639
:101C30000C4600262846FFF7D8FF064646EA040170
:101C40002846FFF7B5FF70BD10B51420FFF7CDFF94
:101C5000044614F0030F03D103211420FFF7E6FF1D
:101C600010BD70B505460C4600262846FFF7BDFF9F
:101C7000064626EA04012846FFF79AFF70BD10B514
:101C80000446412C26D108210846FFF7EAFF3D21F2
:101C90001120FFF78DFF86211720FFF789FF7F2195
:101CA0002620FFF785FF1E212D20FFF781FF002151
:101CB0002C20FFF77DFF8D212A20FFF779FF3E21A1
:101CC0002B20FFF775FF41F28830FFF7ABFEFFF7DF
:101CD000BBFF01E0012010BD0020FCE700B503219F
:101CE0001420FFF7BEFF00BD00B554481030006857
:101CF00040F480505149103108600220FFF792FEF5
:101D00004E481430006840F480504C49143108604B
:101D10004FF4FA60FFF786FE48481030006840F440
:101D200080504649103108604FF4FA60FFF77AFEA0
:101D30000F210120FFF73CFF4FF4FA60FFF772FE1E
:101D40003D211120FFF734FF1E212D20FFF730FF2A
:101D500000212C20FFF72CFF8D212A20FFF728FFE0
:101D60003E212B20FFF724FF40211520FFF720FF05
:101D7000002000BD10B5FFF7B3FEFFF7B5FFFFF77A
:101D8000ADFF4FF4FA60FFF74DFEFFF75DFF412016
:101D9000FFF775FF10BD00B5FFF7A6FFFFF79EFF29
:101DA0004FF4FA60FFF73EFEFFF74EFF00BD2DE94E
:101DB000FE4F0646884691469A46DDF830B002202E
:101DC00002900020019000900C2E06D00E2E09D11A
:101DD000122001901020009005E077200190302023
:101DE000009000E000BF00BF019840F08001022099
:101DF000FFF7DEFE80210420FFF733FF00210120E2
:101E0000FFF7D6FE80210A20FFF710FF002506E02D
:101E100018F805100920FFF7CBFE681C85B24D4568
:101E2000F6DB31460120FFF7C3FE0C2E0AD18021DC
:101E30000D2005E008380040000C0140000801407A
:101E4000FFF7F4FE4FF4167500BF0420FFF7CDFE38
:101E50000446681E85B22DB114F0010F02D100981E
:101E60000442F2D080210D20FFF7FBFE002D37D079
:101E70000620FFF7BAFE10F01B0F2FD100200290B2
:101E80000198204010F0010F01D0012002900C2E8B
:101E900026D10A20FFF7A9FE04460C20FFF7A5FE75
:101EA00000F007072FB1601E07EBC0008BF80000A1
:101EB00003E0E006000E8BF8000004B90124122CA8
:101EC00000DD1224002506E00920FFF78EFE0AF847
:101ED0000500681C85B2A542F6DB01E002200290F5
:101EE00080210C20FFF7A2FE00210120FFF760FEF9
:101EF0000298BDE8FE8F70B587B005460C460821F4
:101F00000846FFF7AEFE07210D20FFF751FE032123
:101F10001420FFF78BFE8DF8045006A801AB0122B8
:101F200001A900900C20FFF742FF064656B99DF824
:101F30001800102806D19DF8040020709DF80500B7
:101F4000607000E00226304607B070BDF0B587B083
:101F50000546002708210846FFF783FE00210D20D3
:101F6000FFF726FE80210E20FFF77BFE93208DF8E1
:101F7000040020208DF8050006A801AB022201A96B
:101F800000900C20FFF713FF064686B9002407E0F7
:101F900001A8005D285501A8005D4740601CC4B23F
:101FA000042CF5DB01A8005DB84200D00226802198
:101FB0000E20FFF73BFE304607B0F0BD2DE9F041A3
:101FC00007468846154604210520FFF74AFE0021F2
:101FD0000120FFF7EDFD80210A20FFF727FE0024F6
:101FE00005E0395D0920FFF7E3FD601CC4B24445FC
:101FF000F7DB03210120FFF7DBFDFF2400BF0520F5
:10200000FFF7F3FD0646601EC4B214B116F0040FCC
:10201000F5D02220FFF7E9FD28702120FFF7E5FD2C
:102020006870BDE8F08170B587B0054693208DF8E3
:10203000040070208DF8050000208DF80A000024AF
:102040000BE0295D01AAA01C11549DF80A00295D2E
:1020500048408DF80A00601CC4B2042CF1DB0DF17D
:102060000B02072101A8FFF7A9FF08210846FFF787
:10207000F8FD06A801AB092201A900900C20FFF78A
:1020800096FE06462EB99DF81800182801D10026A4
:1020900000E00226304607B070BD2DE9F04387B05E
:1020A00006460F46904699468DF804608DF80570F7
:1020B000002406E018F8041001AAA01C1154601CAA
:1020C000C4B2062CF6DB002407E019F8041001AABC
:1020D00004F108001154601CC4B2062CF5DB06A8FC
:1020E00001AB0C2201A900900E20FFF760FE05460F
:1020F0002DB90820FFF779FD10F0080F00D1022557
:10210000284607B0BDE8F083F0B587B005460E4617
:1021100030208DF804008DF805500DF106020221E3
:1021200001A8FFF74BFF06A801AB042201A900900C
:102130000C20FFF73CFE07466FB99DF81800902869
:1021400009D1002404E001A8005D3055601CC4B230
:10215000102CF8DB00E00227384607B0F0BDF0B5E0
:1021600087B006460F46A0208DF804008DF8056064
:102170000DF10602022101A8FFF720FF06A801AB1E
:10218000042201A900900C20FFF711FE05464DB96D
:102190009DF81800042805D19DF8040000F00F00F8
:1021A0000A2800D0022515BB002404E0385D01A9EF
:1021B0000855601CC4B2102CF8DB05AA102101A838
:1021C000FFF7FCFE06A801AB122201A900900C202B
:1021D000FFF7EDFD05464DB99DF81800042805D11F
:1021E0009DF8040000F00F000A2800D002252846C0
:1021F00007B0F0BD10B587B050208DF80400002066
:102200008DF805000DF10602022101A8FFF7D6FEA8
:1022100006A801AB042201A900900C20FFF7C7FD1E
:102220000446204607B010BD2DE9F04187B00746AF
:102230000E4690468DF804708DF805600DF106028B
:10224000022101A8FFF7BAFE06A801AB042201A9EA
:1022500000900C20FFF7ABFD04464CB99DF8180028
:10226000042805D19DF8040000F00F000A2800D0D2
:102270000224E4B9002505E018F8050001A9485535
:10228000681CC5B2102DF7DB02AA042101A8FFF7D4
:1022900095FE0020069006A801AB062201A9009039
:1022A0000C20FFF784FD0446022C00D00024FCB96A
:1022B000B0208DF804008DF805600DF106020221B2
:1022C00001A8FFF77BFE06A801AB042201A900903C
:1022D0000C20FFF76CFD04464CB99DF8180004284B
:1022E00005D19DF8040000F00F000A2800D0022458
:1022F000204607B0BDE8F08170B587B005460E46B0
:10230000C2208DF804008DF805500DF1060202215F
:1023100001A8FFF753FE06A801AB042201A9009013
:102320000C20FFF744FD04464CB99DF81800042822
:1023300005D19DF8040000F00F000A2800D0022407
:10234000CCB900208DF804008DF805008DF806004A
:102350008DF8070002AA042101A8FFF72FFE06A8A6
:1023600001AB062201A900900C20FFF720FD0446D6
:10237000022C00D0002414B1022007B070BDB020A0
:102380008DF804008DF805600DF10602022101A808
:10239000FFF714FE06A801AB042201A900900C204F
:1023A000FFF705FD04464CB99DF81800042805D137
:1023B0009DF8040000F00F000A2800D002242046F7
:1023C000DBE7000030B50146B1F1807F01D3012089
:1023D00030BD21F07F40401E4FF0E0225061501789
:1023E0000F22002806DA1301224C00F00F052D1FE2
:1023F000635502E01301204C235400BF00204FF02E
:10240000E0229061072010611046006920F003006F
:1024100010610220DCE710B5184800681849B0FBCD
:10242000F1F42046FFF7CEFF022803D1C101154881
:1024300000F0D5F9114800681149B0FBF1F42046CD
:10244000FFF7C0FF012801D100BFFEE710BD01B5B5
:102450000D490098086000BF0B4800680028FBD1B8
:1024600008BD0948006820B107480068401E0649B9
:102470000860704718ED00E000E400E04441000807
:10248000A0860100000C0140B400002008B54FF404
:10249000E06001F093FB1D208DF8000000208DF816
:1024A000010003208DF8020001208DF8030068462A
:1024B00001F089FB08BD0EB50121022000F087FB69
:1024C0003A4800F097FD4FF47A70ADF804004720C9
:1024D000ADF800000020ADF802006946334800F076
:1024E000F4FD0121314801F051FB012211462F4832
:1024F00001F08CF801212D4801F06DF80021022037
:1025000000F065FB0EBD08B54FF4E06001F056FB2E
:102510001E208DF8000001208DF8010004208DF8A8
:10252000020001208DF80300684601F04CFB08BD55
:102530000EB50121042000F04AFB1D4800F05AFDB1
:102540001420ADF804002320ADF800000020ADF801
:1025500002006946164800F0B8FD0121144801F058
:1025600015FB01221146124801F050F801211048D4
:1025700001F031F80021042000F029FB00200D4972
:1025800008600121042000F022FB0121084801F02D
:1025900022F80020074908600121042000F017FB01
:1025A0000121034801F017F80EBD000000040040AF
:1025B000000800405C00002010B50446C549601AC0
:1025C0008C422FD009DCC448201810D0B0F5806FA1
:1025D00016D0B0F5006F4AD11BE0B0F5806F2AD05D
:1025E000B0F5006F30D0B0F5406F40D135E001213B
:1025F000042000F0F9FA0021042000F0F5FA37E099
:102600000121082000F0F0FA0021082000F0ECFA87
:102610002EE00121102000F0E7FA0021102000F048
:10262000E3FA25E00121202000F0DEFA002120203D
:1026300000F0DAFA1CE00121402000F0D5FA002178
:10264000402000F0D1FA13E00121802000F0CCFA04
:102650000021802000F0C8FA0AE00121080200F001
:10266000C3FA00214FF4807000F0BEFA00E000BF12
:1026700000BF10BD10B50121084600F0B5FA0021D9
:10268000012000F0B1FA10BD2DE9F041024600250D
:102690000026002000230024002791F803C00CF03E
:1026A0000F0591F803C01CF0100F03D091F802C081
:1026B0004CEA050591F800C0BCF1000F31D0146858
:1026C00000202BE04FF0010C0CFA00F3B1F800C031
:1026D0000CEA03069E4220D183004FF00F0C0CFA47
:1026E00003F7BC4305FA03FC4CEA040491F803C069
:1026F000BCF1280F06D14FF0010C0CFA00FCC2F817
:1027000014C00AE091F803C0BCF1480F05D14FF0A6
:10271000010C0CFA00FCC2F810C0401C0828D1D3F0
:102720001460B1F800C0BCF1FF0F34DD5468002024
:102730002EE000F1080C4FF0010808FA0CF3B1F894
:1027400000C00CEA03069E4221D183004FF00F0C1B
:102750000CFA03F7BC4305FA03FC4CEA040491F8B5
:1027600003C0BCF1280F05D100F1080C08FA0CF8E1
:10277000C2F8148091F803C0BCF1480F07D100F1F2
:10278000080C4FF0010808FA0CF8C2F81080401C41
:102790000828CED35460BDE8F0814FF6FF71018068
:1027A000022181700421C1707047024600209368A5
:1027B0000B4201D0012000E00020704701468868EC
:1027C00080B2704702460020D3680B4201D001203E
:1027D00000E0002070470146C86880B27047016180
:1027E0007047416170470AB1016100E04161704783
:1027F000C16070474FF480320A4382618161826117
:1028000082698269704702460020344B18684FF68F
:102810008073184040EA02100843304B186070473C
:102820002F49C8617047F0B50A46002300240021F3
:1028300000252A4E7168C0F3034583B200F44016A8
:10284000B6F5401F08D121F07061244E766826F05D
:102850007066224F7E6012E000F48016B6F5801F8D
:1028600006D1032606FA05F4A14341F0706106E0A3
:10287000460D360103FA06F6B14341F0706122B10C
:10288000460D360103FA06F63143144E7160F0BD71
:1028900030B500228B071C0F0F2303FA04F20F4BF5
:1028A00008338C1053F8243093430C4C08348D10AB
:1028B00044F8253023468C1053F824308C07240F1D
:1028C00000FA04F42343054C08348D1044F82530F5
:1028D00030BD00000014014000F8FEBF00000140C0
:1028E00000002042DC48006840F00100DA4908603E
:1028F00008464068D9490840D749486008460068FA
:10290000D7490840D44908600846006820F4802070
:1029100008600846406820F4FE0048600020886097
:102920007047CD49096821F48031CB4A11601146C6
:10293000096821F480211160B0F5803F03D0B0F523
:10294000802F0ED106E0C449096841F48031C24AA3
:10295000116007E0C049096841F4A021BE4A116036
:1029600000E000BF00BF704710B501460022002301
:1029700000204A11012A02D1B74C236806E0022A3E
:1029800002D1B54C236A01E0B34C636A01F01F0227
:10299000012494401C4201D0012000E0002010BD21
:1029A00038B5002000900024002500BF3120FFF73B
:1029B000DBFF05460098401C00901DB90098B0F55B
:1029C000A06FF3D13120FFF7CFFF08B1012400E061
:1029D0000024204638BD014600209F4A106820F0A0
:1029E000F80040EAC100106070479E4908607047D7
:1029F00002460020984B586820F47C1042EA0103FC
:102A00001843954B586070479649086670470146D1
:102A10000020914A506820F003000843506070473E
:102A20008D48406800F00C007047014600208A4A3B
:102A3000506820F0F00008435060704701460020C5
:102A4000854A506820F4E0600843506070470146B2
:102A50000020814A506820F4605040EAC100506074
:102A6000704729B17C4A527A02437B4B5A7204E088
:102A7000794A527A8243784B5A7270477A49086091
:102A8000704701460020744A506820F440400843D3
:102A9000506070470021754A11706F4A82F820100B
:102AA000012802D0042808D103E001216F4A1170E7
:102AB00004E005216D4A117000E000BF00BF7047BF
:102AC0006B49086070476449096A0143624A1162B0
:102AD0007047674944390860704730B500210022CB
:102AE000002400235C4D6D6805F00C0121B1042920
:102AF00005D0082923D105E05E4D056022E05D4D3B
:102B000005601FE0544D6D6805F47012022505EB59
:102B10009242514D6D6805F480341CB9564D5543B1
:102B200005600BE04C4D6D6815F4003F03D0524D2D
:102B30005543056002E04F4D5543056002E04D4DA1
:102B4000056000BF00BF444D6D6805F0F001090944
:102B50004A4D6B5C0568DD4045603F4D6D6805F48E
:102B6000E061090A454D6B5C4568DD4085603A4D82
:102B70006D6805F46051C90A404D6B5C4568DD40E5
:102B8000C560354D6D6805F44041890B3C4D6B5C6B
:102B9000C568B5FBF3F5056130BD29B12E4A526910
:102BA00002432D4B5A6104E02B4A526982432A4B5F
:102BB0005A61704729B1284A92690243264B9A61AB
:102BC00004E0254A92698243234B9A61704729B1F8
:102BD000214AD2690243204BDA6104E01E4AD269DD
:102BE00082431D4BDA61704729B11B4AD268024308
:102BF000194BDA6004E0184AD2688243164BDA6057
:102C0000704729B1144A12690243134B1A6104E058
:102C1000114A12698243104B1A61704714494039B6
:102C2000086070470F49C86470470B49C871704706
:102C30000948406A40F08070074948627047014681
:102C40000020054A92680A4201D0012000E00020DD
:102C50007047014988727047001002400000FFF879
:102C6000FFFFF6FE00004242D80042422010024020
:102C70008004424200127A0000093D00B8000020A2
:102C8000C800002010B50446D749601A8C422BD0EA
:102C900006DCD648201813D0B0F5806F38D119E083
:102CA000B0F5806F2AD0B0F56C4F31D10121880387
:102CB000FFF79AFF00214FF48040FFF795FF28E0CF
:102CC00001214804FFF79DFF00214FF40030FFF77A
:102CD00098FF1EE001218804FFF793FF00214FF4C5
:102CE0008020FFF78EFF14E00121C804FFF789FF61
:102CF00000214FF40020FFF784FF0AE001210805BE
:102D0000FFF77FFF00214FF48010FFF77AFF00E00C
:102D100000BF00BF10BD2DE9F04786B005460E4646
:102D20000024A24600BF00BF00272F462C8A4CF685
:102D3000FF700440F08804432C82AC894EF6F310F7
:102D40000440B08831890843718908430443AC8149
:102D5000AC8A4FF6FF400440B0890443AC8201A81E
:102D6000FFF7BBFEA248874202D1DDF810A001E0C8
:102D7000DDF80CA00AEBCA0000EB0A1031688900EC
:102D8000B0FBF1F86420B8FBF0F0040120096421E5
:102D900001FB1089322000EB0910B0FBF1F000F0CC
:102DA0000F0004432C8106B0BDE8F0874FF41651A4
:102DB000016000218180C18001810C2141810021BD
:102DC0008181704710B502460020108A4FF2FF0340
:102DD00018400B884C8823438C882343CC8823439A
:102DE0001843108210BD0021018041808180C18084
:102DF000704721B1828942F40052828104E08289C5
:102E00004DF6FF731A4082817047F0B503460024E7
:102E10000026002500201846C1F3421401F01F06C9
:102E2000012707FA06F5012C01D10C3004E0022C31
:102E300001D1103000E014301AB107682F43076049
:102E400002E00768AF430760F0BD1AB1838A0B4305
:102E5000838202E0838A8B4383827047028A4FF623
:102E6000F0731A400282028A0A4302827047828902
:102E70004FF2FF731A40828182890A438281704730
:102E800021B1828942F00202828104E082894FF6F8
:102E9000FD731A4082817047028A4FF6DF731A4031
:102EA0000282028A0A430282704721B1028A42F4F6
:102EB0008042028204E0028A4BF6FF731A400282CB
:102EC0007047C1F308028280704701468888C0F3CA
:102ED00008007047818941F0010181817047028BB0
:102EE000D2B20283028B42EA012202837047028B34
:102EF00002F47F420283028B0A430283704721B1AE
:102F0000828A42F02002828204E0828A4FF6DF73D6
:102F10001A408282704721B1828A42F01002828276
:102F200004E0828A4FF6EF731A408282704721B123
:102F3000828A42F00802828204E0828A4FF6F773A6
:102F40001A4082827047828A4FF6FB731A4082824F
:102F5000828A0A438282704721B1828A42F0020249
:102F6000828204E0828A4FF6FD731A4082827047A3
:102F70000246002013880B4201D0012000E000200F
:102F80007047CA430280704770B502460B46002462
:102F9000002100250020C3F3421503F01F01012684
:102FA00006FA01F1012D02D19689314006E0022D89
:102FB00002D1168A314001E0968A31401C12012666
:102FC00006FA04F41688344011B10CB1012000E077
:102FD000002070BD10B5002200230A120124944085
:102FE000A3B2DC43048010BD004C004000BCFFBF16
:102FF0000038014010B50446F749601A8C4245D0AC
:103000000CDCB4F1804F1DD0F448201823D0B0F56B
:10301000806F29D0B0F5006F54D12EE0B0F5806FED
:103020003DD0B0F58E3F03D0B0F5923F4AD13FE09E
:103030000121C802FFF7D8FD00214FF40060FFF71F
:10304000D3FD40E001210846FFF7DBFD0021012010
:10305000FFF7D7FD37E001210220FFF7D2FD002165
:103060000220FFF7CEFD2EE001210420FFF7C9FD6D
:1030700000210420FFF7C5FD25E001210820FFF70E
:10308000C0FD00210820FFF7BCFD1CE0012110203D
:10309000FFF7B7FD00211020FFF7B3FD13E001217A
:1030A0002020FFF7AEFD00212020FFF7AAFD0AE057
:1030B00001214803FFF798FD00214FF40050FFF76E
:1030C00093FD00E000BF00BF10BD028802F08F0238
:1030D0000280CA884B881A4303881A4302808A8870
:1030E00082850A880285BE4A904202D0BD4A90423B
:1030F00001D10A7A028601228282704770B50024CB
:1031000000220023058C4FF6FE7635400584028CA4
:103110008388048B4FF68F752C400D882C43751EC9
:103120002A400D892A434D882A43CD888586AC4D97
:10313000A84202D0AB4DA84213D14FF6F7752A40F2
:103140004D892A434FF6FB752A408D882A4347F65E
:10315000FF652B4047F6FF552B408D892B43CD89CA
:103160002B4383800483028470BD70B50024002249
:103170000023058C4FF6EF7635400584028C83885A
:10318000048B48F6FF752C400D884FF6FF7606EA53
:1031900005252C434FF6DF752A400D8906EA0515F3
:1031A0002A434D8806EA05152A43CD8805878C4DAC
:1031B000A84202D08B4DA8421DD14FF67F752A4000
:1031C0004D894FF6FF7606EA05152A434FF6BF757F
:1031D0002A408D8806EA05152A4347F6FF352B401D
:1031E00047F2FF752B408D8906EA85052B43CD8973
:1031F00006EA85052B4383800483028470BD70B585
:10320000002400220023058C4FF6FF66354005841C
:10321000028C8388848B4FF68F752C400D882C434D
:103220004FF6FF552A400D894FF6FF7606EA052531
:103230002A434D8806EA05252A43CD888587684DAF
:10324000A84202D0674DA8421DD14FF2FF752A4017
:103250004D894FF6FF7606EA05252A434FF6FF35DE
:103260002A408D8806EA05252A4346F6FF752B403D
:1032700045F6FF752B408D8906EA05152B43CD8950
:1032800006EA05152B4383808483028470BD70B5E4
:10329000002400220023058C4EF6FF76354005847D
:1032A000028C8388848B48F6FF752C400D884FF67E
:1032B000FF7606EA05252C434DF6FF752A400D8959
:1032C00006EA05352A434D8806EA05352A43CD88A6
:1032D000A0F84050424DA84202D0424DA84207D12A
:1032E000C3F30D038D894FF6FF7606EA85152B4350
:1032F00083808483028470BD828B4FF2FF331A4037
:103300008283828B4FF6FF7303EA01231A43828381
:103310007047F0B50C461546002100220026078CA8
:103320004EF6FF7C07EA0C070784818B028C4FF670
:10333000FF7707EA043640F6FF4739404FF6FF773C
:1033400007EA05274FF6FF7C0CEA033C47EA0C0727
:1033500039434DF6FF773A4046F480573A4381832C
:103360000284F0BD828B4FF6F3731A408283828B06
:103370000A4382837047F0B50C46154600210022AF
:103380000026078C4FF6FF6C07EA0C070784818B39
:10339000028C4FF6FF7707EA04264FF60C77394088
:1033A0004FF6FF7707EA03172F4339434FF6FF57CE
:1033B0003A4046F480773A4381830284F0BD028B21
:1033C0004FF2FF331A400283028B4FF6FF7303EA7A
:1033D00001231A43028370470010004000FCFFBF26
:1033E000002C014000340140F0B50C461546002188
:1033F00000220026078C4FF6EF7C07EA0C070784B3
:10340000018B028C4FF6FF7707EA041640F6FF4760
:1034100039404FF6FF7707EA033739434FF6FF7716
:1034200007EA052739434FF6DF773A4046F01007A1
:103430003A4301830284F0BD028B4FF6F3731A40C6
:103440000283028B0A4302837047F0B50C4615468F
:1034500000210022068C4FF6FE773E400684018B49
:10346000028C4FF60C7631407E1C06EA03162E4382
:1034700031437E1E324044F0010632430183028410
:10348000F0BD70B505460C46208850B92389A28846
:1034900061882846FFF7D9FFE1882846FFF7CCFF6F
:1034A00025E0208804280AD12389A288618828463B
:1034B000FFF79AFFE1882846FFF781FF17E0208891
:1034C00008280AD12389A28861882846FFF753FF7C
:1034D000E1882846FFF746FF09E02389A288618832
:1034E0002846FFF716FFE1882846FFF705FF70BD65
:1034F0002DE9F04105460C4600260127608808B9F1
:10350000022600E00026A088012801D1022700E061
:1035100001272088A0B92389A28861882846FFF75F
:1035200094FFE1882846FFF787FF23893A46314612
:103530002846FFF759FFE1882846FFF740FF13E0D0
:103540002389A28861882846FFF74EFFE188284634
:10355000FFF735FF23893A4631462846FFF775FFC6
:10356000E1882846FFF768FFBDE8F0810A884B88AC
:103570001A438B881A43CB881A430B891A434B8909
:103580001A438B891A43A0F8442070474FF6FF7105
:10359000818000210180C18041800172704700213B
:1035A000018041808180C180018141818181C1810F
:1035B0007047002101804180012181800021C1806C
:1035C000018170470021018041808180C18001819B
:1035D00041818181704721B1028842F0010202805D
:1035E00004E0028840F2FE331A400280704731B195
:1035F000B0F8442042F40042A0F8442005E0B0F8BE
:103600004420C2F30E02A0F8442070471AB1838907
:103610000B43838102E083898B43838170478182DE
:10362000704741EA0203A0F8483070471AB1838915
:103630000B43838102E083898B4383817047018937
:103640004FF6F8721140018170470A460021018946
:103650004FF68F73194011430181704730B504460E
:103660000D4629462046FFF7F0FF208940F007006D
:10367000208130BD2DE9F04104460D4616461F4617
:10368000602D06D13B46012231462046FFF7ACFEB5
:1036900005E03B46012231462046FFF7D6FE29468B
:1036A0002046FFF7D2FF208940F007002081BDE8C7
:1036B000F08170B50C4600210189C9B244EA0205C7
:1036C0004FF6FF7606EA032635432943018170BD94
:1036D0002DE9F04105460E4617469846002443461C
:1036E0003A4631462846FFF7E4FF2C894FF6F8703A
:1036F000044044F007044FF68F70044044F0700417
:103700002C81BDE8F081F0B504460D4616461F46F3
:103710003B46324629462046FFF7CBFF208940F43E
:1037200080402081F0BD0185828270470A460021D9
:10373000018840F28F331940114301807047F0B582
:103740000C4615461E460021002200230189028BEB
:10375000038C4FF6F877394021434FF6FC473A4047
:1037600040F201173A434FF6DD773B404FF6FF77C3
:1037700007EA06172F433B43018102830384F0BD10
:103780000A460021018B4FF68F73194011430183C4
:1037900070470A460021018B48F6FF7319404FF627
:1037A000FF7303EA02231943018370470A4600218D
:1037B000818B4FF68F7319401143818370470A46FE
:1037C0000021818B48F6FF7319404FF6FF7303EA1F
:1037D000022319438183704721B1028842F080029D
:1037E000028004E0028840F27F331A400280704772
:1037F00021B1828842F00402828004E082884FF680
:10380000FB731A408280704721B1828842F008021F
:10381000828004E082884FF6F7731A4082807047F6
:1038200021B1828842F00102828004E082884FF652
:10383000FE731A40828070470A460021018B4FF6C2
:10384000F77319401143018370470A460021018B29
:103850004FF2FF7319404FF6FF7303EA0223194337
:10386000018370470A460021818B4FF6F773194098
:103870001143818370470A460021818B4FF2FF7309
:1038800019404FF6FF7303EA0223194381837047FF
:103890000A460021018B4FF6FB7319401143018347
:1038A00070470A460021018B4FF6FF3319404FF64F
:1038B000FF7303EA02231943018370470A4600217C
:1038C000818B4FF6FB7319401143818370470A4681
:1038D0000021818B4FF6FF3319404FF6FF7303EA47
:1038E00002231943818370470A460021018B4FF65A
:1038F0007F7319401143018370470A460021018BF1
:10390000C1F30E014FF6FF7303EA0223194301834B
:1039100070470A460021818B4FF67F73194011438F
:10392000818370470A460021818BC1F30E014FF657
:10393000FF7303EA02231943818370470A4600217B
:10394000018C4FF6FD7319401143018470470A46FC
:103950000021018C4FF6F773194011430184704721
:103960000A460021018C4FF6DF7319404FF6FF73B2
:1039700003EA02131943018470470A460021018CAF
:103980004FF67F7319404FF6FF7303EA0213194392
:10399000018470470A460021018C4FF6FF531940FD
:1039A0004FF6FF7303EA02231943018470470A4666
:1039B0000021018C4FF2FF7319404FF6FF7303EAA9
:1039C00002231943018470470A460021018C4DF6F9
:1039D000FF7319404FF6FF7303EA02331943018462
:1039E000704710B5038C01248C40A3430384038CDF
:1039F00002FA01F4A4B22343038410BD10B5038C72
:103A000004248C40A3430384038C02FA01F4A4B27F
:103A10002343038410BD30B5038C01248C40A343A1
:103A2000038409B1082918D100F1180303EB6103DD
:103A30001B684FF68F74234000F1180404EB6104F7
:103A4000236000F1180303EB61031B68134300F1CB
:103A5000180404EB610423601FE00B1FC3F34E0442
:103A600000F118031B5948F6FF7423400C1FC4F3E0
:103A70004E0500F1180463510B1FC3F34E0400F10F
:103A800018031B594FF6FF7404EA022423430C1F4A
:103A9000C4F34E0500F11804635130BD21B1028812
:103AA00042F00202028004E0028840F2FD331A4034
:103AB0000280704721B1028842F00402028004E0D3
:103AC000028840F2FB331A400280704721B182889D
:103AD00042F08002828004E082884FF67F731A40B1
:103AE00082807047028840F2F7331A4002800288D1
:103AF0000A430280704782884FF68F731A40828093
:103B000082880A438280704702894FF6F8731A4010
:103B1000028102890A430281704702894FF67F734E
:103B20001A40028102890A430281704781847047EA
:103B3000818570478186704701877047818770470C
:103B4000A0F8401070470288D2B2028002880A436F
:103B5000028070470146888E70470146088F704783
:103B60000146888F70470146B1F840007047014612
:103B7000888C70470146088D704702460020138AE2
:103B80000B4201D0012000E000207047CA430282AE
:103B9000704730B50246002000230024158A05EA4C
:103BA0000103958905EA010413B10CB1012000E07D
:103BB000002030BDCA4302827047000031490143F2
:103BC000314A1160704770B5002100230F22C4787C
:103BD0000CB32D4C246804F4E064C4F5E064210ABD
:103BE000C1F10403CA40447804FA03F18478144014
:103BF00021430901254C0678A155047804F01F05DE
:103C00000124AC4005786D114FF0E02606EB8505E8
:103C1000C5F8004109E0047804F01F050124AC4018
:103C20001B4D0678761145F8264070BD194A0A40AA
:103C30000243154B1B1F1A60704739B1124A121DFF
:103C400012680243104B1B1D1A6006E00E4A121D3B
:103C5000126882430C4B1B1D1A607047042808D160
:103C60004FF0E021096941F004014FF0E0221161B9
:103C700007E04FF0E021096921F004014FF0E02254
:103C8000116170470000FA050CED00E000E400E06F
:103C900080E100E080FFFF1F10B50446BD482018FA
:103CA0000FD0B0F5806F16D0B0F5784F1DD101213F
:103CB0000803FEF799FF00214FF48050FEF794FFB0
:103CC00014E001218803FEF79CFF00214FF480409F
:103CD000FEF797FF0AE00121C803FEF792FF0021DB
:103CE0004FF40040FEF78DFF00E000BF00BF10BDA5
:103CF00010B50022028802F441520B884C882343FD
:103D00008C882343CC8823430C8923434C89234349
:103D10008C892343CC8923431A430280838B4FF23F
:103D2000FF74234083830B8A038210BD2DE9F04783
:103D300086B005460C464FF0000902274FF00008F8
:103D40004FF0010A0026A88B4FF240010840A883DB
:103D500002202884B5F81C902089022801D100BFD8
:103D600031E0A08810B94FF0010A01E04FF0020ADB
:103D700001A8FEF7B2FEE088B0F5007F0AD10198F5
:103D800000EB8000400021890902B0FBF1F0401DEA
:103D900086B20BE04FEA4A1021894843019901EBB2
:103DA00081014900B1FBF0F0401D86B20A20B6FB4C
:103DB000F0F606F00108A6EB0800C0F34F074FF637
:103DC000FF7000EA0828022F01DBFF2F02DD022727
:103DD0004FF0000847EA0800E1880843288420885B
:103DE00040F4006061880843A18808436189084362
:103DF00040EA0909A5F81C9006B0BDE8F08700214B
:103E0000018041808180C180018141818181C181A6
:103E10000721018270470021018041808180C1809B
:103E20000221018100214181704721B1028842F0C5
:103E30004002028004E002884FF6BF731A400280FD
:103E4000704721B1828B42F48062828304E0828BCE
:103E50004FF6FF331A408283704730B500240023A9
:103E60000C110125A540ABB21AB185881D43858090
:103E700002E085889D43858030BD1AB183880B435D
:103E8000838002E083888B43838070478181704701
:103E9000014688897047A1F57E42FF3A04D0028826
:103EA00042F48072028004E002884FF6FF631A40F9
:103EB0000280704721B1828842F00402828004E0CF
:103EC00082884FF6FB731A408280704702884FF257
:103ED000FF731A40028002880A43028070470188FB
:103EE00041F480510180704721B1028842F40052B0
:103EF000028004E002884DF6FF731A40028070478A
:103F000002460020012901D0108B00E0908A704702
:103F10000146088A7047B1F5804F04D1028842F407
:103F20008042028004E002884BF6FF731A40028050
:103F300070470246002013890B4201D0012000E0A7
:103F400000207047CA4302817047F0B50246002046
:103F500000240023002501F00F070126BE40B4B263
:103F60000B1101269E40B3B2968806EA0305168916
:103F7000264202D00DB1012000E00020F0BD10B5B6
:103F8000002201F00F040123A3409AB2D34303811E
:103F900010BD000000C8FFBF0CB5002001900090CC
:103FA0004748006840F480304549086000BF4448F5
:103FB000006800F4003000900198401C01900098C7
:103FC00018B90198B0F5A06FF1D13D48006810F420
:103FD000003F02D00120009001E0002000900098F6
:103FE000012843D13748006840F010003549086087
:103FF0000846006820F0030008600846006840F0AA
:10400000020008602E4840682D4948600846406814
:1040100048600846406840F4806048600846406850
:1040200020F47C1048600846406840F4E81048607E
:104030000846006840F08070086000BF20480068B3
:1040400010F0007FFAD01E48406820F003001C49A1
:1040500048600846406840F00200486000BF1848C9
:10406000406800F00C000828F9D101E000BFFEE72D
:104070000CBD10B5FFF790FF10BD10B510480068DB
:1040800040F001000E490860084640680E490840AB
:104090000B494860084600680C4908400849086018
:1040A0000846006820F4802008600846406820F434
:1040B000FE00486000208860FFF7DBFF10BD0000B5
:1040C00000100240002002400000FFF8FFFFF6FE53
:1040D000064C074D06E0E06840F0010394E8070055
:1040E00098471034AC42F6D3FCF726F85841000844
:1040F00078410008014A024900F013B8631400082F
:10410000CC00002002E008C8121F08C1002AFAD122
:1041100070477047002001E001C1121F002AFBD147
:1041200070472DE9F04116460F460446002503E08E
:104130003946B0476D1C641C20780028F8D1284609
:10414000BDE8F08100A24A0400A24A0400A24A0489
:104150000051250200A24A04784100080000002016
:10416000D00000000441000848420008D0000020B0
:10417000A802000014410008000000000000FF0732
:104180008029FFFFFFFFFF0ABB5B000000B5FFFFB8
:10419000FFFFFFFF41542B43495053544152543DBC
:1041A00022544350222C2231302E302E312E3422F4
:1041B0002C38300D0A41542B4349504D4F44453D56
:1041C000310D0A41542B43495053454E440D0A00CA
:1041D00000000000000000000000000000000000DF
:1041E00000000000000000000000000000000000CF
:1041F000000000000000000000000000A086010098
:10420000F0490200400D0300A086010000000000FC
:10421000000000000000500000000000000000004E
:10422000000000000000000000000000000000008E
:10423000000000000102030401020304060708094C
:08424000020406080000000062
:0400000508000147A7
:00000001FF
