:020000040800F2
:100000000004002047010008450F0008470F0008C2
:100010004B0F00084F0F0008530F000800000000AE
:10002000000000000000000000000000570F000862
:10003000590F0008000000005B0F00085D0F00086A
:1000400067010008670100086701000867010008F0
:1000500067010008670100086701000867010008E0
:1000600067010008670100086701000867010008D0
:1000700067010008670100086701000867010008C0
:1000800067010008670100086701000867010008B0
:1000900067010008670100086701000867010008A0
:1000A0006701000867010008670100086701000890
:1000B00067010008331200086701000867010008A3
:1000C0006701000867010008670100086701000870
:1000D00067010008E90F00086701000867010008D0
:1000E0006701000867010008670100086701000850
:1000F0006701000867010008670100086701000840
:10010000670100086701000867010008670100082F
:10011000670100086701000867010008670100081F
:10012000670100086701000867010008670100080F
:10013000DFF80CD003F0D0FE004800472D0A00087D
:1001400068030020704708488047084981F3088801
:1001500007480047FEE7FEE7FEE7FEE7FEE7FEE7AB
:10016000FEE7FEE7FEE7FEE7450100086803002022
:1001700031010008002107E0002200E0521C42F695
:10018000E0639A42FAD3491C8142F5D3704710B517
:100190000121042002F012FC0121084602F00EFCAD
:1001A000FE48406840F40050FC49486008464068FA
:1001B00020F48040486010BD10B50121042002F0F9
:1001C000FDFB0121082002F0F9FB0121084602F0A5
:1001D000F5FB0121F24802F02AFA10BD10B50446E1
:1001E0002146F04802F071FD00BFEE48008810F093
:1001F000800FFAD010BD2DE9F04108260827F01E27
:1002000006287DD2DFE800F01018232C8303E6498E
:10021000522001F0CAFD04462CB903260224E3480B
:1002200001F0EEFD044600BF2CB904260224DF488D
:1002300001F053FE044600BF44B905260224DB4BFF
:10024000DB4A0921602001F082FE044600BF34B978
:1002500006260224D749384601F0B0FE044600BF06
:10026000002C53D1D348C57BBB20FFF7B7FF5B20E1
:10027000FFF7B4FF2846FFF7B1FF0020FFF7AEFFFE
:10028000B620FFF7ABFFB520FFF7A8FFBB21C5489D
:1002900002F01BFD00BFC348008810F0800FFAD0A9
:1002A0005B21C04802F011FD00BFBE48008810F07D
:1002B000800FFAD02946BB4802F007FD00BFB948BD
:1002C000008810F0800FFAD00021B64802F0FDFC43
:1002D00000BFB448008810F0800FFAD0B621B148B2
:1002E00002F0F3FC00BFAF48008810F0800FFAD096
:1002F000B521AC4802F0E9FC00BFAA48008800E044
:1003000007E010F0800FF8D00726022400BF08266F
:1003100000BF08262846BDE8F08110B50446012C30
:100320000FD18102A44802F060F90421A24802F032
:100330005CF9E102A04802F056F9E1039F4802F09F
:1003400052F9022C0FD1A1029B4802F04EF9A103F1
:100350009A4802F04AF96102974802F044F90421F0
:10036000954802F040F994B94FF48061924802F048
:100370003AF94FF40061904802F035F94FF400412A
:100380008E4802F030F904218B4802F02CF910BDA0
:100390008B4908604FF0E021096941F003014FF0FB
:1003A000E0221161704710B502241021834802F049
:1003B00000F9844908702021804802F0FAF8824947
:1003C0000870E1017D4802F0F4F8804908702102CC
:1003D000794802F0EEF87E4908704021764802F034
:1003E000E8F87C4908708021734802F0E2F87A4905
:1003F00008701021704802F0DCF8784908707148E4
:100400000078C0B970480078A8B97048007890B9F1
:100410006F48007878B96F48007860B97048007804
:1004200030B97048007818B96F480078012802D1B7
:100430003C206E4908806348007860B162480078CB
:1004400048B16248007830B16148007818B161481D
:10045000007800B101245B48007860B15A48007808
:1004600048B15A48007830B95948007818B159480D
:10047000007800B102245348007860B152480078F7
:1004800048B95248007830B95148007818B95148F5
:10049000007800B102244B48007860B14A480078E7
:1004A00048B94A48007830B94948007818B14948F5
:1004B000007800B102244348007860B942480078CF
:1004C00048B94248007830B14148007818B14148F5
:1004D000007800B104243B48007860B13A480078C5
:1004E00048B93A48007830B13948007818B13948ED
:1004F000007800B104243348007860B932480078AD
:1005000048B13248007830B13148007818B13148EC
:10051000007800B105242B48007860B92A4800789B
:1005200048B92A48007830B92948007818B12948D4
:10053000007800B105242348007860B12248007893
:1005400048B12248007830B92148007818B92148CC
:10055000007800B102241B48007860B11A48007886
:1005600048B11A48007830B11948007818B91948CC
:10057000007800B907241348007860B11248007869
:1005800048B11248007830B11148007818B91148C4
:10059000007800B107240B48007829E000000140F2
:1005A0000002300000380140C00000209000002010
:1005B00016000020D4000020000C0140000801407B
:1005C0008400002094000020950000209600002068
:1005D0009700002098000020990000209A00002039
:1005E000690000206A0000206B0000208E000020BF
:1005F00060B1FE48007848B1FD48007830B1FD4850
:10060000007818B1FC48007800B90824FB4800784D
:1006100060B1F648007848B1F548007830B9F5483F
:10062000007818B9F448007800B90824F448007834
:1006300000B10924F348007800B10A24204610BD17
:1006400010B5F148007818B1FFF7ADFE044601E09F
:10065000ED480478EC48007800B1BCB901231A4693
:100660000021980701F002F801230222002150071F
:1006700001F047F8012303220021980701F08CF8CC
:10068000012304220021100701F0D2F8DE4800788F
:10069000E8B1012C1BD103230122DC48018890071B
:1006A00000F0E4FF03230222D8480188500701F03C
:1006B00028F803231A46D5480188A00701F06CF8F2
:1006C00003230422D1480188100701F0B1F8CE4875
:1006D0000078E8B1022C1BD102230122CB4801880B
:1006E000900700F0C3FF02231A46C8480188580744
:1006F00001F007F802230322C4480188580701F0DB
:100700004BF802230422C1480188100701F090F839
:10071000BD480078C8B1032C17D102230122502113
:10072000880600F0A3FF032302225021880600F070
:10073000E8FF022303225021880601F02DF803234D
:1007400004225021880601F073F8AF480078C8B140
:10075000042C17D1022301225021880600F086FFC5
:10076000032302225021880600F0CBFF022303223C
:100770005021880601F010F8032304225021880636
:1007800001F056F8A0480078C8B1052C17D1022313
:1007900001225021880600F069FF03230222502124
:1007A000880600F0AEFF022303225021880600F0E5
:1007B000F3FF032304225021880601F039F8924800
:1007C0000078C8B1062C17D10323012250218806D6
:1007D00000F04CFF02231A465021880600F091FFDA
:1007E00003231A465021880600F0D6FF0223042274
:1007F0005021880601F01CF883480078C8B1072C06
:1008000017D1032301225021880600F02FFF022375
:100810001A465021880600F074FF03231A4650211F
:10082000880600F0B9FF022304225021880600F058
:10083000FFFF75480078C8B1082C17D103230122A7
:100840005021880600F012FF02231A465021880624
:1008500000F057FF03231A465021880600F09CFF42
:10086000022304225021880600F0E2FF6648007847
:10087000C8B1092C17D1042301220021900700F0F0
:10088000F5FE042302220021500700F03AFF042362
:1008900003220021180700F07FFF04231A460021DD
:1008A000180700F0C5FF58480078C8B10A2C17D1C6
:1008B000042301220021900700F0D8FE0423022225
:1008C0000021500700F01DFF042303220021180718
:1008D00000F062FF04231A460021180700F0A8FF69
:1008E00010BD10B54A480078B8B900240CE049485A
:1008F000015D494802F0E9F900BF4748008810F05F
:10090000800FFAD0601CC4B2222CF0DB01204049D9
:1009100008704FF47A70FFF72DFC3D4800780228EC
:1009200017D100240CE03D48015D3B4802F0CDF9B1
:1009300000BF3948008810F0800FFAD0601CC4B2A4
:100940000E2CF0DB0320324908704FF47A70FFF769
:1009500011FC2F480078042817D100240CE03048FF
:10096000015D2D4802F0B1F900BF2B48008810F05E
:10097000800FFAD0601CC4B20C2CF0DB0520244997
:1009800008704FF47A70FFF7F5FB214800780628CD
:1009900006D107201E4908704FF47A70FFF7EAFB72
:1009A0001B480078072820D1082019490870012029
:1009B0001C4908701C490870BB20FFF70FFC5B2026
:1009C000FFF70CFC0020FFF709FC0020FFF706FCF6
:1009D000B120FFF703FCB520FFF700FCDC20FFF798
:1009E000D7FC41F28830FFF7C5FB10BD9500002011
:1009F000960000209700002098000020940000201E
:100A00009A000020990000209D0000208E00002008
:100A1000660000201C000020003801403E0000203D
:100A20004C0000206500002067000020FFF7AFFBAE
:100A3000FFF7C2FB00F06CFD03F023FA00F056FC58
:100A400000F0CAFC00F0E1FC00F005FD00F08AFDBA
:100A500000F0A2FD00F0AFFD00F0F2FD00F067FD38
:100A600000F09CFC9620FE49086008460068C0F52E
:100A7000FA60FC4908600020FB49087001F025FC81
:100A80000020FFF74AFC012240F22551F74802F00E
:100A9000C0F801F055FC01F068FC01F0C5F8002039
:100AA000F3490870F349087041F28830FFF762FBA0
:100AB0000020F149C8734FF49670FFF769FCECE130
:100AC000EE48007808B9FFF70CFFC8E1FFF7B8FD62
:100AD000EB48007818B9EB48007800287DD0E6484C
:100AE000C07B10B9FFF787FB25E0E348C07B10B35C
:100AF000E148C07BE2490978884205D0DE48C07BE6
:100B0000E0490978884204D1DB48C07BD8490870A5
:100B100011E0D948C07BDA49097888420BD0D64821
:100B2000C07BD8490978884205D00020D249C873D3
:100B30005020D5490880CE480078D14909788842AC
:100B40007ED1CF48007800287AD0CE48007800289F
:100B5000FAD05020CC49088001231A460021800693
:100B600000F084FD012302220021500700F0C9FD9E
:100B7000012303220021980700F00EFE0123042226
:100B80000021100700F054FE4FF4FA70FFF7F2FA5C
:100B90004FF49670FFF7FCFB4FF47A70FFF7EAFA18
:100BA00002230122B8480188900700F05FFD02236C
:100BB0001A46B5480188580700F0A3FD0223032216
:100BC000B1480188580700F0E7FD02230422AE482F
:100BD0000188100700F02CFE00E003E14FF496704E
:100BE000FFF7C8FA01231A460021980700F03EFDDE
:100BF000012302220021500700F083FD012303227C
:100C00000021980700F0C8FD0123042200211007ED
:100C100000F00EFE4FF4FA70FFF7ACFA0323012246
:100C200099480188900700F021FD0323022296488D
:100C30000188500700F065FD03231A46924800E042
:100C400054E001884FF0804000F0A6FD0323042209
:100C50008D480188100700F0EBFDC820FFF78AFAE5
:100C600001231A460021980700F000FD012302220B
:100C70000021500700F045FD0123032200219807C1
:100C800000F08AFD012304220021100700F0D0FDAE
:100C90004FF4FA70FFF76EFADC20FFF779FB0120C2
:100CA000FFF73BFB4FF4FA70FFF764FA0020FFF701
:100CB00034FB4FF42F70FFF75DFA00206E49C873C4
:100CC0006B4908706E490870BB20FFF787FA5B20FC
:100CD000FFF784FA0020FFF781FA0020FFF77EFA81
:100CE000B320FFF77BFAB520FFF778FA6048007869
:100CF00064490978884264D161480078002860D14D
:100D00006048007800285CD001231A46002198072B
:100D100000F0ACFC012302220021500700F0F1FC9E
:100D2000012303220021980700F036FD012304224D
:100D30000021100700F07CFD0220FFF7EEFA4FF4CF
:100D40007A60FFF717FA0020FFF7E7FA50204E49C4
:100D500008800223012208460188900700F086FCE3
:100D600002231A4648480188580700F0CAFC0223AB
:100D7000032245480188580700F00EFD0223042293
:100D800041480188100700F053FD00203A49C8731C
:100D9000374908703B490870012036490870BB206C
:100DA000FFF71CFA5B20FFF719FA0020FFF716FA8D
:100DB0000020FFF713FAB420FFF710FAB520FFF771
:100DC0000DFA2B4800782F49097888420AD12C481F
:100DD000007838B100202849C87325490870502090
:100DE0002949088023480078012838D12248C07B4F
:100DF00008B9FFF700FA2048C07BFF2822D1002065
:100E00001C4908702149087001231A4600219807DF
:100E100000F02CFC012302220021500700F071FC9D
:100E2000012303220021980700F0B6FC01230422CD
:100E30000021100700F0FCFC50201349088000201E
:100E40000D49C8730C48C07BFF2808D00A48C07BF6
:100E500028B100200849C87350200B49088017E0CA
:100E600084000020880000208C0000200038014011
:100E70009B0000206B000020D400002065000020B3
:100E8000690000206A0000208E0000209D000020E4
:100E90001A48007800287FF419AE11E610B51848FA
:100EA000007802280DD1C101164801F09EFB0120F7
:100EB000FFF733FA14A003F021F80020104908705E
:100EC0001AE00F480078032809D10220FFF725FA1D
:100ED00012A003F013F80020094908700CE008483C
:100EE0000078042808D10020FFF717FA10A003F0BB
:100EF00005F800200249087010BD000065000020C0
:100F000060000020000C01400A20456E636F6D7088
:100F1000617373323120200A000000000A20456E00
:100F2000636F6D70617373323220200A000000001D
:100F30000A20456E636F6D70617373323420200A2E
:100F400000000000704700BFFEE700BFFEE700BFE3
:100F5000FEE700BFFEE770477047704710B5CD4809
:100F60000068401CCB490860CB480068401CCA4957
:100F70000860CA48007880B908460068C84909680E
:100F800088420AD14FF48071C64801F02EFB002040
:100F9000C14908600120C1490870C0480078012893
:100FA00011D1BF480068C0F5FA60BB4909688842A2
:100FB00009D14FF48071BB4801F015FB0020B64900
:100FC0000860B6490870B3480068B74988420AD13A
:100FD0000020B04908604FF0E020006920F00300D5
:100FE0004FF0E021086110BD70B5B04800780028CE
:100FF0007DD12021AE4801F0BFFE012877D1AC4859
:1010000001F067FEC6B2AA4801F063FEA949AA4AE8
:10101000127888544F2E02D10120A8490870A748A1
:101020000078012804D1A4480078401CA249087027
:10103000A1480078022859DB9E4800784F2814D137
:101040009C4840784B2810D19D480078012807D053
:101050009B480078032803D099480078052804D1DC
:1010600097480078401C96490870924800784F28AD
:1010700014D1904840784E2810D19148007801282A
:1010800007D08F480078032803D08D4800780528C2
:1010900004D18B480078401C894908708548007845
:1010A0004F2814D183484078522810D184480078C2
:1010B000012807D082480078032803D080480078B0
:1010C000052804D17E480078401E7D490870002420
:1010D00005E00CE0002077490855601C84B2402CE4
:1010E000F8DB0020744908707449087000266F48C6
:1010F000007801287DD120216D4801F03DFE0128B6
:10110000F8D16B4801F0E5FDC5B2AA2D10D1002041
:101110006C4908600121022001F05DFC01216A4850
:1011200002F05DF9012069490870002068490870E3
:101130006648007801287AD166486749097845549D
:1011400065480078401C6449087008460078062805
:101150006DD100215C4802F042F90021022001F02B
:101160003AFC00205C490870012059490870594830
:101170000078AA2851D1574840785A284DD155486F
:101180000079A52849D153484079A52845D151482F
:10119000807870B94F48C07858B901204F4908701D
:1011A00000204F4908704F49087001204E490870CF
:1011B0001DE048488078FF280BD14648C078FF28BA
:1011C00007D1002045490870454908704549087015
:1011D0000DE040488078424908703E48C078414957
:1011E000087001203D49087000203F490870BB206D
:1011F00000E01DE0FEF7F2FF5B20FEF7EFFF354950
:101200008878FEF7EBFF3349C878FEF7E7FFB22096
:10121000FEF7E4FFB520FEF7E1FF002405E006E05D
:1012200000202C490855601C84B2052CF8DD0026EE
:1012300070BD10B50121244802F0AFFB40B101217F
:10124000214802F0BBFB1F480068401C1D49086094
:101250001C48006814281BD300211B4802F0BFF86B
:101260000021022001F0B7FB002016490860184851
:10127000007868B9002404E0002016490855601C75
:10128000C4B2052CF8DD002010490870124908701E
:1012900010BD0000A0000020700000208C00002085
:1012A00084000020000C0140E0930400670000204F
:1012B0000038014024010020630000206800002065
:1012C000660000205C000020000400406C0000204C
:1012D0006D000020E4000020620000209D0000203E
:1012E000690000206A0000206B00002000B585B076
:1012F000012144F2040001F061FB4FF40070ADF8ED
:10130000100018208DF8130003208DF8120004A996
:101310002E4801F0BDF84FF48060ADF810000420B5
:101320008DF8130004A9294801F0B2F84FF4E13018
:1013300000900020ADF80400ADF80600ADF80800FC
:10134000ADF80C000C20ADF80A006946204801F009
:10135000E6FB01211E4801F050FC05B000BD70B550
:1013600004460D46E1B21A4801F0AFFC00BF184830
:10137000008810F0800FFAD0204670BD10B52021F3
:10138000134801F0F9FC012806D1114801F0A1FC35
:1013900010490870012010BD0020FCE708B54FF48B
:1013A000E06002F00FFB00214FF0006002F042FB12
:1013B00025208DF8000000208DF8020001208DF816
:1013C0000300684602F003FB08BD0000000801406E
:1013D000003801409E00002008B50121082001F0DE
:1013E000EDFA4FF48070ADF8000010208DF8030086
:1013F00003208DF802006946574801F049F84FF480
:101400008071554801F0EFF808BD08B501210420AE
:1014100001F0D4FA4FF49870ADF8000028208DF850
:10142000030001208DF8020069464C4801F030F8B5
:101430000121082001F0C2FA44F2D020ADF80000EA
:1014400028208DF8030001208DF8020069464248EB
:1014500001F01EF808BD08B540F60440ADF80000E4
:1014600010208DF8030003208DF8020069463A48E9
:1014700001F00EF84FF40040ADF8000010208DF898
:10148000030003208DF802006946344801F000F89B
:101490002320ADF8000010208DF8030003208DF804
:1014A000020069462C4800F0F3FF48F2C000ADF896
:1014B000000010208DF8030003208DF8020069461B
:1014C000264800F0E5FF4FF46040ADF80000102022
:1014D0008DF8030003208DF802006946204800F0D3
:1014E000D7FF0121042001F069FA0121082001F051
:1014F00065FA0121102001F061FA40F60441164816
:1015000001F071F84FF40041144801F06CF808BD87
:1015100008B50420ADF8000010208DF8030003206A
:101520008DF8020069460C4800F0B2FF08BD08B50E
:101530004FF46040ADF8000010208DF80300032048
:101540008DF802006946064800F0A2FF0121102034
:1015500001F034FA08BD0000000C01400008014011
:101560000010014010B50121042001F027FA0121EB
:10157000082001F023FA0121102001F01FFA0121B7
:10158000084601F028FA0121022001F024FA012185
:10159000084601F013FA10BD08B50F20ADF80000A1
:1015A00018208DF8030003208DF802006946C74813
:1015B00000F06EFF08BD00B587B06320ADF81400E1
:1015C0002320ADF810000020ADF81600ADF8120091
:1015D00004A94FF0804001F07CFC6020ADF80000D1
:1015E0000120ADF802000020ADF8080069464FF078
:1015F000804001F087FC0821C80602F021F8694606
:101600004FF0804001F0B5FC0821C80602F021F837
:1016100069464FF0804001F0F6FC0821C80602F050
:1016200025F869464FF0804001F035FD0821C806D5
:1016300002F025F80121880701F0D1FE07B000BDB6
:1016400010B500214FF0804002F078F900214FF0F2
:10165000804002F075F900214FF0804002F072F9ED
:1016600000214FF0804002F06FF910BD2DE9F041EC
:1016700006460F4614461D46012C04D13946304615
:1016800002F05CF913E0022C04D13946304602F036
:1016900057F90CE0032C04D13946304602F052F9D8
:1016A00005E0042C03D13946304602F04DF9012DF6
:1016B00007D14021854800F098FF8021834800F041
:1016C00094FF022D07D14021804800F08CFF80213B
:1016D0007E4800F08AFF032D07D140217B4800F0AF
:1016E00084FF8021794800F07EFF042D07D140213E
:1016F000764800F078FF8021744800F074FFBDE860
:10170000F0812DE9F04106460F4614461D46012C96
:1017100004D13946304602F011F913E0022C04D10D
:101720003946304602F00CF90CE0032C04D139465E
:10173000304602F007F905E0042C03D13946304663
:1017400002F002F9012D07D10121614800F04DFF9F
:1017500002215F4800F049FF022D07D101215C48BA
:1017600000F041FF02215A4800F03FFF032D07D14E
:101770000121574800F039FF0221554800F033FF9E
:10178000042D07D10121524800F02DFF02215048BD
:1017900000F029FFBDE8F0812DE9F04106460F4633
:1017A00014461D46012C04D13946304602F0C6F8D5
:1017B00013E0022C04D13946304602F0C1F80CE0A7
:1017C000032C04D13946304602F0BCF805E0042C65
:1017D00003D13946304602F0B7F8012D07D1202158
:1017E0003B4800F002FF69033A4800F0FEFE022D7C
:1017F00007D12021364800F0F6FE2903354800F0D5
:10180000F4FE032D08D12021314800F0EEFE4FF404
:101810000051304800F0E7FE042D07D120212C486C
:1018200000F0E1FEE9022B4800F0DDFEBDE8F081AA
:101830002DE9F04106460F4614461D46012C04D101
:101840003946304602F07AF813E0022C04D13946CA
:10185000304602F075F80CE0032C04D139463046CE
:1018600002F070F805E0042C03D13946304602F04E
:101870006BF8012D07D1A903164800F0B6FEE90365
:10188000144800F0B2FE022D07D16903114800F0A0
:10189000AAFEA9030F4800F0A8FE032D09D14FF4BA
:1018A00080410C4800F0A1FE4FF40041094800F0CF
:1018B0009AFE042D07D12903064800F094FE69031F
:1018C000044800F090FEBDE8F081000000080140EF
:1018D000000C014000100140002103E000BF00BFE8
:1018E00000BF491C8142F9D37047014600BFFE4842
:1018F000008810F0020FFAD0FB48001D018000BFE5
:10190000F948008810F0010FFAD0F748001D008850
:10191000C0B2704770B50546002405E0601CC4B233
:10192000C82C01DD002070BD0221EF48083802F00C
:1019300004FA0028F2D02946EB48083802F0AAF948
:10194000002405E0601CC4B2C82C01DD0020EAE7D9
:101950000121E548083802F0F0F90028F2D0E24809
:10196000083802F099F9C0B2DDE710B50446DE4848
:10197000083800884FF6C7710840DB4908390880ED
:1019800008460088204308800121D748083802F023
:1019900050F910BD00B587B001210C2001F00EF800
:1019A0000121880301F017F84FF46040ADF81800EA
:1019B00018208DF81B0003208DF81A0006A9CB48CB
:1019C00000F066FD4FF48050ADF8180010208DF83F
:1019D0001B0003208DF81A0006A9C44800F058FD2A
:1019E0004FF4C050ADF8180010208DF81B000320F4
:1019F0008DF81A0006A9BE4800F04AFD4FF4C05108
:101A0000BB4800F0F2FD4FF47041B84800F0EBFD28
:101A10000020ADF804004FF48270ADF806000020FD
:101A2000ADF80800ADF80A00ADF80C004FF40070F6
:101A3000ADF80E003820ADF810000020ADF812000F
:101A40000720ADF8140001A9A748083802F054F89F
:101A50000121A548083802F0ECF8FF20FFF75AFFF3
:101A600007B000BD10B502460B46A148143000680F
:101A700040F400609E49143108607E2000EA420470
:101A80002046FFF732FF1846FFF72FFF9848103027
:101A9000006840F4006096491031086010BD10B530
:101AA0000246002492481430006840F400609049D7
:101AB000143108607E2000EA420040F0800318469E
:101AC000FFF713FF0020FFF710FF0446884810308F
:101AD000006840F40060864910310860204610BD5F
:101AE00070B505460C4600262846FFF7D8FF064687
:101AF00046EA04012846FFF7B5FF70BD10B5142073
:101B0000FFF7CDFF044614F0030F03D10321142087
:101B1000FFF7E6FF10BD70B505460C4600262846C7
:101B2000FFF7BDFF064626EA04012846FFF79AFFA5
:101B300070BD10B50446412C26D108210846FFF798
:101B4000EAFF3D211120FFF78DFF86211720FFF7C7
:101B500089FF7F212620FFF785FF1E212D20FFF71B
:101B600081FF00212C20FFF77DFF8D212A20FFF728
:101B700079FF3E212B20FFF775FF41F28830FFF7F8
:101B8000ABFEFFF7BBFF01E0012010BD0020FCE72A
:101B900000B503211420FFF7BEFF00BD00B5544877
:101BA0001030006840F48050514910310860022024
:101BB000FFF792FE4E481430006840F480504C49C4
:101BC000143108604FF4FA60FFF786FE4848103081
:101BD000006840F480504649103108604FF4FA60C4
:101BE000FFF77AFE0F210120FFF73CFF4FF4FA6068
:101BF000FFF772FE3D211120FFF734FF1E212D203B
:101C0000FFF730FF00212C20FFF72CFF8D212A2029
:101C1000FFF728FF3E212B20FFF724FF402115204E
:101C2000FFF720FF002000BD10B5FFF7B3FEFFF760
:101C3000B5FFFFF7ADFF4FF4FA60FFF74DFEFFF77A
:101C40005DFF4120FFF775FF10BD00B5FFF7A6FF50
:101C5000FFF79EFF4FF4FA60FFF73EFEFFF74EFFDF
:101C600000BD2DE9FE4F0646884691469A46DDF8AE
:101C700030B0022002900020019000900C2E06D07F
:101C80000E2E09D1122001901020009005E077203F
:101C900001903020009000E000BF00BF019840F0AC
:101CA00080010220FFF7DEFE80210420FFF733FFD2
:101CB00000210120FFF7D6FE80210A20FFF710FF48
:101CC000002506E018F805100920FFF7CBFE681C78
:101CD00085B24D45F6DB31460120FFF7C3FE0C2EE1
:101CE0000AD180210D2005E008380040000C014099
:101CF00000080140FFF7F4FE4FF4167500BF042002
:101D0000FFF7CDFE0446681E85B22DB114F0010F19
:101D100002D100980442F2D080210D20FFF7FBFE93
:101D2000002D37D00620FFF7BAFE10F01B0F2FD181
:101D3000002002900198204010F0010F01D00120F6
:101D400002900C2E26D10A20FFF7A9FE04460C2093
:101D5000FFF7A5FE00F007072FB1601E07EBC000DC
:101D60008BF8000003E0E006000E8BF8000004B9D9
:101D70000124122C00DD1224002506E00920FFF7C3
:101D80008EFE0AF80500681C85B2A542F6DB01E06C
:101D90000220029080210C20FFF7A2FE00210120EA
:101DA000FFF760FE0298BDE8FE8F70B587B005466C
:101DB0000C4608210846FFF7AEFE07210D20FFF76D
:101DC00051FE03211420FFF78BFE8DF8045006A866
:101DD00001AB012201A900900C20FFF742FF06464B
:101DE00056B99DF81800102806D19DF804002070FF
:101DF0009DF80500607000E00226304607B070BD17
:101E0000F0B587B00546002708210846FFF783FE96
:101E100000210D20FFF726FE80210E20FFF77BFE1C
:101E200093208DF8040020208DF8050006A801AB52
:101E3000022201A900900C20FFF713FF064686B985
:101E4000002407E001A8005D285501A8005D474077
:101E5000601CC4B2042CF5DB01A8005DB84200D0C0
:101E6000022680210E20FFF73BFE304607B0F0BD72
:101E70002DE9F04107468846154604210520FFF765
:101E80004AFE00210120FFF7EDFD80210A20FFF727
:101E900027FE002405E0395D0920FFF7E3FD601C03
:101EA000C4B24445F7DB03210120FFF7DBFDFF242B
:101EB00000BF0520FFF7F3FD0646601EC4B214B153
:101EC00016F0040FF5D02220FFF7E9FD287021203D
:101ED000FFF7E5FD6870BDE8F08170B587B0054695
:101EE00093208DF8040070208DF8050000208DF8F7
:101EF0000A0000240BE0295D01AAA01C11549DF8E2
:101F00000A00295D48408DF80A00601CC4B2042C08
:101F1000F1DB0DF10B02072101A8FFF7A9FF082152
:101F20000846FFF7F8FD06A801AB092201A90090B9
:101F30000C20FFF796FE06462EB99DF818001828CB
:101F400001D1002600E00226304607B070BD2DE921
:101F5000F04387B006460F46904699468DF80460D8
:101F60008DF80570002406E018F8041001AAA01CE2
:101F70001154601CC4B2062CF6DB002407E019F8EB
:101F8000041001AA04F108001154601CC4B2062C0C
:101F9000F5DB06A801AB0C2201A900900E20FFF78B
:101FA00060FE05462DB90820FFF779FD10F0080FF7
:101FB00000D10225284607B0BDE8F083F0B587B010
:101FC00005460E4630208DF804008DF805500DF1C1
:101FD0000602022101A8FFF74BFF06A801AB04226D
:101FE00001A900900C20FFF73CFE07466FB99DF851
:101FF0001800902809D1002404E001A8005D3055A4
:10200000601CC4B2102CF8DB00E00227384607B091
:10201000F0BDF0B587B006460F46A0208DF804004D
:102020008DF805600DF10602022101A8FFF720FFDF
:1020300006A801AB042201A900900C20FFF711FEB5
:1020400005464DB99DF81800042805D19DF80400F7
:1020500000F00F000A2800D0022515BB002404E080
:10206000385D01A90855601CC4B2102CF8DB05AA24
:10207000102101A8FFF7FCFE06A801AB122201A95E
:1020800000900C20FFF7EDFD05464DB99DF81800B6
:10209000042805D19DF8040000F00F000A2800D0A4
:1020A0000225284607B0F0BD10B587B050208DF846
:1020B000040000208DF805000DF10602022101A8A0
:1020C000FFF7D6FE06A801AB042201A900900C2060
:1020D000FFF7C7FD0446204607B010BD2DE9F041CB
:1020E00087B007460E4690468DF804708DF805605F
:1020F0000DF10602022101A8FFF7BAFE06A801AB06
:10210000042201A900900C20FFF7ABFD04464CB956
:102110009DF81800042805D19DF8040000F00F0078
:102120000A2800D00224E4B9002505E018F80500CB
:1021300001A94855681CC5B2102DF7DB02AA04217D
:1021400001A8FFF795FE0020069006A801AB062225
:1021500001A900900C20FFF784FD0446022C00D05A
:102160000024FCB9B0208DF804008DF805600DF155
:102170000602022101A8FFF77BFE06A801AB04229C
:1021800001A900900C20FFF76CFD04464CB99DF8A6
:102190001800042805D19DF8040000F00F000A285B
:1021A00000D00224204607B0BDE8F08170B587B0AA
:1021B00005460E46C2208DF804008DF805500DF13D
:1021C0000602022101A8FFF753FE06A801AB042274
:1021D00001A900900C20FFF744FD04464CB99DF87E
:1021E0001800042805D19DF8040000F00F000A280B
:1021F00000D00224CCB900208DF804008DF8050031
:102200008DF806008DF8070002AA042101A8FFF747
:102210002FFE06A801AB062201A900900C20FFF7B3
:1022200020FD0446022C00D0002414B1022007B087
:1022300070BDB0208DF804008DF805600DF1060228
:10224000022101A8FFF714FE06A801AB042201A990
:1022500000900C20FFF705FD04464CB99DF81800CE
:10226000042805D19DF8040000F00F000A2800D0D2
:1022700002242046DBE7000030B50146B1F1807F43
:1022800001D3012030BD21F07F40401E4FF0E022FD
:10229000506150170F22002806DA1301224C00F07B
:1022A0000F052D1F635502E01301204C235400BF7E
:1022B00000204FF0E0229061072010611046006975
:1022C00020F0030010610220DCE710B51848006818
:1022D0001849B0FBF1F42046FFF7CEFF022803D1E6
:1022E000C101154800F07FF9114800681149B0FBA1
:1022F000F1F42046FFF7C0FF012801D100BFFEE73F
:1023000010BD01B50D490098086000BF0B4800687A
:102310000028FBD108BD0948006820B107480068C3
:10232000401E06490860704718ED00E000E400E038
:102330004C3F0008A0860100000C0140A4000020D2
:1023400008B54FF4E06001F03DFB1D208DF8000062
:1023500000208DF8010003208DF8020001208DF887
:102360000300684601F033FB08BD0EB501210220D1
:1023700000F031FB114800F041FD4FF47A70ADF8E8
:1023800004004720ADF800000020ADF802006946C7
:102390000A4800F09EFD0121084801F0FBFA0122E5
:1023A0001146064801F036F80121044801F017F8FB
:1023B0000021022000F00FFB0EBD000000040040D1
:1023C00010B50446C549601A8C422FD009DCC448B8
:1023D000201810D0B0F5806F16D0B0F5006F4AD13C
:1023E0001BE0B0F5806F2AD0B0F5006F30D0B0F5AB
:1023F000406F40D135E00121042000F0F9FA0021BE
:10240000042000F0F5FA37E00121082000F0F0FA8E
:102410000021082000F0ECFA2EE00121102000F04D
:10242000E7FA0021102000F0E3FA25E00121202046
:1024300000F0DEFA0021202000F0DAFA1CE0012191
:10244000402000F0D5FA0021402000F0D1FA13E03E
:102450000121802000F0CCFA0021802000F0C8FA91
:102460000AE00121080200F0C3FA00214FF4807055
:1024700000F0BEFA00E000BF00BF10BD10B50121A2
:10248000084600F0B5FA0021012000F0B1FA10BDB5
:102490002DE9F041024600250026002000230024FB
:1024A000002791F803C00CF00F0591F803C01CF051
:1024B000100F03D091F802C04CEA050591F800C056
:1024C000BCF1000F31D0146800202BE04FF0010C5C
:1024D0000CFA00F3B1F800C00CEA03069E4220D1CA
:1024E00083004FF00F0C0CFA03F7BC4305FA03FC12
:1024F0004CEA040491F803C0BCF1280F06D14FF058
:10250000010C0CFA00FCC2F814C00AE091F803C0F8
:10251000BCF1480F05D14FF0010C0CFA00FCC2F8D9
:1025200010C0401C0828D1D31460B1F800C0BCF121
:10253000FF0F34DD546800202EE000F1080C4FF04E
:10254000010808FA0CF3B1F800C00CEA03069E4239
:1025500021D183004FF00F0C0CFA03F7BC4305FAAE
:1025600003FC4CEA040491F803C0BCF1280F05D128
:1025700000F1080C08FA0CF8C2F8148091F803C0B6
:10258000BCF1480F07D100F1080C4FF0010808FA20
:102590000CF8C2F81080401C0828CED35460BDE867
:1025A000F0814FF6FF710180022181700421C1701A
:1025B00070470246002093680B4201D0012000E0E2
:1025C000002070470146886880B2704702460020AC
:1025D000D3680B4201D0012000E000207047014683
:1025E000C86880B2704701617047416170470AB1A5
:1025F000016100E041617047C16070474FF4803273
:102600000A43826181618261826982697047024600
:102610000020344B18684FF68073184040EA0210CF
:102620000843304B186070472F49C8617047F0B5B8
:102630000A4600230024002100252A4E7168C0F3B9
:10264000034583B200F44016B6F5401F08D121F0CF
:102650007061244E766826F07066224F7E6012E02C
:1026600000F48016B6F5801F06D1032606FA05F49D
:10267000A14341F0706106E0460D360103FA06F60B
:10268000B14341F0706122B1460D360103FA06F6FE
:102690003143144E7160F0BD30B500228B071C0F22
:1026A0000F2303FA04F20F4B08338C1053F8243035
:1026B00093430C4C08348D1044F8253023468C107D
:1026C00053F824308C07240F00FA04F42343054CFC
:1026D00008348D1044F8253030BD0000001401404E
:1026E00000F8FEBF0000014000002042DC48006806
:1026F00040F00100DA49086008464068D9490840BE
:10270000D749486008460068D7490840D44908605E
:102710000846006820F4802008600846406820F4DD
:10272000FE004860002088607047CD49096821F4A8
:102730008031CB4A11601146096821F48021116073
:10274000B0F5803F03D0B0F5802F0ED106E0C4492C
:10275000096841F48031C24A116007E0C049096844
:1027600041F4A021BE4A116000E000BF00BF7047E5
:1027700010B501460022002300204A11012A02D18F
:10278000B74C236806E0022A02D1B54C236A01E067
:10279000B34C636A01F01F02012494401C4201D033
:1027A000012000E0002010BD38B50020009000247A
:1027B000002500BF3120FFF7DBFF05460098401CD5
:1027C00000901DB90098B0F5A06FF3D13120FFF74C
:1027D000CFFF08B1012400E00024204638BD0146A7
:1027E00000209F4A106820F0F80040EAC100106005
:1027F00070479E490860704702460020984B586811
:1028000020F47C1042EA01031843954B586070474E
:1028100096490866704701460020914A506820F0AA
:1028200003000843506070478D48406800F00C007A
:102830007047014600208A4A506820F0F0000843A3
:102840005060704701460020854A506820F4E060DF
:1028500008435060704701460020814A506820F4C8
:10286000605040EAC1005060704729B17C4A527AFA
:1028700002437B4B5A7204E0794A527A8243784B86
:102880005A7270477A490860704701460020744ABE
:10289000506820F440400843506070470021754A5A
:1028A00011706F4A82F82010012802D0042808D144
:1028B00003E001216F4A117004E005216D4A117097
:1028C00000E000BF00BF70476B4908607047644973
:1028D000096A0143624A11627047674944390860D6
:1028E000704730B500210022002400235C4D6D6844
:1028F00005F00C0121B1042905D0082923D105E0F8
:102900005E4D056022E05D4D05601FE0544D6D6831
:1029100005F47012022505EB9242514D6D6805F4E5
:1029200080341CB9564D554305600BE04C4D6D6825
:1029300015F4003F03D0524D5543056002E04F4D62
:102940005543056002E04D4D056000BF00BF444D9A
:102950006D6805F0F00109094A4D6B5C0568DD40C2
:1029600045603F4D6D6805F4E061090A454D6B5CBB
:102970004568DD4085603A4D6D6805F46051C90ACF
:10298000404D6B5C4568DD40C560354D6D6805F4B4
:102990004041890B3C4D6B5CC568B5FBF3F50561A7
:1029A00030BD29B12E4A526902432D4B5A6104E0D1
:1029B0002B4A526982432A4B5A61704729B1284AEF
:1029C00092690243264B9A6104E0254A9269824348
:1029D000234B9A61704729B1214AD2690243204BA7
:1029E000DA6104E01E4AD26982431D4BDA61704706
:1029F00029B11B4AD2680243194BDA6004E0184A35
:102A0000D2688243164BDA60704729B1144A1269C2
:102A10000243134B1A6104E0114A12698243104BBE
:102A20001A61704714494039086070470F49C864FB
:102A300070470B49C87170470948406A40F0807080
:102A400007494862704701460020054A92680A42D9
:102A500001D0012000E000207047014988727047D2
:102A6000001002400000FFF8FFFFF6FE00004242A7
:102A7000D8004242201002408004424200127A00F4
:102A800000093D00A8000020B800002010B5044651
:102A9000D749601A8C422BD006DCD648201813D0B8
:102AA000B0F5806F38D119E0B0F5806F2AD0B0F55D
:102AB0006C4F31D101218803FFF79AFF00214FF4B9
:102AC0008040FFF795FF28E001214804FFF79DFFB4
:102AD00000214FF40030FFF798FF1EE00121880429
:102AE000FFF793FF00214FF48020FFF78EFF14E0E3
:102AF0000121C804FFF789FF00214FF40020FFF7F0
:102B000084FF0AE001210805FFF77FFF00214FF451
:102B10008010FFF77AFF00E000BF00BF10BD2DE975
:102B2000F04786B005460E460024A24600BF00BF0F
:102B300000272F462C8A4CF6FF700440F08804438F
:102B40002C82AC894EF6F3100440B08831890843DA
:102B5000718908430443AC81AC8A4FF6FF400440BE
:102B6000B0890443AC8201A8FFF7BBFEA2488742AC
:102B700002D1DDF810A001E0DDF80CA00AEBCA00DC
:102B800000EB0A1031688900B0FBF1F86420B8FB53
:102B9000F0F004012009642101FB1089322000EBD0
:102BA0000910B0FBF1F000F00F0004432C8106B0D7
:102BB000BDE8F0874FF41651016000218180C1808B
:102BC00001810C21418100218181704710B50246AD
:102BD0000020108A4FF2FF0318400B884C882343D3
:102BE0008C882343CC8823431843108210BD0021D6
:102BF000018041808180C180704721B1828942F487
:102C00000052828104E082894DF6FF731A4082816E
:102C10007047F0B503460024002600250020184622
:102C2000C1F3421401F01F06012707FA06F5012C33
:102C300001D10C3004E0022C01D1103000E014303E
:102C40001AB107682F43076002E00768AF430760C7
:102C5000F0BD1AB1838A0B43838202E0838A8B43DF
:102C600083827047028A4FF6F0731A400282028A0A
:102C70000A430282704782894FF2FF731A408281B1
:102C800082890A438281704721B1828942F002021F
:102C9000828104E082894FF6FD731A408281704779
:102CA000028A4FF6DF731A400282028A0A430282C6
:102CB000704721B1028A42F48042028204E0028A13
:102CC0004BF6FF731A4002827047C1F308028280FC
:102CD000704701468888C0F308007047818941F039
:102CE000010181817047028BD2B20283028B42EADA
:102CF000012202837047028B02F47F420283028B1F
:102D00000A430283704721B1828A42F02002828204
:102D100004E0828A4FF6DF731A408282704721B145
:102D2000828A42F01002828204E0828A4FF6EF73B8
:102D30001A408282704721B1828A42F00802828260
:102D400004E0828A4FF6F7731A4082827047828AC3
:102D50004FF6FB731A408282828A0A43828270474E
:102D600021B1828A42F00202828204E0828A4FF616
:102D7000FD731A40828270470246002013880B427E
:102D800001D0012000E000207047CA430280704754
:102D900070B502460B460024002100250020C3F335
:102DA000421503F01F01012606FA01F1012D02D19F
:102DB0009689314006E0022D02D1168A314001E0A9
:102DC000968A31401C12012606FA04F41688344013
:102DD00011B10CB1012000E0002070BD10B500223F
:102DE00000230A1201249440A3B2DC43048010BDE6
:102DF000004C004000BCFFBF0038014010B5044645
:102E0000F749601A8C4245D00CDCB4F1804F1DD0DC
:102E1000F448201823D0B0F5806F29D0B0F5006FAA
:102E200054D12EE0B0F5806F3DD0B0F58E3F03D089
:102E3000B0F5923F4AD13FE00121C802FFF7D8FD2B
:102E400000214FF40060FFF7D3FD40E00121084668
:102E5000FFF7DBFD00210120FFF7D7FD37E001215F
:102E60000220FFF7D2FD00210220FFF7CEFD2EE069
:102E700001210420FFF7C9FD00210420FFF7C5FD53
:102E800025E001210820FFF7C0FD00210820FFF701
:102E9000BCFD1CE001211020FFF7B7FD0021102030
:102EA000FFF7B3FD13E001212020FFF7AEFD002165
:102EB0002020FFF7AAFD0AE001214803FFF798FD53
:102EC00000214FF40050FFF793FD00E000BF00BF6A
:102ED00010BD028802F08F020280CA884B881A4314
:102EE00003881A4302808A8882850A880285BE4A3E
:102EF000904202D0BD4A904201D10A7A0286012254
:102F00008282704770B5002400220023058C4FF6A2
:102F1000FE7635400584028C8388048B4FF68F75CE
:102F20002C400D882C43751E2A400D892A434D885C
:102F30002A43CD888586AC4DA84202D0AB4DA8422D
:102F400013D14FF6F7752A404D892A434FF6FB758A
:102F50002A408D882A4347F6FF652B4047F6FF55E8
:102F60002B408D892B43CD892B438380048302849E
:102F700070BD70B5002400220023058C4FF6EF765B
:102F800035400584028C8388048B48F6FF752C40FD
:102F90000D884FF6FF7606EA05252C434FF6DF75C0
:102FA0002A400D8906EA05152A434D8806EA0515CB
:102FB0002A43CD8805878C4DA84202D08B4DA8426C
:102FC0001DD14FF67F752A404D894FF6FF7606EAF0
:102FD00005152A434FF6BF752A408D8806EA051568
:102FE0002A4347F6FF352B4047F2FF752B408D896A
:102FF00006EA85052B43CD8906EA85052B438380A8
:103000000483028470BD70B5002400220023058C67
:103010004FF6FF6635400584028C8388848B4FF61B
:103020008F752C400D882C434FF6FF552A400D8993
:103030004FF6FF7606EA05252A434D8806EA052560
:103040002A43CD888587684DA84202D0674DA842A3
:103050001DD14FF2FF752A404D894FF6FF7606EAE3
:1030600005252A434FF6FF352A408D8806EA0525B7
:103070002A4346F6FF752B4045F6FF752B408D8998
:1030800006EA05152B43CD8906EA05152B438380F7
:103090008483028470BD70B5002400220023058C57
:1030A0004EF6FF7635400584028C8388848B48F683
:1030B000FF752C400D884FF6FF7606EA05252C4358
:1030C0004DF6FF752A400D8906EA05352A434D88DD
:1030D00006EA05352A43CD88A0F84050424DA84263
:1030E00002D0424DA84207D1C3F30D038D894FF69C
:1030F000FF7606EA85152B4383808483028470BDA6
:10310000828B4FF2FF331A408283828B4FF6FF731C
:1031100003EA01231A4382837047F0B50C46154633
:10312000002100220026078C4EF6FF7C07EA0C07E0
:103130000784818B028C4FF6FF7707EA043640F64E
:10314000FF4739404FF6FF7707EA05274FF6FF7C28
:103150000CEA033C47EA0C0739434DF6FF773A4047
:1031600046F480573A4381830284F0BD828B4FF648
:10317000F3731A408283828B0A4382837047F0B5CF
:103180000C461546002100220026078C4FF6FF6CE6
:1031900007EA0C070784818B028C4FF6FF7707EA5A
:1031A00004264FF60C7739404FF6FF7707EA0317EE
:1031B0002F4339434FF6FF573A4046F480773A435E
:1031C00081830284F0BD028B4FF2FF331A400283E9
:1031D000028B4FF6FF7303EA01231A430283704701
:1031E0000010004000FCFFBF002C014000340140F3
:1031F000F0B50C461546002100220026078C4FF63C
:10320000EF7C07EA0C070784018B028C4FF6FF77EF
:1032100007EA041640F6FF4739404FF6FF7707EA02
:10322000033739434FF6FF7707EA052739434FF64F
:10323000DF773A4046F010073A4301830284F0BD3D
:10324000028B4FF6F3731A400283028B0A43028308
:103250007047F0B50C46154600210022068C4FF64B
:10326000FE773E400684018B028C4FF60C7631408F
:103270007E1C06EA03162E4331437E1E324044F084
:103280000106324301830284F0BD70B505460C4649
:10329000208850B92389A28861882846FFF7D9FF82
:1032A000E1882846FFF7CCFF25E0208804280AD1D2
:1032B0002389A28861882846FFF79AFFE18828467B
:1032C000FFF781FF17E0208808280AD12389A28808
:1032D00061882846FFF753FFE1882846FFF746FF3D
:1032E00009E02389A28861882846FFF716FFE18854
:1032F0002846FFF705FF70BD2DE9F04105460C4655
:1033000000260127608808B9022600E00026A08870
:10331000012801D1022700E001272088A0B92389D4
:10332000A28861882846FFF794FFE1882846FFF7C6
:1033300087FF23893A4631462846FFF759FFE1883F
:103340002846FFF740FF13E02389A28861882846BA
:10335000FFF74EFFE1882846FFF735FF23893A46FD
:1033600031462846FFF775FFE1882846FFF768FFDA
:10337000BDE8F0810A884B881A438B881A43CB88B2
:103380001A430B891A434B891A438B891A43A0F8B5
:10339000442070474FF6FF71818000210180C18079
:1033A0004180017270470021018041808180C1808D
:1033B000018141818181C18170470021018041806B
:1033C000012181800021C18001817047002101809D
:1033D00041808180C180018141818181704721B11B
:1033E000028842F00102028004E0028840F2FE33CB
:1033F0001A400280704731B1B0F8442042F40042D4
:10340000A0F8442005E0B0F84420C2F30E02A0F872
:10341000442070471AB183890B43838102E083897A
:103420008B43838170478182704741EA0203A0F891
:10343000483070471AB183890B43838102E0838946
:103440008B438381704701894FF6F87211400181E7
:1034500070470A46002101894FF68F7319401143C6
:103460000181704730B504460D4629462046FFF7D6
:10347000F0FF208940F00700208130BD2DE9F041A8
:1034800004460D4616461F46602D06D13B460122D6
:1034900031462046FFF7ACFE05E03B4601223146AF
:1034A0002046FFF7D6FE29462046FFF7D2FF2089A7
:1034B00040F007002081BDE8F08170B50C46002186
:1034C0000189C9B244EA02054FF6FF7606EA0326EF
:1034D00035432943018170BD2DE9F04105460E4673
:1034E00017469846002443463A4631462846FFF799
:1034F000E4FF2C894FF6F870044044F007044FF6BF
:103500008F70044044F070042C81BDE8F081F0B568
:1035100004460D4616461F463B463246294620467F
:10352000FFF7CBFF208940F480402081F0BD01856A
:10353000828270470A460021018840F28F33194089
:10354000114301807047F0B50C4615461E46002118
:10355000002200230189028B038C4FF6F877394053
:1035600021434FF6FC473A4040F201173A434FF6E9
:10357000DD773B404FF6FF7707EA06172F433B43C3
:10358000018102830384F0BD0A460021018B4FF6BE
:103590008F7319401143018370470A460021018B44
:1035A00048F6FF7319404FF6FF7303EA02231943ED
:1035B000018370470A460021818B4FF68F731940B3
:1035C0001143818370470A460021818B48F6FF73BF
:1035D00019404FF6FF7303EA0223194381837047B2
:1035E00021B1028842F08002028004E0028840F2A9
:1035F0007F331A400280704721B1828842F0040272
:10360000828004E082884FF6FB731A408280704704
:1036100021B1828842F00802828004E082884FF65D
:10362000F7731A408280704721B1828842F001020C
:10363000828004E082884FF6FE731A4082807047D1
:103640000A460021018B4FF6F7731940114301839D
:1036500070470A460021018B4FF2FF7319404FF665
:10366000FF7303EA02231943018370470A460021CE
:10367000818B4FF6F77319401143818370470A46D7
:103680000021818B4FF2FF7319404FF6FF7303EA5D
:1036900002231943818370470A460021018B4FF6AC
:1036A000FB7319401143018370470A460021018BC7
:1036B0004FF6FF3319404FF6FF7303EA0223194315
:1036C000018370470A460021818B4FF6FB73194036
:1036D0001143818370470A460021818B4FF6FF33E7
:1036E00019404FF6FF7303EA0223194381837047A1
:1036F0000A460021018B4FF67F7319401143018365
:1037000070470A460021018BC1F30E014FF6FF738B
:1037100003EA02231943018370470A460021818B83
:103720004FF67F7319401143818370470A46002189
:10373000818BC1F30E014FF6FF7303EA0223194395
:10374000818370470A460021018C4FF6FD731940B2
:103750001143018470470A460021018C4FF6F7732C
:1037600019401143018470470A460021018C4FF62D
:10377000DF7319404FF6FF7303EA02131943018404
:1037800070470A460021018C4FF67F7319404FF6AF
:10379000FF7303EA02131943018470470A460021AC
:1037A000018C4FF6FF5319404FF6FF7303EA0223D3
:1037B0001943018470470A460021018C4FF2FF73C0
:1037C00019404FF6FF7303EA02231943018470473F
:1037D0000A460021018C4DF6FF7319404FF6FF7326
:1037E00003EA023319430184704710B5038C0124A6
:1037F0008C40A3430384038C02FA01F4A4B2234354
:10380000038410BD10B5038C04248C40A3430384AF
:10381000038C02FA01F4A4B22343038410BD30B533
:10382000038C01248C40A343038409B1082918D1D7
:1038300000F1180303EB61031B684FF68F742340FC
:1038400000F1180404EB6104236000F1180303EB9A
:1038500061031B68134300F1180404EB6104236047
:103860001FE00B1FC3F34E0400F118031B5948F669
:10387000FF7423400C1FC4F34E0500F1180463517C
:103880000B1FC3F34E0400F118031B594FF6FF74CE
:1038900004EA022423430C1FC4F34E0500F118046C
:1038A000635130BD21B1028842F00202028004E07F
:1038B000028840F2FD331A400280704721B102882D
:1038C00042F00402028004E0028840F2FB331A4016
:1038D0000280704721B1828842F08002828004E039
:1038E00082884FF67F731A4082807047028840F2C8
:1038F000F7331A40028002880A43028070478288A8
:103900004FF68F731A40828082880A438280704704
:1039100002894FF6F8731A40028102890A43028134
:10392000704702894FF67F731A40028102890A4369
:103930000281704781847047818570478186704716
:103940000187704781877047A0F840107047028850
:10395000D2B2028002880A43028070470146888EF4
:1039600070470146088F70470146888F70470146AF
:10397000B1F8400070470146888C70470146088DB9
:10398000704702460020138A0B4201D0012000E05C
:1039900000207047CA430282704730B502460020BB
:1039A00000230024158A05EA0103958905EA01042C
:1039B00013B10CB1012000E0002030BDCA430282E7
:1039C0007047000031490143314A1160704770B5BA
:1039D000002100230F22C4780CB32D4C246804F47A
:1039E000E064C4F5E064210AC1F10403CA404478EC
:1039F00004FA03F18478144021430901254C067828
:103A0000A155047804F01F050124AC4005786D1120
:103A10004FF0E02606EB8505C5F8004109E0047883
:103A200004F01F050124AC401B4D0678761145F8C3
:103A3000264070BD194A0A400243154B1B1F1A60ED
:103A4000704739B1124A121D12680243104B1B1DF8
:103A50001A6006E00E4A121D126882430C4B1B1DB1
:103A60001A607047042808D14FF0E021096941F03D
:103A700004014FF0E022116107E04FF0E0210969F5
:103A800021F004014FF0E022116170470000FA05B7
:103A90000CED00E000E400E080E100E080FFFF1FAB
:103AA00010B50446BD4820180FD0B0F5806F16D071
:103AB000B0F5784F1DD101210803FEF799FF0021D1
:103AC0004FF48050FEF794FF14E001218803FEF7C5
:103AD0009CFF00214FF48040FEF797FF0AE0012190
:103AE000C803FEF792FF00214FF40040FEF78DFF60
:103AF00000E000BF00BF10BD10B50022028802F434
:103B000041520B884C8823438C882343CC88234321
:103B10000C8923434C8923438C892343CC89234339
:103B20001A430280838B4FF2FF74234083830B8AF6
:103B3000038210BD2DE9F04786B005460C464FF0D4
:103B4000000902274FF000084FF0010A0026A88B59
:103B50004FF240010840A88302202884B5F81C9049
:103B60002089022801D100BF31E0A08810B94FF0B0
:103B7000010A01E04FF0020A01A8FEF7B2FEE08858
:103B8000B0F5007F0AD1019800EB80004000218948
:103B90000902B0FBF1F0401D86B20BE04FEA4A107B
:103BA00021894843019901EB81014900B1FBF0F003
:103BB000401D86B20A20B6FBF0F606F00108A6EB1F
:103BC0000800C0F34F074FF6FF7000EA0828022FE5
:103BD00001DBFF2F02DD02274FF0000847EA080053
:103BE000E18808432884208840F400606188084305
:103BF000A18808436189084340EA0909A5F81C9097
:103C000006B0BDE8F0870021018041808180C1803D
:103C1000018141818181C181072101827047002199
:103C2000018041808180C180022101810021418188
:103C3000704721B1028842F04002028004E002880D
:103C40004FF6BF731A400280704721B1828B42F455
:103C50008062828304E0828B4FF6FF331A408283B6
:103C6000704730B5002400230C110125A540ABB2EC
:103C70001AB185881D43858002E085889D43858033
:103C800030BD1AB183880B43838002E083888B4365
:103C90008380704781817047014688897047A1F50C
:103CA0007E42FF3A04D0028842F48072028004E02F
:103CB00002884FF6FF631A400280704721B1828864
:103CC00042F00402828004E082884FF6FB731A40BF
:103CD0008280704702884FF2FF731A400280028888
:103CE0000A4302807047018841F480510180704787
:103CF00021B1028842F40052028004E002884DF6AD
:103D0000FF731A400280704702460020012901D04B
:103D1000108B00E0908A70470146088A7047B1F521
:103D2000804F04D1028842F48042028004E002887D
:103D30004BF6FF731A400280704702460020138939
:103D40000B4201D0012000E000207047CA430281ED
:103D50007047F0B50246002000240023002501F042
:103D60000F070126BE40B4B20B1101269E40B3B22C
:103D7000968806EA03051689264202D00DB1012075
:103D800000E00020F0BD10B5002201F00F04012377
:103D9000A3409AB2D343038110BD000000C8FFBF07
:103DA0000CB50020019000904748006840F4803036
:103DB0004549086000BF4448006800F400300090A6
:103DC0000198401C0190009818B90198B0F5A06FB7
:103DD000F1D13D48006810F4003F02D0012000906E
:103DE00001E0002000900098012843D13748006886
:103DF00040F01000354908600846006820F00300D4
:103E000008600846006840F0020008602E484068DC
:103E10002D4948600846406848600846406840F4BC
:103E2000806048600846406820F47C10486008467E
:103E3000406840F4E81048600846006840F0807030
:103E4000086000BF2048006810F0007FFAD01E48CC
:103E5000406820F003001C4948600846406840F074
:103E60000200486000BF1848406800F00C000828B5
:103E7000F9D101E000BFFEE70CBD10B5FFF790FFE0
:103E800010BD10B51048006840F001000E490860F0
:103E9000084640680E4908400B49486008460068DB
:103EA0000C490840084908600846006820F4802052
:103EB00008600846406820F4FE00486000208860E2
:103EC000FFF7DBFF10BD00000010024000200240A1
:103ED0000000FFF8FFFFF6FE064C074D06E0E06825
:103EE00040F0010394E8070098471034AC42F6D341
:103EF000FCF722F9603F0008803F0008014A0249B0
:103F000000F013B85F130008BC00002002E008C8EE
:103F1000121F08C1002AFAD170477047002001E043
:103F200001C1121F002AFBD170472DE9F04116464E
:103F30000F460446002503E03946B0476D1C641C5B
:103F400020780028F8D12846BDE8F08100A24A0474
:103F500000A24A0400A24A040051250200A24A0419
:103F6000803F000800000020C00000000C3F000857
:103F700040400008C0000020A80200001C3F0008CC
:103F8000000000000000FF078029FFFFFFFFFF0A7D
:103F9000BB5B000000B5FFFFFFFFFFFF41542B4359
:103FA000495053544152543D22544350222C223103
:103FB000302E302E312E3137222C38300D0A41541C
:103FC0002B4349504D4F44453D310D0A41542B433D
:103FD000495053454E440D0A000000000000000007
:103FE00000000000000000000000000000000000D1
:103FF00000000000A0860100F0490200400D03000F
:10400000A086010000000000000000000000500039
:1040100000000000000000000000000000000000A0
:104020000000000000000000000000000102030486
:104030000102030406070809020406080000000044
:0400000508000147A7
:00000001FF
