:020000040800F2
:1000000000040020470100086D0E00086F0E000874
:10001000730E0008770E00087B0E00080000000039
:100020000000000000000000000000007F0E00083B
:10003000810E000800000000830E0008850E0008F5
:1000400067010008670100086701000867010008F0
:1000500067010008670100086701000867010008E0
:1000600067010008670100086701000867010008D0
:1000700067010008670100086701000867010008C0
:1000800067010008670100086701000867010008B0
:1000900067010008670100086701000867010008A0
:1000A0006701000867010008670100086701000890
:1000B00067010008051100086701000867010008D2
:1000C0006701000867010008670100086701000870
:1000D00067010008110F00086701000867010008A8
:1000E0006701000867010008670100086701000850
:1000F0006701000867010008670100086701000840
:10010000670100086701000867010008670100082F
:10011000670100086701000867010008670100081F
:10012000670100086701000867010008670100080F
:10013000DFF80CD003F074FE004800474D090008BA
:1001400060030020704708488047084981F3088809
:1001500007480047FEE7FEE7FEE7FEE7FEE7FEE7AB
:10016000FEE7FEE7FEE7FEE745010008600300202A
:1001700031010008002107E0002200E0521C42F695
:10018000E0639A42FAD3491C8142F5D3704710B517
:100190000121042002F084FB0121084602F080FBCB
:1001A000FE48406840F40050FC49486008464068FA
:1001B00020F48040486010BD10B50121042002F0F9
:1001C0006FFB0121082002F06BFB0121084602F0C1
:1001D00067FB0121F24802F09CF910BD10B50446FE
:1001E000012C0FD18102EF4802F071F90421ED4892
:1001F00002F06DF9E102EB4802F067F9E103EA4829
:1002000002F063F9022C0FD1A102E64802F05FF977
:10021000A103E54802F05BF96102E24802F055F9FA
:100220000421E04802F051F994B94FF48061DD48AF
:1002300002F04BF94FF40061DA4802F046F94FF44E
:100240000041D94802F041F90421D64802F03DF9B5
:1002500010BDD64908604FF0E021096941F0030163
:100260004FF0E02211617047FEB508260827F01E06
:10027000062841D2DFE800F01018232C3E03CC49B9
:10028000522001F004FD04462CB903260224C9487B
:1002900001F028FD044600BF2CB904260224C548FD
:1002A00001F08DFD044600BF44B905260224C14B70
:1002B000C14A0921602001F0BCFD044600BF34B9E9
:1002C00006260224BD49384601F0EAFD044600BF77
:1002D0007CB9BA48C57BB520B62100222B46CDE9B2
:1002E000002102905B22BB21B5A003F0CBFD0726C5
:1002F000022400BF082600BF08262846FEBD10B510
:1003000002241021A84802F0C6F8B2490870202142
:10031000A54802F0C0F8B0490870E101A24802F017
:10032000BAF8AE49087021029E4802F0B4F8AC4910
:10033000087040219B4802F0AEF8AA49087080215D
:10034000984802F0A8F8A84908701021954802F0D2
:10035000A2F8A64908709F480078B8B99E4800786E
:10036000A0B99E48007888B99D48007870B99D482A
:10037000007858B99E48007828B99E48007810B98E
:100380009D48007810B93C209C490880914800782D
:1003900060B19148007848B19048007830B19048F9
:1003A000007818B18F48007800B10124894800789E
:1003B00060B18948007848B18848007830B98848E9
:1003C000007818B18748007800B10224814800788D
:1003D00060B18148007848B98048007830B98048D9
:1003E000007818B97F48007800B102247948007875
:1003F00060B17948007848B97848007830B97848D1
:10040000007818B17748007800B10224714800786C
:1004100060B97148007848B97048007830B17048C8
:10042000007818B16F48007800B10424694800785A
:1004300060B16948007848B96848007830B16848C8
:10044000007818B16748007800B10424614800784A
:1004500060B96148007848B16048007830B16048C0
:10046000007818B15F48007800B105245948007839
:1004700060B95948007848B95848007830B95848A8
:10048000007818B15748007800B105245148007829
:1004900060B15148007848B15048007830B95048B0
:1004A000007818B94F48007800B102244948007814
:1004B00060B14948007848B14848007830B14848B0
:1004C000007818B94748007800B9072441480078F7
:1004D00060B14148007848B14048007830B14048A8
:1004E000007818B93F48007800B1072439480078EF
:1004F00060B13948007848B13848007830B13848A0
:10050000007818B13748007800B9082431480078DD
:1005100060B13148007848B13048007830B930488F
:10052000007818B92F48007800B908242F480078BF
:1005300000B109242C48007800B10A24204610BDDF
:1005400010B52F48007818B1FFF7D9FE044601E036
:100550002B4804782A48007800B1BCB901231A4618
:100560000021980700F0F4FF012302220021500728
:1005700001F039F8012303220021980701F07EF8E9
:10058000012304220021100701F0C4F81C48007860
:10059000C0B3012C51D10323012234E000000140FB
:1005A00000023000000C0140000801407C000020E7
:1005B000B80000208800002010000020CC0000209F
:1005C00025642025642025642025642025642025B9
:1005D00064200A008C0000208D0000208E00002086
:1005E0008F00002090000020910000209200002049
:1005F00061000020620000206300002086000020CF
:100600009400002019E0F7480188900700F0A0FF4F
:1006100003230222F3480188500700F0E4FF03237C
:100620001A46F0480188A00701F028F803230422A5
:10063000EC480188100701F06DF8EB480078E8B14C
:10064000022C1BD102230122E6480188900700F00A
:100650007FFF02231A46E3480188580700F0C3FFD2
:1006600002230322DF480188580701F007F802231C
:100670000422DC480188100701F04CF8DA480078C1
:10068000C8B1032C17D1022301225021880600F0A3
:100690005FFF032302225021880600F0A4FF0223FB
:1006A00003225021880600F0E9FF03230422502191
:1006B000880601F02FF8CC480078C8B1042C17D177
:1006C000022301225021880600F042FF0323022268
:1006D0005021880600F087FF02230322502188065C
:1006E00000F0CCFF032304225021880601F012F809
:1006F000BD480078C8B1052C17D102230122502132
:10070000880600F025FF032302225021880600F00E
:100710006AFF022303225021880600F0AFFF032363
:1007200004225021880600F0F5FFAF480078C8B1D8
:10073000062C17D1032301225021880600F008FF60
:1007400002231A465021880600F04DFF03231A4663
:100750005021880600F092FF0223042250218806CF
:1007600000F0D8FFA0480078C8B1072C17D10323A8
:1007700001225021880600F0EBFE02231A46502188
:10078000880600F030FF03231A465021880600F047
:1007900075FF022304225021880600F0BBFF924817
:1007A0000078C8B1082C17D10323012250218806F4
:1007B00000F0CEFE02231A465021880600F013FFF7
:1007C00003231A465021880600F058FF0223042212
:1007D0005021880600F09EFF83480078C8B1092C9C
:1007E00017D1042301220021900700F0B1FE042359
:1007F00002220021500700F0F6FE0423032200210C
:10080000180700F03BFF04231A460021180700F0E8
:1008100081FF75480078C8B10A2C17D10423012242
:100820000021900700F094FE0423022200215007CB
:1008300000F0D9FE042303220021180700F01EFF58
:1008400004231A460021180700F064FF10BD3EB5CE
:1008500066480078B8B900240CE06548015D654839
:1008600002F0A5F900BF6348008810F0800FFAD0AD
:10087000601CC4B2222CF0DB01205C4908704FF4EC
:100880007A70FFF777FC59480078022817D10024C6
:100890000CE05948015D574802F089F900BF5548FE
:1008A000008810F0800FFAD0601CC4B20E2CF0DB70
:1008B00003204E4908704FF47A70FFF75BFC4B48F9
:1008C0000078042817D100240CE04C48015D494809
:1008D00002F06DF900BF4748008810F0800FFAD091
:1008E000601CC4B20C2CF0DB0520404908704FF4AA
:1008F0007A70FFF73FFC3D480078062806D10720B4
:100900003A4908704FF47A70FFF734FC37480078A2
:1009100007281AD108203549087001203849087085
:1009200038490870B520B12100221346CDE90021D5
:1009300002905B22BB2134A003F0A4FADC20FFF775
:1009400088FC41F28830FFF715FC3EBD0EB5FFF77D
:100950001EFCFFF731FC00F04DFD03F004FA00F03F
:1009600037FC00F0ABFC00F0C2FC00F0E6FC00F04D
:100970006BFD00F083FD00F090FD00F0D3FD00F072
:1009800048FD00F07DFC9620274908600846006875
:10099000C0F5FA602549086000202549087001F07B
:1009A00006FC0020FFF71AFC012240F225511148F5
:1009B00002F0A1F801F036FC01F049FC01F0A6F8C4
:1009C00000201C4908701C49087041F28830FFF76C
:1009D000D1FB00201949C8734FF49670FFF739FC1A
:1009E00099E1000086000020940000205E000020B5
:1009F000160000200038014038000020460000208A
:100A00005D0000205F000020253032782025303244
:100A10007820253032782025303278202530327801
:100A20002025303278200A007C0000208000002041
:100A3000840000209600002063000020CC000020ED
:100A4000F248007808B9FFF702FF5FE1FFF778FD91
:100A5000EF48007818B9EF4800780028F5D0EE4844
:100A6000C07B10B9FFF700FC06E0EB48C07B18B173
:100A7000E948C07BE9490870E8480078E44909780A
:100A800088427DD1E2480078002879D0E14800789A
:100A90000028FAD05020E249088001231A4600219C
:100AA000800600F055FD012302220021500700F0CE
:100AB0009AFD012303220021980700F0DFFD0123A6
:100AC00004220021100700F025FE4FF4FA70FFF712
:100AD00051FB4FF49670FFF7BCFB4FF47A70FFF7B1
:100AE00049FB02230122CE480188900700F030FD27
:100AF00002231A46CA480188580700F074FD0223F1
:100B00000322C7480188580700F0B8FD02230422D9
:100B1000C3480188100700F0FDFD4FF49670FFF701
:100B200029FB01231A460021980700F011FD01233B
:100B300002220021500700F056FD0123032200216C
:100B4000980700F09BFD012304220021100700F00C
:100B5000E1FD4FF4FA70FFF70DFB03230122B048CB
:100B60000188900700F0F4FC03230222AC480188BE
:100B7000500700F038FD03231A46A948018800E019
:100B80004FE04FF0804000F079FD03230422A44899
:100B90000188100700F0BEFDC820FFF7EBFA012323
:100BA0001A460021980700F0D3FC012302220021FD
:100BB000500700F018FD012303220021980700F0E0
:100BC0005DFD012304220021100700F0A3FD4FF476
:100BD000FA70FFF7CFFADC20FFF73BFB0120FFF7AD
:100BE000FDFA4FF4FA70FFF7C5FA0020FFF7F6FAA6
:100BF0004FF42F70FFF7BEFA00208749C87387496A
:100C00000870B520B32100221346CDE900210290DF
:100C10005B22BB21AFF2586003F034F900207C491D
:100C200008707E4800787B49097888425DD1784811
:100C30000078002859D177480078002855D0012342
:100C40001A460021980700F083FC012302220021AC
:100C5000500700F0C8FC012303220021980700F090
:100C60000DFD012304220021100700F053FD022096
:100C7000FFF7B4FA41F28830FFF77CFA0020FFF763
:100C8000ADFA5020664908800223012208460188F7
:100C9000900700F05DFC02231A466148018858075E
:100CA00000F0A1FC022303225D480188580700F0F0
:100CB000E5FC022304225A480188100700F02AFDAF
:100CC00000205549C87355490870B520B421002249
:100CD0001346CDE9002102905B22BB21AFF22070C8
:100CE00003F0D0F800204B4908704C48007849497F
:100CF000097888420AD14648007838B10020464930
:100D0000C873464908705020454908803F4800781C
:100D100000287FF49BAE93E610B542480078022885
:100D20000DD1C101404801F0D2FB0120FFF756FA76
:100D30003EA003F0A7F800203A4908701AE03948AD
:100D40000078032809D10220FFF748FA3CA003F0FD
:100D500099F80020334908700CE0324800780428E4
:100D600008D10020FFF73AFA3AA003F08BF80020F0
:100D70002C49087010BD10B53B48007801281FD1E0
:100D80002548C07B01281BD12348807B662817D1CA
:100D90002148407B772813D11F48007B88280FD13A
:100DA0001D48C07A99280BD10220FFF717FA41F2AB
:100DB0008830FFF7DFF900202B490870FFF70EFAA3
:100DC0002948007802281FD11348C07B02281BD174
:100DD0001148807B662817D10F48407B772813D1B4
:100DE0000D48007B88280FD10B48C07A99280BD179
:100DF0000120FFF7F3F941F28830FFF7BBF900203B
:100E000019490870FFF7EAF910BD00005D000020E5
:100E10006100002062000020CC000020960000202D
:100E20008600002058000020000C01400A20456E7A
:100E3000636F6D70617373323120200A000000000F
:100E40000A20456E636F6D70617373323220200A21
:100E5000000000000A20456E636F6D70617373328D
:100E60003420200A0000000052000020704700BF1C
:100E7000FEE700BFFEE700BFFEE700BFFEE77047EA
:100E80007047704710B5B7480068401CB549086006
:100E9000B5480068401CB4490860B448007880B97F
:100EA00008460068B249096888420AD14FF4807147
:100EB000B04801F00CFB0020AB4908600120AB49B1
:100EC0000870AA480078012811D1A9480068C0F527
:100ED000FA60A5490968884209D14FF48071A54894
:100EE00001F0F3FA0020A0490860A04908709D486D
:100EF0000068A14988420AD100209A4908604FF051
:100F0000E020006920F003004FF0E021086110BDEF
:100F1000FEB59A48007800287DD12021984801F03C
:100F20009DFE012877D1964801F045FEC6B294484F
:100F300001F041FE9349944A127888544F2E02D111
:100F400001209249087091480078012804D18E4808
:100F50000078401C8C4908708B480078022859DBC7
:100F6000884800784F2814D1864840784B2810D103
:100F700087480078012807D085480078032803D0E7
:100F800083480078052804D181480078401C8049B6
:100F900008707C4800784F2814D17A4840784E2851
:100FA00010D17B480078012807D0794800780328C1
:100FB00003D077480078052804D175480078401C94
:100FC000734908706F4800784F2814D16D484078F5
:100FD000522810D16E480078012807D06C4800785C
:100FE000032803D06A480078052804D168480078AF
:100FF000401E67490870002405E00CE000206149AC
:101000000855601C84B2402CF8DB00205E49087053
:101010005E490870002659480078012871D12021C6
:10102000574801F01BFE01286BD1554801F0C3FD64
:10103000C5B2AA2D10D10020564908600121022016
:1010400001F03BFC0121544802F03BF901205349D7
:1010500008700020524908705048007801284FD18C
:1010600050485149097845544F480078401C4E4932
:10107000087008460078062842D10021464802F050
:1010800020F90021022001F018FC002046490870D8
:1010900001204349087043480078AA2827D14148D5
:1010A00040785A2823D13F480079A5281FD13D48D0
:1010B0004079A5281BD13B4880783C4908703948C5
:1010C000C0783B49087001203A49087000203A492D
:1010D0000870B521B2223348C078CDE901210090D3
:1010E000304883785B22BB2134A002F0CBFE002481
:1010F00004E000202B490855601C84B2052CF8DD63
:101100000026FEBD10B50121234802F0B8FB40B116
:101110000121214802F0C4FB1E480068401C1D4903
:1011200008601C48006814281BD300211A4802F0EC
:10113000C8F80021022001F0C0FB0020154908601A
:101140001748007868B9002404E0002015490855C4
:10115000601CC4B2052CF8DD00201049087012494B
:10116000087010BD98000020680000208400002056
:101170007C000020000C0140E09304005F00002090
:10118000003801401C0100205B00002060000020AE
:101190005E00002054000020000400406400002095
:1011A00065000020DC0000205A00002061000020C3
:1011B00062000020940000206300002025642025A8
:1011C00064202564202564202564202564200A00ED
:1011D00000B585B0012144F2040001F061FB4FF439
:1011E0000070ADF8100018208DF8130003208DF862
:1011F000120004A92E4801F0BDF84FF48060ADF84C
:10120000100004208DF8130004A9294801F0B2F859
:101210004FF4E13000900020ADF80400ADF8060076
:10122000ADF80800ADF80C000C20ADF80A006946D6
:10123000204801F0E6FB01211E4801F050FC05B0FA
:1012400000BD70B504460D46E1B21A4801F0AFFC8E
:1012500000BF1848008810F0800FFAD0204670BDFB
:1012600010B52021134801F0F9FC012806D11148DE
:1012700001F0A1FC10490870012010BD0020FCE71E
:1012800008B54FF4E06002F00FFB00214FF0006062
:1012900002F042FB25208DF8000000208DF80200AE
:1012A00001208DF80300684602F003FB08BD000032
:1012B00000080140003801409500002008B50121D8
:1012C000082001F0EDFA4FF48070ADF80000102016
:1012D0008DF8030003208DF802006946574801F09D
:1012E00049F84FF48071554801F0EFF808BD08B592
:1012F0000121042001F0D4FA4FF49870ADF80000F9
:1013000028208DF8030001208DF8020069464C4822
:1013100001F030F80121082001F0C2FA44F2D02097
:10132000ADF8000028208DF8030001208DF80200A0
:101330006946424801F01EF808BD08B540F6044071
:10134000ADF8000010208DF8030003208DF8020096
:1013500069463A4801F00EF84FF40040ADF800003D
:1013600010208DF8030003208DF8020069463448F0
:1013700001F000F82320ADF8000010208DF80300E4
:1013800003208DF8020069462C4800F0F3FF48F274
:10139000C000ADF8000010208DF8030003208DF888
:1013A00002006946264800F0E5FF4FF46040ADF8C2
:1013B000000010208DF8030003208DF8020069461C
:1013C000204800F0D7FF0121042001F069FA012133
:1013D000082001F065FA0121102001F061FA40F6C1
:1013E0000441164801F071F84FF40041144801F02F
:1013F0006CF808BD08B50420ADF8000010208DF889
:10140000030003208DF8020069460C4800F0B2FF8B
:1014100008BD08B54FF46040ADF8000010208DF80D
:10142000030003208DF802006946064800F0A2FF81
:101430000121102001F034FA08BD0000000C014029
:10144000000801400010014010B50121042001F006
:1014500027FA0121082001F023FA0121102001F0D0
:101460001FFA0121084601F028FA0121022001F0AB
:1014700024FA0121084601F013FA10BD08B50F2027
:10148000ADF8000018208DF8030003208DF802004D
:101490006946C74800F06EFF08BD00B587B06320FD
:1014A000ADF814002320ADF810000020ADF81600B0
:1014B000ADF8120004A94FF0804001F07CFC6020E0
:1014C000ADF800000120ADF802000020ADF80800E2
:1014D00069464FF0804001F087FC0821C80602F001
:1014E00021F869464FF0804001F0B5FC0821C8069C
:1014F00002F021F869464FF0804001F0F6FC082127
:10150000C80602F025F869464FF0804001F035FD2D
:101510000821C80602F025F80121880701F0D1FE54
:1015200007B000BD10B500214FF0804002F078F9FF
:1015300000214FF0804002F075F900214FF080400B
:1015400002F072F900214FF0804002F06FF910BDF7
:101550002DE9F04106460F4614461D46012C04D1E4
:101560003946304602F05CF913E0022C04D13946CA
:10157000304602F057F90CE0032C04D139463046CE
:1015800002F052F905E0042C03D13946304602F04E
:101590004DF9012D07D14021854800F098FF8021A9
:1015A000834800F094FF022D07D14021804800F0CD
:1015B0008CFF80217E4800F08AFF032D07D1402157
:1015C0007B4800F084FF8021794800F07EFF042DE5
:1015D00007D14021764800F078FF8021744800F060
:1015E00074FFBDE8F0812DE9F04106460F46144630
:1015F0001D46012C04D13946304602F011F913E0A2
:10160000022C04D13946304602F00CF90CE0032CD0
:1016100004D13946304602F007F905E0042C03D125
:101620003946304602F002F9012D07D10121614807
:1016300000F04DFF02215F4800F049FF022D07D165
:1016400001215C4800F041FF02215A4800F03FFFB1
:10165000032D07D10121574800F039FF02215548D9
:1016600000F033FF042D07D10121524800F02DFF77
:101670000221504800F029FFBDE8F0812DE9F0413A
:1016800006460F4614461D46012C04D13946304605
:1016900002F0C6F813E0022C04D13946304602F0BD
:1016A000C1F80CE0032C04D13946304602F0BCF8F6
:1016B00005E0042C03D13946304602F0B7F8012D7D
:1016C00007D120213B4800F002FF69033A4800F0AF
:1016D000FEFE022D07D12021364800F0F6FE290338
:1016E000354800F0F4FE032D08D12021314800F0E8
:1016F000EEFE4FF40051304800F0E7FE042D07D114
:1017000020212C4800F0E1FEE9022B4800F0DDFE2C
:10171000BDE8F0812DE9F04106460F4614461D460E
:10172000012C04D13946304602F07AF813E0022C3D
:1017300004D13946304602F075F80CE0032C04D190
:101740003946304602F070F805E0042C03D13946E2
:10175000304602F06BF8012D07D1A903164800F0BE
:10176000B6FEE903144800F0B2FE022D07D169036A
:10177000114800F0AAFEA9030F4800F0A8FE032DAF
:1017800009D14FF480410C4800F0A1FE4FF4004114
:10179000094800F09AFE042D07D12903064800F0FD
:1017A00094FE6903044800F090FEBDE8F08100005B
:1017B00000080140000C014000100140002103E03E
:1017C00000BF00BF00BF491C8142F9D370470146EA
:1017D00000BFFE48008810F0020FFAD0FB48001D41
:1017E000018000BFF948008810F0010FFAD0F748D7
:1017F000001D0088C0B2704770B50546002405E0A2
:10180000601CC4B2C82C01DD002070BD0221EF486D
:10181000083802F004FA0028F2D02946EB480838CC
:1018200002F0AAF9002405E0601CC4B2C82C01DD56
:101830000020EAE70121E548083802F0F0F9002825
:10184000F2D0E248083802F099F9C0B2DDE710B5ED
:101850000446DE48083800884FF6C7710840DB4967
:101860000839088008460088204308800121D748AD
:10187000083802F050F910BD00B587B001210C20E6
:1018800001F00EF80121880301F017F84FF46040D1
:10189000ADF8180018208DF81B0003208DF81A00F1
:1018A00006A9CB4800F066FD4FF48050ADF8180053
:1018B00010208DF81B0003208DF81A0006A9C448DB
:1018C00000F058FD4FF4C050ADF8180010208DF80E
:1018D0001B0003208DF81A0006A9BE4800F04AFD3F
:1018E0004FF4C051BB4800F0F2FD4FF47041B848CE
:1018F00000F0EBFD0020ADF804004FF48270ADF86D
:1019000006000020ADF80800ADF80A00ADF80C00A4
:101910004FF40070ADF80E003820ADF81000002034
:10192000ADF812000720ADF8140001A9A748083847
:1019300002F054F80121A548083802F0ECF8FF2025
:10194000FFF75AFF07B000BD10B502460B46A1488D
:101950001430006840F400609E49143108607E2015
:1019600000EA42042046FFF732FF1846FFF72FFF38
:1019700098481030006840F40060964910310860C3
:1019800010BD10B50246002492481430006840F49F
:1019900000609049143108607E2000EA420040F067
:1019A00080031846FFF713FF0020FFF710FF0446DF
:1019B00088481030006840F40060864910310860A3
:1019C000204610BD70B505460C4600262846FFF798
:1019D000D8FF064646EA04012846FFF7B5FF70BD6A
:1019E00010B51420FFF7CDFF044614F0030F03D108
:1019F00003211420FFF7E6FF10BD70B505460C4625
:101A000000262846FFF7BDFF064626EA04012846C1
:101A1000FFF79AFF70BD10B50446412C26D108216E
:101A20000846FFF7EAFF3D211120FFF78DFF8621D1
:101A30001720FFF789FF7F212620FFF785FF1E2152
:101A40002D20FFF781FF00212C20FFF77DFF8D2146
:101A50002A20FFF779FF3E212B20FFF775FF41F287
:101A60008830FFF7ABFEFFF7BBFF01E0012010BDA0
:101A70000020FCE700B503211420FFF7BEFF00BDE6
:101A800000B554481030006840F48050514910317E
:101A900008600220FFF792FE4E481430006840F4C0
:101AA00080504C49143108604FF4FA60FFF786FE0D
:101AB00048481030006840F48050464910310860B2
:101AC0004FF4FA60FFF77AFE0F210120FFF73CFF89
:101AD0004FF4FA60FFF772FE3D211120FFF734FF4B
:101AE0001E212D20FFF730FF00212C20FFF72CFFB7
:101AF0008D212A20FFF728FF3E212B20FFF724FF0E
:101B000040211520FFF720FF002000BD10B5FFF792
:101B1000B3FEFFF7B5FFFFF7ADFF4FF4FA60FFF735
:101B20004DFEFFF75DFF4120FFF775FF10BD00B5CB
:101B3000FFF7A6FFFFF79EFF4FF4FA60FFF73EFEA8
:101B4000FFF74EFF00BD2DE9FE4F06468846914641
:101B50009A46DDF830B002200290002001900090FB
:101B60000C2E06D00E2E09D11220019010200090CC
:101B700005E0772001903020009000E000BF00BF1A
:101B8000019840F080010220FFF7DEFE8021042052
:101B9000FFF733FF00210120FFF7D6FE80210A2046
:101BA000FFF710FF002506E018F805100920FFF7E1
:101BB000CBFE681C85B24D45F6DB31460120FFF7B0
:101BC000C3FE0C2E0AD180210D2005E0083800400C
:101BD000000C014000080140FFF7F4FE4FF41675B9
:101BE00000BF0420FFF7CDFE0446681E85B22DB16C
:101BF00014F0010F02D100980442F2D080210D2090
:101C0000FFF7FBFE002D37D00620FFF7BAFE10F0DD
:101C10001B0F2FD1002002900198204010F0010FDF
:101C200001D0012002900C2E26D10A20FFF7A9FE38
:101C300004460C20FFF7A5FE00F007072FB1601E39
:101C400007EBC0008BF8000003E0E006000E8BF805
:101C5000000004B90124122C00DD1224002506E046
:101C60000920FFF78EFE0AF80500681C85B2A54220
:101C7000F6DB01E00220029080210C20FFF7A2FE9B
:101C800000210120FFF760FE0298BDE8FE8F70B5CD
:101C900087B005460C4608210846FFF7AEFE07212F
:101CA0000D20FFF751FE03211420FFF78BFE8DF866
:101CB000045006A801AB012201A900900C20FFF7F7
:101CC00042FF064656B99DF81800102806D19DF827
:101CD000040020709DF80500607000E00226304688
:101CE00007B070BDF0B587B005460027082108464B
:101CF000FFF783FE00210D20FFF726FE80210E2036
:101D0000FFF77BFE93208DF8040020208DF805005E
:101D100006A801AB022201A900900C20FFF713FFD7
:101D2000064686B9002407E001A8005D285501A8F1
:101D3000005D4740601CC4B2042CF5DB01A8005DC7
:101D4000B84200D0022680210E20FFF73BFE30462D
:101D500007B0F0BD2DE9F04107468846154604213D
:101D60000520FFF74AFE00210120FFF7EDFD80214D
:101D70000A20FFF727FE002405E0395D0920FFF760
:101D8000E3FD601CC4B24445F7DB03210120FFF7EB
:101D9000DBFDFF2400BF0520FFF7F3FD0646601EB4
:101DA000C4B214B116F0040FF5D02220FFF7E9FDFC
:101DB00028702120FFF7E5FD6870BDE8F08170B55F
:101DC00087B0054693208DF8040070208DF805003B
:101DD00000208DF80A0000240BE0295D01AAA01C58
:101DE00011549DF80A00295D48408DF80A00601CD6
:101DF000C4B2042CF1DB0DF10B02072101A8FFF79F
:101E0000A9FF08210846FFF7F8FD06A801AB092243
:101E100001A900900C20FFF796FE06462EB99DF80A
:101E20001800182801D1002600E00226304607B02D
:101E300070BD2DE9F04387B006460F46904699469F
:101E40008DF804608DF80570002406E018F8041081
:101E500001AAA01C1154601CC4B2062CF6DB00249D
:101E600007E019F8041001AA04F108001154601CDD
:101E7000C4B2062CF5DB06A801AB0C2201A9009028
:101E80000E20FFF760FE05462DB90820FFF779FD0B
:101E900010F0080F00D10225284607B0BDE8F083F6
:101EA000F0B587B005460E4630208DF804008DF859
:101EB00005500DF10602022101A8FFF74BFF06A80D
:101EC00001AB042201A900900C20FFF73CFE07465D
:101ED0006FB99DF81800902809D1002404E001A8EA
:101EE000005D3055601CC4B2102CF8DB00E0022706
:101EF000384607B0F0BDF0B587B006460F46A020C3
:101F00008DF804008DF805600DF10602022101A88C
:101F1000FFF720FF06A801AB042201A900900C20C6
:101F2000FFF711FE05464DB99DF81800042805D1AC
:101F30009DF8040000F00F000A2800D0022515BB10
:101F4000002404E0385D01A90855601CC4B2102CBF
:101F5000F8DB05AA102101A8FFF7FCFE06A801ABDB
:101F6000122201A900900C20FFF7EDFD05464DB9A6
:101F70009DF81800042805D19DF8040000F00F001A
:101F80000A2800D00225284607B0F0BD10B587B05A
:101F900050208DF8040000208DF805000DF1060298
:101FA000022101A8FFF7D6FE06A801AB042201A971
:101FB00000900C20FFF7C7FD0446204607B010BD77
:101FC0002DE9F04187B007460E4690468DF8047023
:101FD0008DF805600DF10602022101A8FFF7BAFE97
:101FE00006A801AB042201A900900C20FFF7ABFD6D
:101FF00004464CB99DF81800042805D19DF804004A
:1020000000F00F000A2800D00224E4B9002505E002
:1020100018F8050001A94855681CC5B2102DF7DB5A
:1020200002AA042101A8FFF795FE0020069006A849
:1020300001AB062201A900900C20FFF784FD0446A5
:10204000022C00D00024FCB9B0208DF804008DF8DB
:1020500005600DF10602022101A8FFF77BFE06A82C
:1020600001AB042201A900900C20FFF76CFD04468F
:102070004CB99DF81800042805D19DF8040000F023
:102080000F000A2800D00224204607B0BDE8F081E6
:1020900070B587B005460E46C2208DF804008DF855
:1020A00005500DF10602022101A8FFF753FE06A814
:1020B00001AB042201A900900C20FFF744FD044667
:1020C0004CB99DF81800042805D19DF8040000F0D3
:1020D0000F000A2800D00224CCB900208DF804009B
:1020E0008DF805008DF806008DF8070002AA04217E
:1020F00001A8FFF72FFE06A801AB062201A9009058
:102100000C20FFF720FD0446022C00D0002414B15F
:10211000022007B070BDB0208DF804008DF8056076
:102120000DF10602022101A8FFF714FE06A801AB7B
:10213000042201A900900C20FFF705FD04464CB9CC
:102140009DF81800042805D19DF8040000F00F0048
:102150000A2800D002242046DBE7000030B5014603
:10216000B1F1807F01D3012030BD21F07F40401EBE
:102170004FF0E022506150170F22002806DA1301B9
:10218000224C00F00F052D1F635502E01301204C77
:10219000235400BF00204FF0E0229061072010611F
:1021A0001046006920F0030010610220DCE710B542
:1021B000184800681849B0FBF1F42046FFF7CEFF3D
:1021C000022803D1C101154800F07FF911480068C9
:1021D0001149B0FBF1F42046FFF7C0FF012801D1FF
:1021E00000BFFEE710BD01B50D490098086000BFB3
:1021F0000B4800680028FBD108BD0948006820B1E1
:1022000007480068401E06490860704718ED00E066
:1022100000E400E024430008A0860100000C014017
:102220009C00002008B54FF4E06001F03DFB1D204C
:102230008DF8000000208DF8010003208DF80200C9
:1022400001208DF80300684601F033FB08BD0EB590
:102250000121022000F031FB114800F041FD4FF454
:102260007A70ADF804004720ADF800000020ADF80A
:10227000020069460A4800F09EFD0121084801F06D
:10228000FBFA01221146064801F036F80121044804
:1022900001F017F80021022000F00FFB0EBD000036
:1022A0000004004010B50446C549601A8C422FD086
:1022B00009DCC448201810D0B0F5806F16D0B0F5F6
:1022C000006F4AD11BE0B0F5806F2AD0B0F5006FE7
:1022D00030D0B0F5406F40D135E00121042000F04E
:1022E000F9FA0021042000F0F5FA37E00121082076
:1022F00000F0F0FA0021082000F0ECFA2EE00121B5
:10230000102000F0E7FA0021102000F0E3FA25E0A9
:102310000121202000F0DEFA0021202000F0DAFA6E
:102320001CE00121402000F0D5FA0021402000F0FF
:10233000D1FA13E00121802000F0CCFA00218020A6
:1023400000F0C8FA0AE00121080200F0C3FA0021F7
:102350004FF4807000F0BEFA00E000BF00BF10BD77
:1023600010B50121084600F0B5FA0021012000F067
:10237000B1FA10BD2DE9F0410246002500260020EB
:1023800000230024002791F803C00CF00F0591F8FA
:1023900003C01CF0100F03D091F802C04CEA0505F1
:1023A00091F800C0BCF1000F31D0146800202BE080
:1023B0004FF0010C0CFA00F3B1F800C00CEA030670
:1023C0009E4220D183004FF00F0C0CFA03F7BC4360
:1023D00005FA03FC4CEA040491F803C0BCF1280F91
:1023E00006D14FF0010C0CFA00FCC2F814C00AE050
:1023F00091F803C0BCF1480F05D14FF0010C0CFA65
:1024000000FCC2F810C0401C0828D1D31460B1F8F9
:1024100000C0BCF1FF0F34DD546800202EE000F155
:10242000080C4FF0010808FA0CF3B1F800C00CEAF0
:1024300003069E4221D183004FF00F0C0CFA03F7E4
:10244000BC4305FA03FC4CEA040491F803C0BCF158
:10245000280F05D100F1080C08FA0CF8C2F8148016
:1024600091F803C0BCF1480F07D100F1080C4FF000
:10247000010808FA0CF8C2F81080401C0828CED3D6
:102480005460BDE8F0814FF6FF7101800221817038
:102490000421C17070470246002093680B4201D0AE
:1024A000012000E0002070470146886880B2704734
:1024B00002460020D3680B4201D0012000E000203A
:1024C00070470146C86880B270470161704741613A
:1024D00070470AB1016100E041617047C160704717
:1024E0004FF480320A43826181618261826982692C
:1024F000704702460020344B18684FF6807318402E
:1025000040EA02100843304B186070472F49C861F9
:102510007047F0B50A4600230024002100252A4E0A
:102520007168C0F3034583B200F44016B6F5401F4E
:1025300008D121F07061244E766826F07066224F33
:102540007E6012E000F48016B6F5801F06D10326E7
:1025500006FA05F4A14341F0706106E0460D36012C
:1025600003FA06F6B14341F0706122B1460D36011F
:1025700003FA06F63143144E7160F0BD30B5002207
:102580008B071C0F0F2303FA04F20F4B08338C1038
:1025900053F8243093430C4C08348D1044F8253004
:1025A00023468C1053F824308C07240F00FA04F4CF
:1025B0002343054C08348D1044F8253030BD00000D
:1025C0000014014000F8FEBF00000140000020425E
:1025D000DC48006840F00100DA49086008464068BD
:1025E000D9490840D749486008460068D74908409B
:1025F000D44908600846006820F480200860084636
:10260000406820F4FE004860002088607047CD4993
:10261000096821F48031CB4A11601146096821F420
:1026200080211160B0F5803F03D0B0F5802F0ED12E
:1026300006E0C449096841F48031C24A116007E0EC
:10264000C049096841F4A021BE4A116000E000BF02
:1026500000BF704710B501460022002300204A1138
:10266000012A02D1B74C236806E0022A02D1B54CF8
:10267000236A01E0B34C636A01F01F020124944015
:102680001C4201D0012000E0002010BD38B5002020
:1026900000900024002500BF3120FFF7DBFF054636
:1026A0000098401C00901DB90098B0F5A06FF3D1C0
:1026B0003120FFF7CFFF08B1012400E000242046BD
:1026C00038BD014600209F4A106820F0F80040EA1B
:1026D000C100106070479E490860704702460020A4
:1026E000984B586820F47C1042EA01031843954B3C
:1026F0005860704796490866704701460020914A25
:10270000506820F003000843506070478D484068CF
:1027100000F00C007047014600208A4A506820F003
:10272000F00008435060704701460020854A506819
:1027300020F4E06008435060704701460020814A61
:10274000506820F4605040EAC1005060704729B1E1
:102750007C4A527A02437B4B5A7204E0794A527A9D
:102760008243784B5A7270477A4908607047014635
:102770000020744A506820F440400843506070477D
:102780000021754A11706F4A82F82010012802D08A
:10279000042808D103E001216F4A117004E00521EB
:1027A0006D4A117000E000BF00BF70476B490860C0
:1027B00070476449096A0143624A11627047674978
:1027C00044390860704730B50021002200240023FE
:1027D0005C4D6D6805F00C0121B1042905D0082974
:1027E00023D105E05E4D056022E05D4D05601FE0F0
:1027F000544D6D6805F47012022505EB9242514D5F
:102800006D6805F480341CB9564D554305600BE0E6
:102810004C4D6D6815F4003F03D0524D5543056093
:1028200002E04F4D5543056002E04D4D056000BF8D
:1028300000BF444D6D6805F0F00109094A4D6B5C1D
:102840000568DD4045603F4D6D6805F4E061090AAB
:10285000454D6B5C4568DD4085603A4D6D6805F41B
:102860006051C90A404D6B5C4568DD40C560354D1F
:102870006D6805F44041890B3C4D6B5CC568B5FB48
:10288000F3F5056130BD29B12E4A526902432D4B43
:102890005A6104E02B4A526982432A4B5A617047BD
:1028A00029B1284A92690243264B9A6104E0254ADD
:1028B00092698243234B9A61704729B1214AD269B8
:1028C0000243204BDA6104E01E4AD26982431D4B69
:1028D000DA61704729B11B4AD2680243194BDA60AA
:1028E00004E0184AD2688243164BDA60704729B177
:1028F000144A12690243134B1A6104E0114A126927
:102900008243104B1A617047144940390860704780
:102910000F49C86470470B49C87170470948406A3D
:1029200040F0807007494862704701460020054A20
:1029300092680A4201D0012000E00020704701495E
:1029400088727047001002400000FFF8FFFFF6FE9B
:1029500000004242D800424220100240800442421D
:1029600000127A0000093D00A0000020B000002005
:1029700010B50446D749601A8C422BD006DCD648E5
:10298000201813D0B0F5806F38D119E0B0F5806F02
:102990002AD0B0F56C4F31D101218803FFF79AFF9F
:1029A00000214FF48040FFF795FF28E00121480403
:1029B000FFF79DFF00214FF40030FFF798FF1EE066
:1029C00001218804FFF793FF00214FF48020FFF7D7
:1029D0008EFF14E00121C804FFF789FF00214FF4A6
:1029E0000020FFF784FF0AE001210805FFF77FFFC1
:1029F00000214FF48010FFF77AFF00E000BF00BF16
:102A000010BD2DE9F04786B005460E460024A246CB
:102A100000BF00BF00272F462C8A4CF6FF700440F1
:102A2000F08804432C82AC894EF6F3100440B08841
:102A300031890843718908430443AC81AC8A4FF65D
:102A4000FF400440B0890443AC8201A8FFF7BBFEFD
:102A5000A248874202D1DDF810A001E0DDF80CA009
:102A60000AEBCA0000EB0A1031688900B0FBF1F8EC
:102A70006420B8FBF0F004012009642101FB1089F7
:102A8000322000EB0910B0FBF1F000F00F0004431E
:102A90002C8106B0BDE8F0874FF41651016000218B
:102AA0008180C18001810C21418100218181704799
:102AB00010B502460020108A4FF2FF0318400B8821
:102AC0004C8823438C882343CC88234318431082AB
:102AD00010BD0021018041808180C180704721B1FB
:102AE000828942F40052828104E082894DF6FF73AC
:102AF0001A4082817047F0B5034600240026002565
:102B000000201846C1F3421401F01F06012707FAFE
:102B100006F5012C01D10C3004E0022C01D110305B
:102B200000E014301AB107682F43076002E007681D
:102B3000AF430760F0BD1AB1838A0B43838202E082
:102B4000838A8B4383827047028A4FF6F0731A4060
:102B50000282028A0A430282704782894FF2FF731F
:102B60001A40828182890A438281704721B1828919
:102B700042F00202828104E082894FF6FD731A401E
:102B800082817047028A4FF6DF731A400282028AFE
:102B90000A430282704721B1028A42F480420282D3
:102BA00004E0028A4BF6FF731A4002827047C1F3B9
:102BB00008028280704701468888C0F30800704789
:102BC000818941F0010181817047028BD2B2028379
:102BD000028B42EA012202837047028B02F47F4299
:102BE0000283028B0A430283704721B1828A42F03A
:102BF0002002828204E0828A4FF6DF731A408282CA
:102C0000704721B1828A42F01002828204E0828AF7
:102C10004FF6EF731A408282704721B1828A42F0E8
:102C20000802828204E0828A4FF6F7731A40828299
:102C30007047828A4FF6FB731A408282828A0A4367
:102C40008282704721B1828A42F00202828204E0CD
:102C5000828A4FF6FD731A40828270470246002036
:102C600013880B4201D0012000E000207047CA43C6
:102C70000280704770B502460B46002400210025F3
:102C80000020C3F3421503F01F01012606FA01F1EB
:102C9000012D02D19689314006E0022D02D1168A1B
:102CA000314001E0968A31401C12012606FA04F4F4
:102CB0001688344011B10CB1012000E0002070BD35
:102CC00010B5002200230A1201249440A3B2DC4371
:102CD000048010BD004C004000BCFFBF0038014024
:102CE00010B50446F749601A8C4245D00CDCB4F1AB
:102CF000804F1DD0F448201823D0B0F5806F29D024
:102D0000B0F5006F54D12EE0B0F5806F3DD0B0F536
:102D10008E3F03D0B0F5923F4AD13FE00121C80277
:102D2000FFF7D8FD00214FF40060FFF7D3FD40E02E
:102D300001210846FFF7DBFD00210120FFF7D7FD49
:102D400037E001210220FFF7D2FD00210220FFF72A
:102D5000CEFD2EE001210420FFF7C9FD0021042053
:102D6000FFF7C5FD25E001210820FFF7C0FD002188
:102D70000820FFF7BCFD1CE001211020FFF7B7FD84
:102D800000211020FFF7B3FD13E001212020FFF701
:102D9000AEFD00212020FFF7AAFD0AE00121480333
:102DA000FFF798FD00214FF40050FFF793FD00E07E
:102DB00000BF00BF10BD028802F08F020280CA88E7
:102DC0004B881A4303881A4302808A8882850A88BE
:102DD0000285BE4A904202D0BD4A904201D10A7A91
:102DE000028601228282704770B5002400220023EF
:102DF000058C4FF6FE7635400584028C8388048B63
:102E00004FF68F752C400D882C43751E2A400D8976
:102E10002A434D882A43CD888586AC4DA84202D0EE
:102E2000AB4DA84213D14FF6F7752A404D892A437E
:102E30004FF6FB752A408D882A4347F6FF652B40E5
:102E400047F6FF552B408D892B43CD892B4383803B
:102E50000483028470BD70B5002400220023058C19
:102E60004FF6EF7635400584028C8388048B48F654
:102E7000FF752C400D884FF6FF7606EA05252C439A
:102E80004FF6DF752A400D8906EA05152A434D885D
:102E900006EA05152A43CD8805878C4DA84202D045
:102EA0008B4DA8421DD14FF67F752A404D894FF6B4
:102EB000FF7606EA05152A434FF6BF752A408D882E
:102EC00006EA05152A4347F6FF352B4047F2FF7502
:102ED0002B408D8906EA85052B43CD8906EA8505B9
:102EE0002B4383800483028470BD70B500240022CC
:102EF0000023058C4FF6FF6635400584028C8388DD
:102F0000848B4FF68F752C400D882C434FF6FF5560
:102F10002A400D894FF6FF7606EA05252A434D889B
:102F200006EA05252A43CD888587684DA84202D048
:102F3000674DA8421DD14FF2FF752A404D894FF6CB
:102F4000FF7606EA05252A434FF6FF352A408D888D
:102F500006EA05252A4346F6FF752B4045F6FF7520
:102F60002B408D8906EA05152B43CD8906EA051508
:102F70002B4383808483028470BD70B500240022BB
:102F80000023058C4EF6FF7635400584028C83883D
:102F9000848B48F6FF752C400D884FF6FF7606EAC5
:102FA00005252C434DF6FF752A400D8906EA0535A7
:102FB0002A434D8806EA05352A43CD88A0F84050BB
:102FC000424DA84202D0424DA84207D1C3F30D039F
:102FD0008D894FF6FF7606EA85152B43838084831F
:102FE000028470BD828B4FF2FF331A408283828B42
:102FF0004FF6FF7303EA01231A4382837047F0B54B
:103000000C461546002100220026078C4EF6FF7C58
:1030100007EA0C070784818B028C4FF6FF7707EADB
:10302000043640F6FF4739404FF6FF7707EA052799
:103030004FF6FF7C0CEA033C47EA0C0739434DF698
:10304000FF773A4046F480573A4381830284F0BDCB
:10305000828B4FF6F3731A408283828B0A438283FA
:103060007047F0B50C461546002100220026078C5B
:103070004FF6FF6C07EA0C070784818B028C4FF632
:10308000FF7707EA04264FF60C7739404FF6FF77B3
:1030900007EA03172F4339434FF6FF573A4046F4E8
:1030A00080773A4381830284F0BD028B4FF2FF3375
:1030B0001A400283028B4FF6FF7303EA01231A437F
:1030C000028370470010004000FCFFBF002C01404D
:1030D00000340140F0B50C461546002100220026C0
:1030E000078C4FF6EF7C07EA0C070784018B028CF4
:1030F0004FF6FF7707EA041640F6FF4739404FF6D0
:10310000FF7707EA033739434FF6FF7707EA0527CA
:1031100039434FF6DF773A4046F010073A430183D0
:103120000284F0BD028B4FF6F3731A400283028BC8
:103130000A4302837047F0B50C4615460021002271
:10314000068C4FF6FE773E400684018B028C4FF6CC
:103150000C7631407E1C06EA03162E4331437E1E58
:10316000324044F00106324301830284F0BD70B561
:1031700005460C46208850B92389A28861882846D4
:10318000FFF7D9FFE1882846FFF7CCFF25E020882C
:1031900004280AD12389A28861882846FFF79AFF6C
:1031A000E1882846FFF781FF17E0208808280AD128
:1031B0002389A28861882846FFF753FFE1882846C3
:1031C000FFF746FF09E02389A28861882846FFF7B8
:1031D00016FFE1882846FFF705FF70BD2DE9F04195
:1031E00005460C4600260127608808B9022600E043
:1031F0000026A088012801D1022700E001272088AD
:10320000A0B92389A28861882846FFF794FFE18846
:103210002846FFF787FF23893A4631462846FFF7BD
:1032200059FFE1882846FFF740FF13E02389A28871
:1032300061882846FFF74EFFE1882846FFF735FFF3
:1032400023893A4631462846FFF775FFE18828462C
:10325000FFF768FFBDE8F0810A884B881A438B8826
:103260001A43CB881A430B891A434B891A438B891B
:103270001A43A0F8442070474FF6FF718180002167
:103280000180C1804180017270470021018041802E
:103290008180C180018141818181C181704700218C
:1032A00001804180012181800021C180018170471E
:1032B0000021018041808180C18001814181818123
:1032C000704721B1028842F00102028004E00288C6
:1032D00040F2FE331A400280704731B1B0F844200A
:1032E00042F40042A0F8442005E0B0F84420C2F3C4
:1032F0000E02A0F8442070471AB183890B438381E2
:1033000002E083898B43838170478182704741EA61
:103310000203A0F8483070471AB183890B438381B8
:1033200002E083898B438381704701894FF6F872ED
:103330001140018170470A46002101894FF68F73C1
:10334000194011430181704730B504460D462946A6
:103350002046FFF7F0FF208940F00700208130BDB4
:103360002DE9F04104460D4616461F46602D06D154
:103370003B46012231462046FFF7ACFE05E03B46C6
:10338000012231462046FFF7D6FE29462046FFF7A8
:10339000D2FF208940F007002081BDE8F08170B5A0
:1033A0000C4600210189C9B244EA02054FF6FF76B6
:1033B00006EA032635432943018170BD2DE9F0411A
:1033C00005460E4617469846002443463A4631467F
:1033D0002846FFF7E4FF2C894FF6F870044044F0CC
:1033E00007044FF68F70044044F070042C81BDE850
:1033F000F081F0B504460D4616461F463B46324660
:1034000029462046FFF7CBFF208940F480402081E9
:10341000F0BD0185828270470A460021018840F292
:103420008F331940114301807047F0B50C461546A3
:103430001E460021002200230189028B038C4FF6D7
:10344000F877394021434FF6FC473A4040F20117E4
:103450003A434FF6DD773B404FF6FF7707EA061712
:103460002F433B43018102830384F0BD0A460021C0
:10347000018B4FF68F7319401143018370470A4641
:103480000021018B48F6FF7319404FF6FF7303EAE2
:1034900002231943018370470A460021818B4FF6AE
:1034A0008F7319401143818370470A460021818B35
:1034B00048F6FF7319404FF6FF7303EA02231943DE
:1034C0008183704721B1028842F08002028004E0CB
:1034D000028840F27F331A400280704721B182880F
:1034E00042F00402828004E082884FF6FB731A40A7
:1034F0008280704721B1828842F00802828004E015
:1035000082884FF6F7731A408280704721B1828813
:1035100042F00102828004E082884FF6FE731A4076
:10352000828070470A460021018B4FF6F7731940DD
:103530001143018370470A460021018B4FF2FF734C
:1035400019404FF6FF7303EA0223194301837047C2
:103550000A460021818B4FF6F7731940114381838E
:1035600070470A460021818B4FF2FF7319404FF6D6
:10357000FF7303EA02231943818370470A4600213F
:10358000018B4FF6FB7319401143018370470A46C4
:103590000021018B4FF6FF3319404FF6FF7303EA0A
:1035A00002231943018370470A460021818B4FF69D
:1035B000FB7319401143818370470A460021818BB8
:1035C0004FF6FF3319404FF6FF7303EA0223194306
:1035D000818370470A460021018B4FF67F731940A3
:1035E0001143018370470A460021018BC1F30E018C
:1035F0004FF6FF7303EA02231943018370470A461B
:103600000021818B4FF67F731940114381837047EE
:103610000A460021818BC1F30E014FF6FF7303EAC6
:1036200002231943818370470A460021018C4FF61B
:10363000FD7319401143018470470A460021018C33
:103640004FF6F77319401143018470470A46002171
:10365000018C4FF6DF7319404FF6FF7303EA021334
:103660001943018470470A460021018C4FF67F738D
:1036700019404FF6FF7303EA0213194301847047A0
:103680000A460021018C4FF6FF5319404FF6FF7395
:1036900003EA02231943018470470A460021018C82
:1036A0004FF2FF7319404FF6FF7303EA02231943E9
:1036B000018470470A460021018C4DF6FF731940C2
:1036C0004FF6FF7303EA023319430184704710B5C4
:1036D000038C01248C40A3430384038C02FA01F47D
:1036E000A4B22343038410BD10B5038C04248C4082
:1036F000A3430384038C02FA01F4A4B2234303849A
:1037000010BD30B5038C01248C40A343038409B160
:10371000082918D100F1180303EB61031B684FF669
:103720008F74234000F1180404EB6104236000F15E
:10373000180303EB61031B68134300F1180404EB47
:10374000610423601FE00B1FC3F34E0400F1180354
:103750001B5948F6FF7423400C1FC4F34E0500F1BB
:10376000180463510B1FC3F34E0400F118031B59D7
:103770004FF6FF7404EA022423430C1FC4F34E05E2
:1037800000F11804635130BD21B1028842F00202F9
:10379000028004E0028840F2FD331A400280704744
:1037A00021B1028842F00402028004E0028840F263
:1037B000FB331A400280704721B1828842F08002B8
:1037C000828004E082884FF67F731A4082807047BF
:1037D000028840F2F7331A40028002880A430280CE
:1037E000704782884FF68F731A40828082880A431E
:1037F0008280704702894FF6F8731A40028102896D
:103800000A430281704702894FF67F731A40028192
:1038100002890A430281704781847047818570471D
:10382000818670470187704781877047A0F84010F4
:1038300070470288D2B2028002880A430280704731
:103840000146888E70470146088F70470146888F71
:1038500070470146B1F8400070470146888C7047B8
:103860000146088D704702460020138A0B4201D0A2
:10387000012000E000207047CA430282704730B543
:103880000246002000230024158A05EA01039589D9
:1038900005EA010413B10CB1012000E0002030BDA5
:1038A000CA4302827047000031490143314A116026
:1038B000704770B5002100230F22C4780CB32D4C43
:1038C000246804F4E064C4F5E064210AC1F104034F
:1038D000CA40447804FA03F1847814402143090172
:1038E000254C0678A155047804F01F050124AC404E
:1038F00005786D114FF0E02606EB8505C5F800410F
:1039000009E0047804F01F050124AC401B4D067843
:10391000761145F8264070BD194A0A400243154BFE
:103920001B1F1A60704739B1124A121D12680243F8
:10393000104B1B1D1A6006E00E4A121D12688243CE
:103940000C4B1B1D1A607047042808D14FF0E02172
:10395000096941F004014FF0E022116107E04FF0E6
:10396000E021096921F004014FF0E0221161704764
:103970000000FA050CED00E000E400E080E100E06A
:1039800080FFFF1F10B50446BD4820180FD0B0F5CA
:10399000806F16D0B0F5784F1DD101210803FEF7D6
:1039A00099FF00214FF48050FEF794FF14E00121AD
:1039B0008803FEF79CFF00214FF48040FEF797FF3D
:1039C0000AE00121C803FEF792FF00214FF40040F6
:1039D000FEF78DFF00E000BF00BF10BD10B5002254
:1039E000028802F441520B884C8823438C8823437D
:1039F000CC8823430C8923434C8923438C8923435C
:103A0000CC8923431A430280838B4FF2FF742340F7
:103A100083830B8A038210BD2DE9F04786B00546EB
:103A20000C464FF0000902274FF000084FF0010A42
:103A30000026A88B4FF240010840A883022028846A
:103A4000B5F81C902089022801D100BF31E0A08880
:103A500010B94FF0010A01E04FF0020A01A8FEF789
:103A6000B2FEE088B0F5007F0AD1019800EB80003B
:103A7000400021890902B0FBF1F0401D86B20BE045
:103A80004FEA4A1021894843019901EB810149001D
:103A9000B1FBF0F0401D86B20A20B6FBF0F606F04E
:103AA0000108A6EB0800C0F34F074FF6FF7000EACD
:103AB0000828022F01DBFF2F02DD02274FF000084C
:103AC00047EA0800E18808432884208840F4006021
:103AD00061880843A18808436189084340EA0909CD
:103AE000A5F81C9006B0BDE8F08700210180418058
:103AF0008180C180018141818181C1810721018251
:103B000070470021018041808180C18002210181B4
:103B100000214181704721B1028842F040020280B9
:103B200004E002884FF6BF731A400280704721B14B
:103B3000828B42F48062828304E0828B4FF6FF33F3
:103B40001A408283704730B5002400230C110125F0
:103B5000A540ABB21AB185881D43858002E08588F7
:103B60009D43858030BD1AB183880B43838002E07A
:103B700083888B43838070478181704701468889A1
:103B80007047A1F57E42FF3A04D0028842F4807269
:103B9000028004E002884FF6FF631A4002807047FB
:103BA00021B1828842F00402828004E082884FF6CC
:103BB000FB731A408280704702884FF2FF731A40ED
:103BC000028002880A4302807047018841F48051D4
:103BD0000180704721B1028842F40052028004E063
:103BE00002884DF6FF731A4002807047024600209B
:103BF000012901D0108B00E0908A70470146088AA5
:103C00007047B1F5804F04D1028842F480420280AF
:103C100004E002884BF6FF731A40028070470246A8
:103C2000002013890B4201D0012000E000207047E2
:103C3000CA4302817047F0B50246002000240023E9
:103C4000002501F00F070126BE40B4B20B1101267A
:103C50009E40B3B2968806EA03051689264202D032
:103C60000DB1012000E00020F0BD10B5002201F0F0
:103C70000F040123A3409AB2D343038110BD000077
:103C800000C8FFBF0CB500200190009047480068B5
:103C900040F480304549086000BF4448006800F4A3
:103CA000003000900198401C0190009818B90198CC
:103CB000B0F5A06FF1D13D48006810F4003F02D08C
:103CC0000120009001E0002000900098012843D1DD
:103CD0003748006840F01000354908600846006821
:103CE00020F0030008600846006840F00200086009
:103CF0002E4840682D49486008464068486008469C
:103D0000406840F4806048600846406820F47C10B9
:103D100048600846406840F4E8104860084600687B
:103D200040F08070086000BF2048006810F0007FFD
:103D3000FAD01E48406820F003001C49486008463D
:103D4000406840F00200486000BF1848406800F03A
:103D50000C000828F9D101E000BFFEE70CBD10B54A
:103D6000FFF790FF10BD10B51048006840F001004B
:103D70000E490860084640680E4908400B494860F3
:103D8000084600680C490840084908600846006871
:103D900020F4802008600846406820F4FE00486057
:103DA00000208860FFF7DBFF10BD0000001002401C
:103DB000002002400000FFF8FFFFF6FE2DE9F05F53
:103DC0000546002092469B4688460646814640248A
:103DD0001BE0284641464746224600F042F853463B
:103DE0005A46C01A914110D311461846224600F097
:103DF00029F82D1A67EB01084F46224601200021C1
:103E000000F020F817EB00094E41201EA4F1010438
:103E1000DFDC484631462A464346BDE8F09F0000B5
:103E2000064C074D06E0E06840F0010394E8070007
:103E300098471034AC42F6D3FCF77EF938430008BB
:103E400058430008202A04DB203A00FA02F100203F
:103E500070479140C2F1200320FA03F319439040C8
:103E60007047202A04DB203A21FA02F00021704733
:103E700021FA02F3D040C2F12002914008431946D2
:103E8000704700000FB4054B10B503A9044A02980F
:103E900000F018F810BC5DF814FB00004312000895
:103EA000B400002002E008C8121F08C1002AFAD19D
:103EB00070477047002001E001C1121F002AFBD1AA
:103EC000704700002DE9FF4F8DB00F4605460026D4
:103ED000DEE1252874D100246D1CF149A246A146DB
:103EE00001222B78203B02FA03F0084202D004435F
:103EF0006D1CF6E728782A2810D06FF02F0228785A
:103F0000A0F13001092915D80AEB8A0102EB410121
:103F100044F0020400EB010A6D1CF0E757F804AB13
:103F2000BAF1000F03DA44F40054CAF1000A44F075
:103F300002046D1C28782E2817D115F8010F44F0C3
:103F400004042A280ED06FF02F022878A0F1300147
:103F500009290AD809EB890102EB410100EB0109AB
:103F60006D1CF2E757F8049B6D1C28786C280FD065
:103F700006DC4C2817D068280DD06A2814D104E03C
:103F8000742810D07A280FD10DE044F400140AE010
:103F900044F4801401E044F440146978814202D171
:103FA0006D1C04F580146D1C2A786E2A20D00DDC5F
:103FB000632A33D005DC002A6FD0582A12D1A2E040
:103FC00011E0642A6AD0692A0CD167E0732A2FD0E5
:103FD00004DC6F2A6FD0702A04D199E0752A6BD067
:103FE000782A6AD01046DDE90F129047761C4EE120
:103FF000C4F30250022806D003280AD0042801CFB7
:104000000AD0066043E101CF4FEAE671C0E90061E2
:104010003DE101CF06803AE1067038E117F8040B64
:104020008DF8000000208DF80100EB46012003E030
:1040300057F804BB4FF0FF3061074FF0000102D486
:104040000DE008F10101884649450FDA8045F8DBAB
:104050001BF808100029F4D108E008F10101884696
:104060008142FADB1BF808100029F6D1DDE90F23A5
:10407000AAEB08008146214600F03BF9304400EBF2
:10408000080604E0DDE90F121BF8010B9047B8F1B8
:104090000108F7D221464846F4E0FDE00A21C4F3C6
:1040A00002534FF0000B0891022B07D001CFC1172C
:1040B000032B09D00AE034E023E024E0FF1D27F0C1
:1040C0000707F7E8020105E000B2C117042B01D190
:1040D00040B2C117002907DA4FF0000CD0EB0C00FA
:1040E0006CEB01012D2302E0230504D52B238DF871
:1040F0002430012303E0E30701D02023F7E79846AB
:1041000050E00A210EE010204FF0000B08900CE068
:1041100010214FF0000B44F004044FF008090891FF
:1041200003E008214FF0000B0891C4F30253022B67
:1041300004D001CF0021032B06D006E0FF1D27F09D
:104140000707F7E8020103E080B2042B00D1C0B2F8
:104150004FF00008230725D5702A2AD0DDF820C0AB
:104160008CF0100C5CEA0B0C09D150EA010306D06C
:1041700030238DF824308DF8252002239846DDF871
:1041800020C08CF0080C5CEA0B0C0BD150EA010348
:1041900001D1630706D530238DF824304FF0010894
:1041A000A9F10109582A09D03EA20B9208AA0A9245
:1041B00011E040238DF824300123DFE73EA2F4E72D
:1041C0005B46089AFFF7FAFD0B9B9B5C0A9AA2F1EB
:1041D00001020A92137050EA0102F1D10A98ADEB84
:1041E000000000F1200B600702D524F4803401E0C8
:1041F0004FF00109D94502DDA9EB0B0000E00020DA
:1042000000EB0B0141440890AAEB010AE00306D43D
:10421000DDE90F232146504600F06BF806440020EC
:1042200008E009A911F80900DDE90F129047761C92
:1042300009F1010081464045F3DBE0030CD5DDE9DF
:104240000F232146504600F054F8064404E0DDE90F
:104250000F1230209047761C0899481E08900029BC
:10426000F5DC08E00A980A990078491C0A91DDE912
:104270000F129047761CBBF10001ABF1010BF1DC92
:1042800021465046DDE90F2300F020F806446D1C5E
:10429000287800287FF41DAE11B03046BDE8F08FBD
:1042A000092801003031323334353637383961620C
:1042B00063646566000000003031323334353637D0
:1042C0003839414243444546000000002DE9F041A1
:1042D000044600251E461746880405D406E03946E4
:1042E0002020B04705F10105641EF8D52846BDE839
:1042F000F0812DE9F041044600251E469046C80392
:1043000001D5302700E02027880405D506E0414686
:104310003846B04705F10105641EF8D52846BDE8CA
:10432000F081000000A24A0400A24A0400A24A044C
:104330000051250200A24A04584300080000002052
:10434000B8000000A43E000810440008B800002097
:10435000A8020000B43E0008000000000000FF07B3
:104360008029FFFFFFFFFF0AFFFFFFFFFFFF415410
:104370002B43495053544152543D22544350222C14
:104380002231302E302E312E3137222C38300D0A8A
:1043900041542B4349504D4F44453D310D0A415442
:1043A0002B43495053454E440D0A000000000000C5
:1043B00000000000000000000000000000000000FD
:1043C00000000000A0860100F0490200400D03003B
:1043D000A086010000000000000000000000500066
:1043E00000000000000000000000000000000000CD
:1043F00000000000000000000000000001020304B3
:104400000102030406070809020406080000000070
:0400000508000147A7
:00000001FF
