:020000040800F2
:100000000004002047010008CD0B0008CF0B0008BA
:10001000D30B0008D70B0008DB0B00080000000022
:10002000000000000000000000000000DF0B0008DE
:10003000E10B000800000000E30B0008E50B0008DE
:1000400067010008670100086701000867010008F0
:1000500067010008670100086701000867010008E0
:1000600067010008670100086701000867010008D0
:1000700067010008670100086701000867010008C0
:1000800067010008670100086701000867010008B0
:1000900067010008670100086701000867010008A0
:1000A0006701000867010008670100086701000890
:1000B00067010008590F0008670100086701000880
:1000C0006701000867010008670100086701000870
:1000D00067010008470C0008670100086701000875
:1000E0006701000867010008670100086701000850
:1000F0006701000867010008670100086701000840
:10010000670100086701000867010008670100082F
:10011000670100086701000867010008670100081F
:10012000670100086701000867010008670100080F
:10013000DFF80CD003F0B0FD00480047ED070008E1
:1001400080030020704708488047084981F30888E9
:1001500007480047FEE7FEE7FEE7FEE7FEE7FEE7AB
:10016000FEE7FEE7FEE7FEE745010008800300200A
:1001700031010008002107E0002200E0521C42F695
:10018000E0639A42FAD3491C8142F5D3704710B517
:100190000121042002F0C0FA0121084602F0BCFA55
:1001A000FD48406840F40050FB49486008464068FC
:1001B00020F48040486010BD10B50121042002F0F9
:1001C000ABFA0121082002F0A7FA0121084602F04B
:1001D000A3FA0121F14802F0D8F810BD10B50224AD
:1001E0001021EF4802F093F8EE4908702021EC4806
:1001F00002F08DF8EC490870E101E94802F087F857
:10020000EA4908702102EA4802F081F8E9490870D9
:100210004021E74802F07BF8E74908708021E44874
:1002200002F075F8E54908701021E14802F06FF816
:10023000E3490870DB48007870B9DB48007858B9AA
:10024000DA48007840B9DB48007828B9DA48007805
:1002500010B93C20DB490880D248007860B1D24810
:10026000007848B1D148007830B1D248007818B150
:10027000D148007800B10124CA48007860B1CA486A
:10028000007848B1C948007830B9CA48007818B138
:10029000C948007800B10224C248007860B1C24861
:1002A000007848B9C148007830B9C248007818B918
:1002B000C148007800B10224BA48007860B1BA4859
:1002C000007848B9B948007830B9BA48007818B110
:1002D000B948007800B10224B248007860B9B24849
:1002E000007848B9B148007830B1B248007818B108
:1002F000B148007800B10424AA48007860B1AA4847
:10030000007848B9A948007830B1AA48007818B1F7
:10031000A948007800B10424A248007860B9A24836
:10032000007848B1A148007830B1A248007818B1EF
:10033000A148007800B105249A48007860B99A482D
:10034000007848B99948007830B99A48007818B1CF
:100350009948007800B105249248007860B192482D
:10036000007848B19148007830B99248007818B9BF
:100370009148007800B102248A48007860B18A4828
:10038000007848B18948007830B18A48007818B9B7
:100390008948007800B907248248007860B1824813
:1003A000007848B18148007830B18248007818B9A7
:1003B0008148007800B107247A48007860B17A4813
:1003C000007848B17948007830B17A48007818B19F
:1003D0007948007800B908247248007860B1724802
:1003E000007848B17148007830B97248007818B97F
:1003F0007148007800B908247148007800B10924D8
:100400006E48007800B10A24204610BD10B504469D
:10041000012C0FD18102664801F095FF0421644848
:1004200001F091FFE102624801F08BFFE1035C48BB
:1004300001F087FF022C0FD1A1025D4801F083FF7C
:10044000A103574801F07FFF6102594801F079FF8D
:100450000421574801F075FF94B94FF48061544866
:1004600001F06FFF4FF40061514801F06AFF4FF453
:1004700000414B4801F065FF04214D4801F061FF48
:1004800010BD10B55048007802280DD1C101484870
:1004900001F059FF0120FFF7B9FF4CA003F02EFC3B
:1004A0000020494908701AE047480078032809D11C
:1004B0000220FFF7ABFF4AA003F020FC00204249D6
:1004C00008700CE040480078042808D10020FFF7AD
:1004D0009DFF48A003F012FC00203B49087010BDAE
:1004E00010B54948007801281FD14848C07B012831
:1004F0001BD14648807B662817D14448407B77282B
:1005000013D14248007B88280FD14048C07A9928EF
:100510000BD10220FFF77AFF41F28830FFF72AFE65
:10052000002039490870FFF771FF3748007802282A
:100530001FD13648C07B02281BD13448807B6628F7
:1005400017D13248407B772813D13048007B882868
:100550000FD12E48C07A99280BD10120FFF756FF02
:1005600041F28830FFF706FE002027490870FFF7A8
:100570004DFF10BD70B58EB008260825F01E062868
:100580007DD2DFE800F04F57626BC2032049522052
:1005900001F0BDFA04463DE00000014000023000D9
:1005A00000080140B4000020B5000020B600002083
:1005B000000C0140B7000020B8000020B900002066
:1005C000BA000020AE000020840000200A20456E02
:1005D000636F6D70617373323120200A0000000078
:1005E0000A20456E636F6D70617373323220200A8A
:1005F000000000000A20456E636F6D7061737332F6
:100600003420200A000000007C000020F0000020C0
:10061000DC0000202CB903260224FE4801F0A2FAD7
:10062000044600BF2CB904260224FA4801F007FB57
:10063000044600BF44B905260224F64BF64A0921B8
:10064000602001F036FB044600BF34B906260224C0
:10065000F249284601F064FB044600BF002C53D148
:10066000EF48007800284AD0EC48C07BEB49897BF2
:10067000EA4A527BE94B1B7BCDE90A3200E046E0B7
:10068000CDE90C10E548C07AE449897AE34A527A08
:10069000E24B1B7ACDE90632CDE90810DF48C1797B
:1006A00082794079DD4B1B79CDE90230CDE9042117
:1006B000DA48C078D9498978CDE90010D74843781D
:1006C00002782946D74803F019FB042301220021B0
:1006D000900700F07DFE042302220021500700F065
:1006E000C2FE042303220021180700F007FF0423A1
:1006F0001A460021180700F04DFFFFF7F1FE5020C9
:10070000C94908800726022400BF082600BF082622
:100710000EB070BD10B5C5480078B8B900240CE023
:10072000C348015DC34802F07EF900BFC14800889C
:1007300010F0800FFAD0601CC4B2222CF0DB012034
:10074000BA4908704FF47A70FFF714FDB748007883
:10075000022817D100240CE0B748015DB54802F02B
:1007600062F900BFB348008810F0800FFAD0601C17
:10077000C4B20E2CF0DB0320AC4908704FF47A7041
:10078000FFF7F8FCA9480078042817D100240CE0F2
:10079000AA48015DA74802F046F900BFA5480088B5
:1007A00010F0800FFAD0601CC4B20C2CF0DB0520D6
:1007B0009E4908704FF47A70FFF7DCFC9B48007884
:1007C000062806D10720994908704FF47A70FFF780
:1007D000D1FC96480078072807D108209349087073
:1007E0000120974908709749087010BD00BF00BFED
:1007F000FFF7CDFCFFF7E0FC00F03CFD03F0EFF964
:1008000000F026FC00F09AFC00F0B1FC00F0D5FCF2
:1008100000F05AFD00F072FD00F07FFD00F0C2FD17
:1008200000F037FD00F06CFC962087490860084610
:100830000068C0F5FA6085490860002084490870A6
:1008400001F0F0FB4FF48071824801F07AFD002046
:10085000FFF7DCFD012240F22551764802F087F8CF
:1008600001F01CFC01F02FFC01F090F841F28830FF
:10087000FFF780FCA2E17248007808B9FFF74AFF51
:1008800097E100F02DFCFFF775FEFFF7FAFDFFF78B
:10089000A5FC714908707148007810B108460078CD
:1008A000B8B901231A460021980700F091FD0123F1
:1008B00002220021500700F0D6FD0123032200216F
:1008C000980700F01BFE012304220021100700F00E
:1008D00061FE62480078012803D05F480078012853
:1008E0001CD10323012250480188900700F070FDBD
:1008F000032302224C480188500700F0B4FD032373
:100900001A46494801884FF0804000F0F7FD032364
:10091000042245480188100700F03CFE4F4800784B
:10092000022803D04C48007802281BD10223012260
:100930003D480188900700F04BFD02231A463A48D3
:100940000188580700F08FFD0223032236480188F2
:10095000580700F0D3FD0223042233480188100712
:1009600000F018FE3D480078032803D03A4800788C
:10097000032817D1022301225021880600F028FD08
:10098000032302225021880600F06DFD022303227A
:100990005021880600F0B2FD03230422502188066E
:1009A00000F0F8FD2D480078042803D02A4800788C
:1009B000042817D1022301225021880600F008FDE7
:1009C000032302225021880600F04DFD022303225A
:1009D0005021880600F092FD03230422502188064E
:1009E00000F0D8FD1D480078052803D01A4800788B
:1009F00005283ED1022301225021880600F0E8FCA0
:100A0000032302225021880600F02DFD0223032239
:100A1000502125E0B00000202A000020F000002036
:100A20007C0000209C410008AE0000208A000020CD
:100A300040000020003801406200002070000020CB
:100A4000890000208B000020A4000020A8000020C6
:100A5000AC000020000C0140BD000020BC000020C4
:100A6000880600F04BFD032304225021880600F085
:100A700091FD53480078062803D052480078062894
:100A800017D1032301225021880600F0A1FC022384
:100A90001A465021880600F0E6FC03231A4650212E
:100AA000880600F02BFD022304225021880600F066
:100AB00071FD43480078072803D042480078072892
:100AC00017D1032301225021880600F081FC022364
:100AD0001A465021880600F0C6FC03231A4650210E
:100AE000880600F00BFD022304225021880600F046
:100AF00051FD33480078082803D032480078082890
:100B000017D1032301225021880600F061FC022343
:100B10001A465021880600F0A6FC03231A465021ED
:100B2000880600F0EBFC022304225021880600F026
:100B300031FD23480078092803D02248007809288D
:100B400017D1042301220021900700F041FC042367
:100B500002220021500700F086FC0423032200211A
:100B6000180700F0CBFC04231A460021180700F0F8
:100B700011FD134800780A2803D0124800780A288B
:100B800017D1042301220021900700F021FC042347
:100B900002220021500700F066FC042303220021FA
:100BA000180700F0ABFC04231A460021180700F0D8
:100BB000F1FC0548007800287FF463AE5BE6000096
:100BC000BC000020BD00002089000020704700BF4D
:100BD000FEE700BFFEE700BFFEE700BFFEE770478D
:100BE0007047704710B5F4480068401CF24908602F
:100BF000F248007880B908460068F14909688842DF
:100C00000AD14FF48071EF4801F09DFB0020EA49C2
:100C100008600120E9490870E8480078012811D1EE
:100C2000E7480068C0F5FA60E3490968884209D1DD
:100C30004FF48071E34801F084FB0020DE49086036
:100C4000DE49087010BDFEB5DF480078002878D175
:100C50002021DE4801F03EFF0128F8D1DB4801F0F9
:100C6000E6FEC6B2D94801F0E2FEC1B2D848D94A80
:100C7000127881544F2E02D10120D7490870D648EE
:100C80000078012804D1D3480078401CD14908706D
:100C9000D0480078022861DBCD4800784F2818D171
:100CA000CB4840784B2814D1CC480078012802D199
:100CB0000220CA490870C9480078032802D10420DC
:100CC000C6490870C5480078052802D10620C349E6
:100CD0000870BF4800784F2818D1BD4840784E288A
:100CE00014D1BE480078012802D10220BB49087007
:100CF000BA480078032802D10420B8490870B748E0
:100D00000078052802D10620B4490870B048007860
:100D10004F2814D1AE484078522810D1AF480078FF
:100D2000012807D0AD480078032803D0AB480078ED
:100D3000052804D1A9480078401EA849087000245D
:100D400005E00CE00020A2490855601C84B2402C4C
:100D5000F8DB00209F4908709F49087000269A48D8
:100D6000007801287ED12021984801F0B3FE0128A7
:100D7000F8D1964801F05BFEC5B2AA2D10D1002033
:100D8000974908600121022001F0D3FC0121954818
:100D900002F0D3F9012094490870002093490870AB
:100DA0009148007801287CD19148924909784554AE
:100DB00090480078401C8F49087008460078062843
:100DC000F1D10021874802F0B8F90021022001F09A
:100DD000B0FC0020874908700120844908708448CD
:100DE0000078AA2823D182484078BB281FD18048A8
:100DF0000079CC281BD17E484079DD2817D17C486A
:100E000080787D4908707A4880787C4908707848F5
:100E1000407977490979764AD278CDE90021029064
:100E2000734883784278017875A002F067FF7048B4
:100E30000078AA2812D16E4840785A280ED16C4802
:100E40000079A5280AD16A484079A52806D16848C2
:100E500080787349087073A002F050FF64480078EE
:100E6000AA2800E077E06CD161484078BB2868D1BF
:100E70005F480079BB2864D15D484079AA2860D1D9
:100E80005B488078102815D1694800686949086076
:100E90004FF0E020006940F003004FF0E0210861CE
:100EA00000E057E04FF48071464801F04AFA62A032
:100EB00002F024FF4E488078152813D15F4800685F
:100EC0005C4908604FF0E020006940F003004FF0FB
:100ED000E02108614FF480713A4801F032FA58A0DD
:100EE00002F00CFF42488078202813D15548006852
:100EF000504908604FF0E020006940F003004FF0D7
:100F0000E02108614FF480712E4801F01AFA4EA0DA
:100F100002F0F4FE36488078302812D1002045498E
:100F200008604FF0E020006920F003004FF0E0215E
:100F300008614FF48071234801F005FA43A002F0E4
:100F4000DDFE002404E0002029490855601C84B21D
:100F5000052CF8DD0026FEBD10B50121214802F068
:100F6000CAFB40B101211F4802F0D6FB1C480068B3
:100F7000401C1B4908601A48006814281BD3002134
:100F8000184802F0DAF80021022001F0D2FB00201C
:100F9000134908601548007868B9002404E000206F
:100FA00013490855601CC4B2052CF8DD00200E4919
:100FB00008701049087010BD90000020AC0000209F
:100FC000A4000020000C01408B00002000380140EC
:100FD00040010020870000208C0000208A000020B3
:100FE00080000020000400408E0000208F000020C0
:100FF0000001002086000020BB000020BC00002073
:101000007265636569766564202564202564202502
:101010006420256420202564202564200A00000027
:101020007C0000206F6B6F6B6F6B6F6B6F6B6F0073
:1010300094000020A0000020313000009800002023
:10104000313500009C0000203230000033300000B9
:1010500000B585B0012144F2040001F05DFB4FF4BE
:101060000070ADF8100018208DF8130003208DF8E3
:10107000120004A92E4801F0B9F84FF48060ADF8D1
:10108000100004208DF8130004A9294801F0AEF8DF
:101090004FF4E13000900020ADF80400ADF80600F8
:1010A000ADF80800ADF80C000C20ADF80A00694658
:1010B000204801F0E2FB01211E4801F04CFC05B084
:1010C00000BD70B504460D46E1B21A4801F0ABFC14
:1010D00000BF1848008810F0800FFAD0204670BD7D
:1010E00010B52021134801F0F5FC012806D1114864
:1010F00001F09DFC10490870012010BD0020FCE7A4
:1011000008B54FF4E06002F00BFB00214FF00060E7
:1011100002F03EFB25208DF8000000208DF8020033
:1011200001208DF80300684602F0FFFA08BD0000B8
:101130000008014000380140BE00002008B5012130
:10114000082001F0E9FA4FF48070ADF8000010209B
:101150008DF8030003208DF802006946574801F01E
:1011600045F84FF48071554801F0EBF808BD08B51B
:101170000121042001F0D0FA4FF49870ADF800007E
:1011800028208DF8030001208DF8020069464C48A4
:1011900001F02CF80121082001F0BEFA44F2D02021
:1011A000ADF8000028208DF8030001208DF8020022
:1011B0006946424801F01AF808BD08B540F60440F7
:1011C000ADF8000010208DF8030003208DF8020018
:1011D00069463A4801F00AF84FF40040ADF80000C3
:1011E00010208DF8030003208DF802006946344872
:1011F00000F0FCFF2320ADF8000010208DF8030064
:1012000003208DF8020069462C4800F0EFFF48F2F9
:10121000C000ADF8000010208DF8030003208DF809
:1012200002006946264800F0E1FF4FF46040ADF847
:10123000000010208DF8030003208DF8020069469D
:10124000204800F0D3FF0121042001F065FA0121BC
:10125000082001F061FA0121102001F05DFA40F64A
:101260000441164801F06DF84FF40041144801F0B4
:1012700068F808BD08B50420ADF8000010208DF80E
:10128000030003208DF8020069460C4800F0AEFF11
:1012900008BD08B54FF46040ADF8000010208DF88F
:1012A000030003208DF802006946064800F09EFF07
:1012B0000121102001F030FA08BD0000000C0140AF
:1012C000000801400010014010B50121042001F088
:1012D00023FA0121082001F01FFA0121102001F05A
:1012E0001BFA0121084601F024FA0121022001F035
:1012F00020FA0121084601F00FFA10BD08B50F20B1
:10130000ADF8000018208DF8030003208DF80200CE
:101310006946C74800F06AFF08BD00B587B0632082
:10132000ADF814002320ADF810000020ADF8160031
:10133000ADF8120004A94FF0804001F078FC602065
:10134000ADF800000120ADF802000020ADF8080063
:1013500069464FF0804001F083FC0821C80602F086
:101360001DF869464FF0804001F0B1FC0821C80625
:1013700002F01DF869464FF0804001F0F2FC0821B0
:10138000C80602F021F869464FF0804001F031FDB7
:101390000821C80602F021F80121880701F0CDFEDE
:1013A00007B000BD10B500214FF0804002F074F985
:1013B00000214FF0804002F071F900214FF0804091
:1013C00002F06EF900214FF0804002F06BF910BD81
:1013D0002DE9F04106460F4614461D46012C04D166
:1013E0003946304602F058F913E0022C04D1394650
:1013F000304602F053F90CE0032C04D13946304654
:1014000002F04EF905E0042C03D13946304602F0D3
:1014100049F9012D07D14021854800F094FF802132
:10142000834800F090FF022D07D14021804800F052
:1014300088FF80217E4800F086FF032D07D14021E0
:101440007B4800F080FF8021794800F07AFF042D6E
:1014500007D14021764800F074FF8021744800F0E5
:1014600070FFBDE8F0812DE9F04106460F461446B5
:101470001D46012C04D13946304602F00DF913E027
:10148000022C04D13946304602F008F90CE0032C56
:1014900004D13946304602F003F905E0042C03D1AB
:1014A0003946304602F0FEF8012D07D1012161488E
:1014B00000F049FF02215F4800F045FF022D07D1EF
:1014C00001215C4800F03DFF02215A4800F03BFF3B
:1014D000032D07D10121574800F035FF022155485F
:1014E00000F02FFF042D07D10121524800F029FF01
:1014F0000221504800F025FFBDE8F0812DE9F041C0
:1015000006460F4614461D46012C04D13946304686
:1015100002F0C2F813E0022C04D13946304602F042
:10152000BDF80CE0032C04D13946304602F0B8F87F
:1015300005E0042C03D13946304602F0B3F8012D02
:1015400007D120213B4800F0FEFE69033A4800F035
:10155000FAFE022D07D12021364800F0F2FE2903C1
:10156000354800F0F0FE032D08D12021314800F06D
:10157000EAFE4FF40051304800F0E3FE042D07D19D
:1015800020212C4800F0DDFEE9022B4800F0D9FEB6
:10159000BDE8F0812DE9F04106460F4614461D4690
:1015A000012C04D13946304602F076F813E0022CC3
:1015B00004D13946304602F071F80CE0032C04D116
:1015C0003946304602F06CF805E0042C03D1394668
:1015D000304602F067F8012D07D1A903164800F044
:1015E000B2FEE903144800F0AEFE022D07D16903F4
:1015F000114800F0A6FEA9030F4800F0A4FE032D39
:1016000009D14FF480410C4800F09DFE4FF4004199
:10161000094800F096FE042D07D12903064800F082
:1016200090FE6903044800F08CFEBDE8F0810000E4
:1016300000080140000C014000100140002103E0BF
:1016400000BF00BF00BF491C8142F9D3704701466B
:1016500000BFFE48008810F0020FFAD0FB48001DC2
:10166000018000BFF948008810F0010FFAD0F74858
:10167000001D0088C0B2704770B50546002405E023
:10168000601CC4B2C82C01DD002070BD0221EF48EF
:10169000083802F000FA0028F2D02946EB48083852
:1016A00002F0A6F9002405E0601CC4B2C82C01DDDC
:1016B0000020EAE70121E548083802F0ECF90028AB
:1016C000F2D0E248083802F095F9C0B2DDE710B573
:1016D0000446DE48083800884FF6C7710840DB49E9
:1016E0000839088008460088204308800121D7482F
:1016F000083802F04CF910BD00B587B001210C206C
:1017000001F00AF80121880301F013F84FF460405A
:10171000ADF8180018208DF81B0003208DF81A0072
:1017200006A9CB4800F062FD4FF48050ADF81800D8
:1017300010208DF81B0003208DF81A0006A9C4485C
:1017400000F054FD4FF4C050ADF8180010208DF893
:101750001B0003208DF81A0006A9BE4800F046FDC4
:101760004FF4C051BB4800F0EEFD4FF47041B84853
:1017700000F0E7FD0020ADF804004FF48270ADF8F2
:1017800006000020ADF80800ADF80A00ADF80C0026
:101790004FF40070ADF80E003820ADF810000020B6
:1017A000ADF812000720ADF8140001A9A7480838C9
:1017B00002F050F80121A548083802F0E8F8FF20AF
:1017C000FFF75AFF07B000BD10B502460B46A1480F
:1017D0001430006840F400609E49143108607E2097
:1017E00000EA42042046FFF732FF1846FFF72FFFBA
:1017F00098481030006840F4006096491031086045
:1018000010BD10B50246002492481430006840F420
:1018100000609049143108607E2000EA420040F0E8
:1018200080031846FFF713FF0020FFF710FF044660
:1018300088481030006840F4006086491031086024
:10184000204610BD70B505460C4600262846FFF719
:10185000D8FF064646EA04012846FFF7B5FF70BDEB
:1018600010B51420FFF7CDFF044614F0030F03D189
:1018700003211420FFF7E6FF10BD70B505460C46A6
:1018800000262846FFF7BDFF064626EA0401284643
:10189000FFF79AFF70BD10B50446412C26D10821F0
:1018A0000846FFF7EAFF3D211120FFF78DFF862153
:1018B0001720FFF789FF7F212620FFF785FF1E21D4
:1018C0002D20FFF781FF00212C20FFF77DFF8D21C8
:1018D0002A20FFF779FF3E212B20FFF775FF41F209
:1018E0008830FFF7ABFEFFF7BBFF01E0012010BD22
:1018F0000020FCE700B503211420FFF7BEFF00BD68
:1019000000B554481030006840F4805051491031FF
:1019100008600220FFF792FE4E481430006840F441
:1019200080504C49143108604FF4FA60FFF786FE8E
:1019300048481030006840F4805046491031086033
:101940004FF4FA60FFF77AFE0F210120FFF73CFF0A
:101950004FF4FA60FFF772FE3D211120FFF734FFCC
:101960001E212D20FFF730FF00212C20FFF72CFF38
:101970008D212A20FFF728FF3E212B20FFF724FF8F
:1019800040211520FFF720FF002000BD10B5FFF714
:10199000B3FEFFF7B5FFFFF7ADFF4FF4FA60FFF7B7
:1019A0004DFEFFF75DFF4120FFF775FF10BD00B54D
:1019B000FFF7A6FFFFF79EFF4FF4FA60FFF73EFE2A
:1019C000FFF74EFF00BD2DE9FE4F064688469146C3
:1019D0009A46DDF830B0022002900020019000907D
:1019E0000C2E06D00E2E09D112200190102000904E
:1019F00005E0772001903020009000E000BF00BF9C
:101A0000019840F080010220FFF7DEFE80210420D3
:101A1000FFF733FF00210120FFF7D6FE80210A20C7
:101A2000FFF710FF002506E018F805100920FFF762
:101A3000CBFE681C85B24D45F6DB31460120FFF731
:101A4000C3FE0C2E0AD180210D2005E0083800408D
:101A5000000C014000080140FFF7F4FE4FF416753A
:101A600000BF0420FFF7CDFE0446681E85B22DB1ED
:101A700014F0010F02D100980442F2D080210D2011
:101A8000FFF7FBFE002D37D00620FFF7BAFE10F05F
:101A90001B0F2FD1002002900198204010F0010F61
:101AA00001D0012002900C2E26D10A20FFF7A9FEBA
:101AB00004460C20FFF7A5FE00F007072FB1601EBB
:101AC00007EBC0008BF8000003E0E006000E8BF887
:101AD000000004B90124122C00DD1224002506E0C8
:101AE0000920FFF78EFE0AF80500681C85B2A542A2
:101AF000F6DB01E00220029080210C20FFF7A2FE1D
:101B000000210120FFF760FE0298BDE8FE8F70B54E
:101B100087B005460C4608210846FFF7AEFE0721B0
:101B20000D20FFF751FE03211420FFF78BFE8DF8E7
:101B3000045006A801AB012201A900900C20FFF778
:101B400042FF064656B99DF81800102806D19DF8A8
:101B5000040020709DF80500607000E00226304609
:101B600007B070BDF0B587B00546002708210846CC
:101B7000FFF783FE00210D20FFF726FE80210E20B7
:101B8000FFF77BFE93208DF8040020208DF80500E0
:101B900006A801AB022201A900900C20FFF713FF59
:101BA000064686B9002407E001A8005D285501A873
:101BB000005D4740601CC4B2042CF5DB01A8005D49
:101BC000B84200D0022680210E20FFF73BFE3046AF
:101BD00007B0F0BD2DE9F0410746884615460421BF
:101BE0000520FFF74AFE00210120FFF7EDFD8021CF
:101BF0000A20FFF727FE002405E0395D0920FFF7E2
:101C0000E3FD601CC4B24445F7DB03210120FFF76C
:101C1000DBFDFF2400BF0520FFF7F3FD0646601E35
:101C2000C4B214B116F0040FF5D02220FFF7E9FD7D
:101C300028702120FFF7E5FD6870BDE8F08170B5E0
:101C400087B0054693208DF8040070208DF80500BC
:101C500000208DF80A0000240BE0295D01AAA01CD9
:101C600011549DF80A00295D48408DF80A00601C57
:101C7000C4B2042CF1DB0DF10B02072101A8FFF720
:101C8000A9FF08210846FFF7F8FD06A801AB0922C5
:101C900001A900900C20FFF796FE06462EB99DF88C
:101CA0001800182801D1002600E00226304607B0AF
:101CB00070BD2DE9F04387B006460F469046994621
:101CC0008DF804608DF80570002406E018F8041003
:101CD00001AAA01C1154601CC4B2062CF6DB00241F
:101CE00007E019F8041001AA04F108001154601C5F
:101CF000C4B2062CF5DB06A801AB0C2201A90090AA
:101D00000E20FFF760FE05462DB90820FFF779FD8C
:101D100010F0080F00D10225284607B0BDE8F08377
:101D2000F0B587B005460E4630208DF804008DF8DA
:101D300005500DF10602022101A8FFF74BFF06A88E
:101D400001AB042201A900900C20FFF73CFE0746DE
:101D50006FB99DF81800902809D1002404E001A86B
:101D6000005D3055601CC4B2102CF8DB00E0022787
:101D7000384607B0F0BDF0B587B006460F46A02044
:101D80008DF804008DF805600DF10602022101A80E
:101D9000FFF720FF06A801AB042201A900900C2048
:101DA000FFF711FE05464DB99DF81800042805D12E
:101DB0009DF8040000F00F000A2800D0022515BB92
:101DC000002404E0385D01A90855601CC4B2102C41
:101DD000F8DB05AA102101A8FFF7FCFE06A801AB5D
:101DE000122201A900900C20FFF7EDFD05464DB928
:101DF0009DF81800042805D19DF8040000F00F009C
:101E00000A2800D00225284607B0F0BD10B587B0DB
:101E100050208DF8040000208DF805000DF1060219
:101E2000022101A8FFF7D6FE06A801AB042201A9F2
:101E300000900C20FFF7C7FD0446204607B010BDF8
:101E40002DE9F04187B007460E4690468DF80470A4
:101E50008DF805600DF10602022101A8FFF7BAFE18
:101E600006A801AB042201A900900C20FFF7ABFDEE
:101E700004464CB99DF81800042805D19DF80400CB
:101E800000F00F000A2800D00224E4B9002505E084
:101E900018F8050001A94855681CC5B2102DF7DBDC
:101EA00002AA042101A8FFF795FE0020069006A8CB
:101EB00001AB062201A900900C20FFF784FD044627
:101EC000022C00D00024FCB9B0208DF804008DF85D
:101ED00005600DF10602022101A8FFF77BFE06A8AE
:101EE00001AB042201A900900C20FFF76CFD044611
:101EF0004CB99DF81800042805D19DF8040000F0A5
:101F00000F000A2800D00224204607B0BDE8F08167
:101F100070B587B005460E46C2208DF804008DF8D6
:101F200005500DF10602022101A8FFF753FE06A895
:101F300001AB042201A900900C20FFF744FD0446E8
:101F40004CB99DF81800042805D19DF8040000F054
:101F50000F000A2800D00224CCB900208DF804001C
:101F60008DF805008DF806008DF8070002AA0421FF
:101F700001A8FFF72FFE06A801AB062201A90090D9
:101F80000C20FFF720FD0446022C00D0002414B1E1
:101F9000022007B070BDB0208DF804008DF80560F8
:101FA0000DF10602022101A8FFF714FE06A801ABFD
:101FB000042201A900900C20FFF705FD04464CB94E
:101FC0009DF81800042805D19DF8040000F00F00CA
:101FD0000A2800D002242046DBE7000030B5014685
:101FE000B1F1807F01D3012030BD21F07F40401E40
:101FF0004FF0E022506150170F22002806DA13013B
:10200000204C00F00F052D1F635502E013011E4CFC
:10201000235400BF00204FF0E022906107201061A0
:102020000220E1E710B5194800681949B0FBF1F446
:102030002046FFF7D3FF022803D1C101154800F065
:1020400080F9124800681249B0FBF1F42046FFF70E
:10205000C5FF012801D100BFFEE710BD01B50E4943
:102060000098086000BF0C4800680028FBD108BD3C
:102070000948006820B108480068401E0649086009
:102080007047000018ED00E000E400E004420008A2
:10209000A0860100000C0140C000002008B54FF4EC
:1020A000E06001F03DFB1D208DF8000000208DF860
:1020B000010003208DF8020001208DF8030068461E
:1020C00001F033FB08BD0EB50121022000F031FB09
:1020D000114800F041FD4FF47A70ADF8040047203C
:1020E000ADF800000020ADF8020069460A4800F093
:1020F0009EFD0121084801F0FBFA01221146064825
:1021000001F036F80121044801F017F800210220FF
:1021100000F00FFB0EBD00000004004010B50446A7
:10212000C549601A8C422FD009DCC448201810D051
:10213000B0F5806F16D0B0F5006F4AD11BE0B0F556
:10214000806F2AD0B0F5006F30D0B0F5406F40D12D
:1021500035E00121042000F0F9FA0021042000F00C
:10216000F5FA37E00121082000F0F0FA00210820FC
:1021700000F0ECFA2EE00121102000F0E7FA002137
:10218000102000F0E3FA25E00121202000F0DEFA23
:102190000021202000F0DAFA1CE00121402000F0AC
:1021A000D5FA0021402000F0D1FA13E0012180206F
:1021B00000F0CCFA0021802000F0C8FA0AE00121EA
:1021C000080200F0C3FA00214FF4807000F0BEFA5C
:1021D00000E000BF00BF10BD10B50121084600F0AF
:1021E000B5FA0021012000F0B1FA10BD2DE9F0414F
:1021F000024600250026002000230024002791F835
:1022000003C00CF00F0591F803C01CF0100F03D0B1
:1022100091F802C04CEA050591F800C0BCF1000F2E
:1022200031D0146800202BE04FF0010C0CFA00F3C1
:10223000B1F800C00CEA03069E4220D183004FF0A3
:102240000F0C0CFA03F7BC4305FA03FC4CEA040438
:1022500091F803C0BCF1280F06D14FF0010C0CFA25
:1022600000FCC2F814C00AE091F803C0BCF1480FAA
:1022700005D14FF0010C0CFA00FCC2F810C0401C54
:102280000828D1D31460B1F800C0BCF1FF0F34DDD1
:10229000546800202EE000F1080C4FF0010808FA05
:1022A0000CF3B1F800C00CEA03069E4221D1830072
:1022B0004FF00F0C0CFA03F7BC4305FA03FC4CEA91
:1022C000040491F803C0BCF1280F05D100F1080CFB
:1022D00008FA0CF8C2F8148091F803C0BCF1480F5A
:1022E00007D100F1080C4FF0010808FA0CF8C2F809
:1022F0001080401C0828CED35460BDE8F0814FF612
:10230000FF710180022181700421C1707047024673
:10231000002093680B4201D0012000E000207047AC
:102320000146886880B2704702460020D3680B429D
:1023300001D0012000E0002070470146C86880B24B
:10234000704701617047416170470AB1016100E067
:1023500041617047C16070474FF480320A43826127
:102360008161826182698269704702460020344B34
:1023700018684FF68073184040EA02100843304B4B
:10238000186070472F49C8617047F0B50A460023AE
:102390000024002100252A4E7168C0F3034583B252
:1023A00000F44016B6F5401F08D121F07061244EAC
:1023B000766826F07066224F7E6012E000F4801688
:1023C000B6F5801F06D1032606FA05F4A14341F0B5
:1023D000706106E0460D360103FA06F6B14341F09E
:1023E000706122B1460D360103FA06F63143144EF0
:1023F0007160F0BD30B500228B071C0F0F2303FA6C
:1024000004F20F4B08338C1053F8243093430C4CD8
:1024100008348D1044F8253023468C1053F82430AE
:102420008C07240F00FA04F42343054C08348D1064
:1024300044F8253030BD00000014014000F8FEBF14
:102440000000014000002042DC48006840F001002C
:10245000DA49086008464068D9490840D7494860C9
:1024600008460068D7490840D44908600846006813
:1024700020F4802008600846406820F4FE00486090
:10248000002088607047CD49096821F48031CB4A2B
:1024900011601146096821F480211160B0F5803F78
:1024A00003D0B0F5802F0ED106E0C449096841F48D
:1024B0008031C24A116007E0C049096841F4A02197
:1024C000BE4A116000E000BF00BF704710B5014672
:1024D0000022002300204A11012A02D1B74C2368B0
:1024E00006E0022A02D1B54C236A01E0B34C636ACC
:1024F00001F01F02012494401C4201D0012000E0A1
:10250000002010BD38B5002000900024002500BF39
:102510003120FFF7DBFF05460098401C00901DB9F5
:102520000098B0F5A06FF3D13120FFF7CFFF08B1CD
:10253000012400E00024204638BD014600209F4AC7
:10254000106820F0F80040EAC100106070479E4912
:102550000860704702460020984B586820F47C10B1
:1025600042EA01031843954B586070479649086644
:10257000704701460020914A506820F0030008434C
:10258000506070478D48406800F00C00704701466D
:1025900000208A4A506820F0F000084350607047DD
:1025A00001460020854A506820F4E06008435060EE
:1025B000704701460020814A506820F4605040EA8C
:1025C000C1005060704729B17C4A527A02437B4B6C
:1025D0005A7204E0794A527A8243784B5A727047B1
:1025E0007A490860704701460020744A506820F418
:1025F00040400843506070470021754A11706F4A8F
:1026000082F82010012802D0042808D103E001211B
:102610006F4A117004E005216D4A117000E000BF9F
:1026200000BF70476B49086070476449096A0143FD
:10263000624A11627047674944390860704730B593
:1026400000210022002400235C4D6D6805F00C0180
:1026500021B1042905D0082923D105E05E4D05608C
:1026600022E05D4D05601FE0544D6D6805F4701269
:10267000022505EB9242514D6D6805F480341CB97A
:10268000564D554305600BE04C4D6D6815F4003F09
:1026900003D0524D5543056002E04F4D5543056050
:1026A00002E04D4D056000BF00BF444D6D6805F070
:1026B000F00109094A4D6B5C0568DD4045603F4DFE
:1026C0006D6805F4E061090A454D6B5C4568DD40C5
:1026D00085603A4D6D6805F46051C90A404D6B5CE8
:1026E0004568DD40C560354D6D6805F44041890B96
:1026F0003C4D6B5CC568B5FBF3F5056130BD29B198
:102700002E4A526902432D4B5A6104E02B4A52690A
:1027100082432A4B5A61704729B1284A9269024381
:10272000264B9A6104E0254A92698243234B9A61C1
:10273000704729B1214AD2690243204BDA6104E093
:102740001E4AD26982431D4BDA61704729B11B4A88
:10275000D2680243194BDA6004E0184AD268824317
:10276000164BDA60704729B1144A12690243134BC1
:102770001A6104E0114A12698243104B1A617047D2
:1027800014494039086070470F49C86470470B49C5
:10279000C87170470948406A40F080700749486234
:1027A000704701460020054A92680A4201D0012084
:1027B00000E0002070470149887270470010024015
:1027C0000000FFF8FFFFF6FE00004242D800424240
:1027D000201002408004424200127A0000093D00AD
:1027E000C4000020D400002010B50446D749601A68
:1027F0008C422BD006DCD648201813D0B0F5806F61
:1028000038D119E0B0F5806F2AD0B0F56C4F31D1D6
:1028100001218803FFF79AFF00214FF48040FFF762
:1028200095FF28E001214804FFF79DFF00214FF4A8
:102830000030FFF798FF1EE001218804FFF793FFA7
:1028400000214FF48020FFF78EFF14E00121C8041F
:10285000FFF789FF00214FF40020FFF784FF0AE013
:1028600001210805FFF77FFF00214FF48010FFF7DB
:102870007AFF00E000BF00BF10BD2DE9F04786B031
:1028800005460E460024A24600BF00BF00272F4683
:102890002C8A4CF6FF700440F08804432C82AC89EB
:1028A0004EF6F3100440B08831890843718908431B
:1028B0000443AC81AC8A4FF6FF400440B089044326
:1028C000AC8201A8FFF7BBFEA248874202D1DDF827
:1028D00010A001E0DDF80CA00AEBCA0000EB0A1022
:1028E00031688900B0FBF1F86420B8FBF0F0040116
:1028F0002009642101FB1089322000EB0910B0FB94
:10290000F1F000F00F0004432C8106B0BDE8F08721
:102910004FF41651016000218180C18001810C219A
:10292000418100218181704710B502460020108A44
:102930004FF2FF0318400B884C8823438C882343B5
:10294000CC8823431843108210BD002101804180B0
:102950008180C180704721B1828942F40052828116
:1029600004E082894DF6FF731A4082817047F0B50A
:10297000034600240026002500201846C1F3421417
:1029800001F01F06012707FA06F5012C01D10C30D2
:1029900004E0022C01D1103000E014301AB10768B5
:1029A0002F43076002E00768AF430760F0BD1AB12C
:1029B000838A0B43838202E0838A8B43838270473E
:1029C000028A4FF6F0731A400282028A0A43028298
:1029D000704782894FF2FF731A40828182890A43CD
:1029E0008281704721B1828942F00202828104E033
:1029F00082894FF6FD731A4082817047028A4FF632
:102A0000DF731A400282028A0A430282704721B1B0
:102A1000028A42F48042028204E0028A4BF6FF738B
:102A20001A4002827047C1F3080282807047014653
:102A30008888C0F308007047818941F001018181D5
:102A40007047028BD2B20283028B42EA01220283D8
:102A50007047028B02F47F420283028B0A43028397
:102A6000704721B1828A42F02002828204E0828A89
:102A70004FF6DF731A408282704721B1828A42F09A
:102A80001002828204E0828A4FF6EF731A4082823B
:102A9000704721B1828A42F00802828204E0828A71
:102AA0004FF6F7731A4082827047828A4FF6FB73A3
:102AB0001A408282828A0A438282704721B1828AC6
:102AC00042F00202828204E0828A4FF6FD731A40CD
:102AD000828270470246002013880B4201D00120F9
:102AE00000E000207047CA430280704770B502467C
:102AF0000B460024002100250020C3F3421503F0FB
:102B00001F01012606FA01F1012D02D196893140FB
:102B100006E0022D02D1168A314001E0968A31404A
:102B20001C12012606FA04F41688344011B10CB1C7
:102B3000012000E0002070BD10B5002200230A1221
:102B400001249440A3B2DC43048010BD004C00403B
:102B500000BCFFBF0038014010B50446F749601AB9
:102B60008C4245D00CDCB4F1804F1DD0F4482018C5
:102B700023D0B0F5806F29D0B0F5006F54D12EE08E
:102B8000B0F5806F3DD0B0F58E3F03D0B0F5923FE9
:102B90004AD13FE00121C802FFF7D8FD00214FF4E0
:102BA0000060FFF7D3FD40E001210846FFF7DBFDA1
:102BB00000210120FFF7D7FD37E001210220FFF7B8
:102BC000D2FD00210220FFF7CEFD2EE001210420DE
:102BD000FFF7C9FD00210420FFF7C5FD25E0012115
:102BE0000820FFF7C0FD00210820FFF7BCFD1CE016
:102BF00001211020FFF7B7FD00211020FFF7B3FDE2
:102C000013E001212020FFF7AEFD00212020FFF777
:102C1000AAFD0AE001214803FFF798FD00214FF4C7
:102C20000050FFF793FD00E000BF00BF10BD028819
:102C300002F08F020280CA884B881A4303881A4325
:102C400002808A8882850A880285BE4A904202D024
:102C5000BD4A904201D10A7A0286012282827047DF
:102C600070B5002400220023058C4FF6FE76354017
:102C70000584028C8388048B4FF68F752C400D8859
:102C80002C43751E2A400D892A434D882A43CD883E
:102C90008586AC4DA84202D0AB4DA84213D14FF669
:102CA000F7752A404D892A434FF6FB752A408D88D7
:102CB0002A4347F6FF652B4047F6FF552B408D8989
:102CC0002B43CD892B4383800483028470BD70B570
:102CD000002400220023058C4FF6EF763540058452
:102CE000028C8388048B48F6FF752C400D884FF6C4
:102CF000FF7606EA05252C434FF6DF752A400D893D
:102D000006EA05152A434D8806EA05152A43CD88AB
:102D100005878C4DA84202D08B4DA8421DD14FF69D
:102D20007F752A404D894FF6FF7606EA05152A433E
:102D30004FF6BF752A408D8806EA05152A4347F6E7
:102D4000FF352B4047F2FF752B408D8906EA85053C
:102D50002B43CD8906EA85052B43838004830284B7
:102D600070BD70B5002400220023058C4FF6FF666D
:102D700035400584028C8388848B4FF68F752C40F8
:102D80000D882C434FF6FF552A400D894FF6FF76EC
:102D900006EA05252A434D8806EA05252A43CD88FB
:102DA0008587684DA84202D0674DA8421DD14FF2D9
:102DB000FF752A404D894FF6FF7606EA05252A431E
:102DC0004FF6FF352A408D8806EA05252A4346F648
:102DD000FF752B4045F6FF752B408D8906EA0515DA
:102DE0002B43CD8906EA05152B4383808483028417
:102DF00070BD70B5002400220023058C4EF6FF76CE
:102E000035400584028C8388848B48F6FF752C40FE
:102E10000D884FF6FF7606EA05252C434DF6FF7523
:102E20002A400D8906EA05352A434D8806EA05350C
:102E30002A43CD88A0F84050424DA84202D0424DCE
:102E4000A84207D1C3F30D038D894FF6FF7606EA3A
:102E500085152B4383808483028470BD828B4FF25F
:102E6000FF331A408283828B4FF6FF7303EA0123FC
:102E70001A4382837047F0B50C46154600210022A4
:102E80000026078C4EF6FF7C07EA0C070784818B2F
:102E9000028C4FF6FF7707EA043640F6FF473940C9
:102EA0004FF6FF7707EA05274FF6FF7C0CEA033C55
:102EB00047EA0C0739434DF6FF773A4046F480570E
:102EC0003A4381830284F0BD828B4FF6F3731A403C
:102ED0008283828B0A4382837047F0B50C46154685
:102EE000002100220026078C4FF6FF6C07EA0C0732
:102EF0000784818B028C4FF6FF7707EA04264FF692
:102F00000C7739404FF6FF7707EA03172F43394311
:102F10004FF6FF573A4046F480773A438183028464
:102F2000F0BD028B4FF2FF331A400283028B4FF643
:102F3000FF7303EA01231A43028370470010004025
:102F400000FCFFBF002C014000340140F0B50C46EE
:102F50001546002100220026078C4FF6EF7C07EA79
:102F60000C070784018B028C4FF6FF7707EA0416E3
:102F700040F6FF4739404FF6FF7707EA03373943FA
:102F80004FF6FF7707EA052739434FF6DF773A40D8
:102F900046F010073A4301830284F0BD028B4FF6DE
:102FA000F3731A400283028B0A4302837047F0B521
:102FB0000C46154600210022068C4FF6FE773E4057
:102FC0000684018B028C4FF60C7631407E1C06EA9B
:102FD00003162E4331437E1E324044F00106324335
:102FE00001830284F0BD70B505460C46208850B9B7
:102FF0002389A28861882846FFF7D9FFE1882846FF
:10300000FFF7CCFF25E0208804280AD12389A28875
:1030100061882846FFF79AFFE1882846FFF781FF7D
:1030200017E0208808280AD12389A28861882846C9
:10303000FFF753FFE1882846FFF746FF09E02389A1
:10304000A28861882846FFF716FFE1882846FFF727
:1030500005FF70BD2DE9F04105460C46002601270D
:10306000608808B9022600E00026A088012801D166
:10307000022700E001272088A0B92389A28861885F
:103080002846FFF794FFE1882846FFF787FF23894A
:103090003A4631462846FFF759FFE1882846FFF7B0
:1030A00040FF13E02389A28861882846FFF74EFF7E
:1030B000E1882846FFF735FF23893A4631462846FE
:1030C000FFF775FFE1882846FFF768FFBDE8F0814C
:1030D0000A884B881A438B881A43CB881A430B897A
:1030E0001A434B891A438B891A43A0F8442070472E
:1030F0004FF6FF71818000210180C1804180017203
:1031000070470021018041808180C180018141811F
:103110008181C1817047002101804180012181802E
:103120000021C180018170470021018041808180A0
:10313000C180018141818181704721B1028842F0C3
:103140000102028004E0028840F2FE331A4002804D
:10315000704731B1B0F8442042F40042A0F8442056
:1031600005E0B0F84420C2F30E02A0F844207047F6
:103170001AB183890B43838102E083898B43838166
:1031800070478182704741EA0203A0F848307047D7
:103190001AB183890B43838102E083898B43838146
:1031A000704701894FF6F8721140018170470A4655
:1031B000002101894FF68F73194011430181704737
:1031C00030B504460D4629462046FFF7F0FF20891A
:1031D00040F00700208130BD2DE9F04104460D4646
:1031E00016461F46602D06D13B4601223146204639
:1031F000FFF7ACFE05E03B46012231462046FFF7D3
:10320000D6FE29462046FFF7D2FF208940F007006E
:103210002081BDE8F08170B50C4600210189C9B25A
:1032200044EA02054FF6FF7606EA032635432943B2
:10323000018170BD2DE9F04105460E4617469846BE
:10324000002443463A4631462846FFF7E4FF2C89DE
:103250004FF6F870044044F007044FF68F700440B6
:1032600044F070042C81BDE8F081F0B504460D46B1
:1032700016461F463B46324629462046FFF7CBFFFF
:10328000208940F480402081F0BD01858282704712
:103290000A460021018840F28F3319401143018012
:1032A0007047F0B50C4615461E460021002200234B
:1032B0000189028B038C4FF6F877394021434FF692
:1032C000FC473A4040F201173A434FF6DD773B4066
:1032D0004FF6FF7707EA06172F433B43018102832E
:1032E0000384F0BD0A460021018B4FF68F7319400D
:1032F0001143018370470A460021018B48F6FF7392
:1033000019404FF6FF7303EA022319430183704704
:103310000A460021818B4FF68F7319401143818338
:1033200070470A460021818B48F6FF7319404FF61B
:10333000FF7303EA022319438183704721B1028896
:1033400042F08002028004E0028840F27F331A409B
:103350000280704721B1828842F00402828004E03A
:1033600082884FF6FB731A408280704721B18288B1
:1033700042F00802828004E082884FF6F7731A4018
:103380008280704721B1828842F00102828004E08D
:1033900082884FF6FE731A40828070470A460021E9
:1033A000018B4FF6F77319401143018370470A46AA
:1033B0000021018B4FF2FF7319404FF6FF7303EAB0
:1033C00002231943018370470A460021818B4FF67F
:1033D000F77319401143818370470A460021818B9E
:1033E0004FF2FF7319404FF6FF7303EA02231943AC
:1033F000818370470A460021018B4FF6FB73194009
:103400001143018370470A460021018B4FF6FF33B9
:1034100019404FF6FF7303EA0223194301837047F3
:103420000A460021818B4FF6FB73194011438183BB
:1034300070470A460021818B4FF6FF3319404FF643
:10344000FF7303EA02231943818370470A46002170
:10345000018B4FF67F7319401143018370470A4671
:103460000021018BC1F30E014FF6FF7303EA022323
:103470001943018370470A460021818B4FF67F7301
:1034800019401143818370470A460021818BC1F3A3
:103490000E014FF6FF7303EA02231943818370473D
:1034A0000A460021018C4FF6FD7319401143018437
:1034B00070470A460021018C4FF6F77319401143FB
:1034C000018470470A460021018C4FF6DF731940D2
:1034D0004FF6FF7303EA02131943018470470A464B
:1034E0000021018C4FF67F7319404FF6FF7303EAFA
:1034F00002131943018470470A460021018C4FF6DC
:10350000FF5319404FF6FF7303EA02231943018466
:1035100070470A460021018C4FF2FF7319404FF6A5
:10352000FF7303EA02231943018470470A4600210E
:10353000018C4DF6FF7319404FF6FF7303EA023317
:1035400019430184704710B5038C01248C40A343B8
:103550000384038C02FA01F4A4B22343038410BD54
:1035600010B5038C04248C40A3430384038C02FA1B
:1035700001F4A4B22343038410BD30B5038C0124AD
:103580008C40A343038409B1082918D100F1180322
:1035900003EB61031B684FF68F74234000F118049E
:1035A00004EB6104236000F1180303EB61031B6863
:1035B000134300F1180404EB610423601FE00B1FA8
:1035C000C3F34E0400F118031B5948F6FF7423405F
:1035D0000C1FC4F34E0500F1180463510B1FC3F315
:1035E0004E0400F118031B594FF6FF7404EA02243D
:1035F00023430C1FC4F34E0500F11804635130BD82
:1036000021B1028842F00202028004E0028840F206
:10361000FD331A400280704721B1028842F0040253
:10362000028004E0028840F2FB331A4002807047B7
:1036300021B1828842F08002828004E082884FF6C5
:103640007F731A4082807047028840F2F7331A4035
:10365000028002880A430280704782884FF68F7387
:103660001A40828082880A438280704702894FF61E
:10367000F8731A40028102890A4302817047028965
:103680004FF67F731A40028102890A430281704714
:1036900081847047818570478186704701877047B4
:1036A00081877047A0F8401070470288D2B202802C
:1036B00002880A43028070470146888E704701469F
:1036C000088F70470146888F70470146B1F8400067
:1036D00070470146888C70470146088D7047024646
:1036E0000020138A0B4201D0012000E00020704727
:1036F000CA430282704730B50246002000230024EE
:10370000158A05EA0103958905EA010413B10CB194
:10371000012000E0002030BDCA4302827047000053
:1037200031490143314A1160704770B500210023CF
:103730000F22C4780CB32D4C246804F4E064C4F563
:10374000E064210AC1F10403CA40447804FA03F199
:103750008478144021430901254C0678A15504784A
:1037600004F01F050124AC4005786D114FF0E026F0
:1037700006EB8505C5F8004109E0047804F01F0553
:103780000124AC401B4D0678761145F8264070BDEB
:10379000194A0A400243154B1B1F1A60704739B182
:1037A000124A121D12680243104B1B1D1A6006E0DC
:1037B0000E4A121D126882430C4B1B1D1A60704783
:1037C000042808D14FF0E021096941F004014FF0CD
:1037D000E022116107E04FF0E021096921F00401C6
:1037E0004FF0E022116170470000FA050CED00E097
:1037F00000E400E080E100E080FFFF1F10B5044618
:10380000BD4820180FD0B0F5806F16D0B0F5784FB6
:103810001DD101210803FEF799FF00214FF48050CC
:10382000FEF794FF14E001218803FEF79CFF0021BE
:103830004FF48040FEF797FF0AE00121C803FEF72E
:1038400092FF00214FF40040FEF78DFF00E000BF23
:1038500000BF10BD10B50022028802F441520B884F
:103860004C8823438C882343CC8823430C892343EF
:103870004C8923438C892343CC8923431A430280F8
:10388000838B4FF2FF74234083830B8A038210BD26
:103890002DE9F04786B005460C464FF00009022797
:1038A0004FF000084FF0010A0026A88B4FF24001AC
:1038B0000840A88302202884B5F81C90208902289B
:1038C00001D100BF31E0A08810B94FF0010A01E03A
:1038D0004FF0020A01A8FEF7B2FEE088B0F5007FC3
:1038E0000AD1019800EB8000400021890902B0FB59
:1038F000F1F0401D86B20BE04FEA4A10218948439F
:10390000019901EB81014900B1FBF0F0401D86B245
:103910000A20B6FBF0F606F00108A6EB0800C0F39B
:103920004F074FF6FF7000EA0828022F01DBFF2F38
:1039300002DD02274FF0000847EA0800E18808434B
:103940002884208840F4006061880843A1880843E7
:103950006189084340EA0909A5F81C9006B0BDE852
:10396000F0870021018041808180C18001814181F7
:103970008181C1810721018270470021018041803E
:103980008180C1800221018100214181704721B1E4
:10399000028842F04002028004E002884FF6BF73C2
:1039A0001A400280704721B1828B42F48062828388
:1039B00004E0828B4FF6FF331A408283704730B5A4
:1039C000002400230C110125A540ABB21AB1858853
:1039D0001D43858002E085889D43858030BD1AB1F6
:1039E00083880B43838002E083888B438380704706
:1039F00081817047014688897047A1F57E42FF3A70
:103A000004D0028842F48072028004E002884FF6FB
:103A1000FF631A400280704721B1828842F004029D
:103A2000828004E082884FF6FB731A4082807047E0
:103A300002884FF2FF731A40028002880A43028014
:103A40007047018841F480510180704721B102889C
:103A500042F40052028004E002884DF6FF731A40DF
:103A60000280704702460020012901D0108B00E03F
:103A7000908A70470146088A7047B1F5804F04D19B
:103A8000028842F48042028004E002884BF6FF7311
:103A90001A40028070470246002013890B4201D071
:103AA000012000E000207047CA4302817047F0B552
:103AB0000246002000240023002501F00F07012604
:103AC000BE40B4B20B1101269E40B3B2968806EAFE
:103AD00003051689264202D00DB1012000E0002026
:103AE000F0BD10B5002201F00F040123A3409AB2EB
:103AF000D343038110BD000000C8FFBF0CB50020F8
:103B0000019000904748006840F4803045490860C3
:103B100000BF4448006800F4003000900198401C49
:103B20000190009818B90198B0F5A06FF1D13D4807
:103B3000006810F4003F02D00120009001E0002056
:103B400000900098012843D13748006840F01000E9
:103B5000354908600846006820F003000860084600
:103B6000006840F0020008602E4840682D49486017
:103B70000846406848600846406840F480604860F5
:103B80000846406820F47C1048600846406840F4CD
:103B9000E81048600846006840F08070086000BF88
:103BA0002048006810F0007FFAD01E48406820F0DE
:103BB00003001C4948600846406840F00200486025
:103BC00000BF1848406800F00C000828F9D101E057
:103BD00000BFFEE70CBD10B5FFF790FF10BD10B59C
:103BE0001048006840F001000E490860084640682F
:103BF0000E4908400B494860084600680C490840D7
:103C0000084908600846006820F4802008600846DB
:103C1000406820F4FE00486000208860FFF7DBFF6A
:103C200010BD000000100240002002400000FFF81C
:103C3000FFFFF6FE2DE9F05F0546002092469B4609
:103C400088460646814640241BE0284641464746B2
:103C5000224600F042F853465A46C01A914110D30A
:103C600011461846224600F029F82D1A67EB010884
:103C70004F4622460120002100F020F817EB0009F2
:103C80004E41201EA4F10104DFDC484631462A469D
:103C90004346BDE8F09F0000064C074D06E0E06893
:103CA00040F0010394E8070098471034AC42F6D383
:103CB000FCF742FA1842000838420008202A04DBC8
:103CC000203A00FA02F1002070479140C2F120032F
:103CD00020FA03F3194390407047202A04DB203A6E
:103CE00021FA02F00021704721FA02F3D040C2F11C
:103CF0002002914008431946704700000FB4054B5D
:103D000010B503A9044A029800F018F810BC5DF839
:103D100014FB0000C3100008D800002002E008C80F
:103D2000121F08C1002AFAD170477047002001E035
:103D300001C1121F002AFBD1704700002DE9FF4F7F
:103D40008DB00F4605460026DEE1252874D10024FB
:103D50006D1CF149A246A14601222B78203B02FAB4
:103D600003F0084202D004436D1CF6E728782A28A5
:103D700010D06FF02F022878A0F13001092915D852
:103D80000AEB8A0102EB410144F0020400EB010A54
:103D90006D1CF0E757F804ABBAF1000F03DA44F4F6
:103DA0000054CAF1000A44F002046D1C28782E2841
:103DB00017D115F8010F44F004042A280ED06FF033
:103DC0002F022878A0F1300109290AD809EB8901CE
:103DD00002EB410100EB01096D1CF2E757F8049B6F
:103DE0006D1C28786C280FD006DC4C2817D068286A
:103DF0000DD06A2814D104E0742810D07A280FD18D
:103E00000DE044F400140AE044F4801401E044F4AA
:103E100040146978814202D16D1C04F580146D1C38
:103E20002A786E2A20D00DDC632A33D005DC002AE4
:103E30006FD0582A12D1A2E011E0642A6AD0692A10
:103E40000CD167E0732A2FD004DC6F2A6FD0702A60
:103E500004D199E0752A6BD0782A6AD01046DDE942
:103E60000F129047761C4EE1C4F30250022806D090
:103E700003280AD0042801CF0AD0066043E101CF0D
:103E80004FEAE671C0E900613DE101CF06803AE109
:103E9000067038E117F8040B8DF8000000208DF84B
:103EA0000100EB46012003E057F804BB4FF0FF3060
:103EB00061074FF0000102D40DE008F101018846CE
:103EC00049450FDA8045F8DB1BF808100029F4D1CA
:103ED00008E008F1010188468142FADB1BF808106E
:103EE0000029F6D1DDE90F23AAEB0800814621461F
:103EF00000F03BF9304400EB080604E0DDE90F1266
:103F00001BF8010B9047B8F10108F7D2214648464B
:103F1000F4E0FDE00A21C4F302534FF0000B0891D6
:103F2000022B07D001CFC117032B09D00AE034E0E0
:103F300023E024E0FF1D27F00707F7E8020105E072
:103F400000B2C117042B01D140B2C117002907DA12
:103F50004FF0000CD0EB0C006CEB01012D2302E0C4
:103F6000230504D52B238DF82430012303E0E30738
:103F700001D02023F7E7984650E00A210EE01020F8
:103F80004FF0000B08900CE010214FF0000B44F0B4
:103F900004044FF00809089103E008214FF0000BDA
:103FA0000891C4F30253022B04D001CF0021032B4C
:103FB00006D006E0FF1D27F00707F7E8020103E03F
:103FC00080B2042B00D1C0B24FF00008230725D5E2
:103FD000702A2AD0DDF820C08CF0100C5CEA0B0CA3
:103FE00009D150EA010306D030238DF824308DF832
:103FF000252002239846DDF820C08CF0080C5CEAEE
:104000000B0C0BD150EA010301D1630706D5302315
:104010008DF824304FF00108A9F10109582A09D080
:104020003EA20B9208AA0A9211E040238DF8243098
:104030000123DFE73EA2F4E75B46089AFFF7FAFDAB
:104040000B9B9B5C0A9AA2F101020A92137050EA40
:104050000102F1D10A98ADEB000000F1200B6007DE
:1040600002D524F4803401E04FF00109D94502DD86
:10407000A9EB0B0000E0002000EB0B01414408908D
:10408000AAEB010AE00306D4DDE90F2321465046DE
:1040900000F06BF80644002008E009A911F80900B7
:1040A000DDE90F129047761C09F101008146404579
:1040B000F3DBE0030CD5DDE90F232146504600F089
:1040C00054F8064404E0DDE90F1230209047761CD6
:1040D0000899481E08900029F5DC08E00A980A991A
:1040E0000078491C0A91DDE90F129047761CBBF15C
:1040F0000001ABF1010BF1DC21465046DDE90F2355
:1041000000F020F806446D1C287800287FF41DAECE
:1041100011B03046BDE8F08F09280100303132334C
:1041200034353637383961626364656600000000F3
:1041300030313233343536373839414243444546DD
:10414000000000002DE9F041044600251E461746F8
:10415000880405D406E039462020B04705F1010562
:10416000641EF8D52846BDE8F0812DE9F0410446EB
:1041700000251E469046C80301D5302700E02027C1
:10418000880405D506E041463846B04705F10105EB
:10419000641EF8D52846BDE8F08100005245414430
:1041A0005F4D495F4F4B2074686520256420617224
:1041B0006561206461746120697320202530327844
:1041C00025303278253032782530327825303278F3
:1041D00025303278253032782530327825303278E3
:1041E00025303278253032782530327825303278D3
:1041F0002530327825303278253032782020202042
:10420000200A000000A24A0400A24A0400A24A04B4
:104210000051250200A24A04384200080000002094
:10422000DC0000001C3D000814430008DC000020F6
:10423000A40200002C3D0008000000000000FF0761
:104240008029FFFFFFFFFFFF000000000000066D58
:10425000FABA42C1580042BF68003E541C0B7EFCB3
:10426000F80CFFFFFFFFFFFF000000000000FF074A
:104270008029FFFFFFFFFFFF41542B434950535458
:104280004152543D22544350222C2231302E302EA4
:10429000312E3535222C38300D0A41542B434950EC
:1042A0004D4F44453D310D0A41542B434950534530
:1042B0004E440D0A00000000000000000000000055
:1042C000000000000000000000000000A0860100C7
:1042D000F0490200400D0300A0860100000000002C
:1042E000000000000000500000000000000000007E
:1042F00000000000000000000000000000000000BE
:104300000102030401020304060708090204060867
:0443100000000000A9
:0400000508000147A7
:00000001FF
